{
  "_format": "hh-sol-artifact-1",
  "contractName": "BDN",
  "sourceName": "contracts/coreContracts/BDN.sol",
  "abi": [
    {
      "inputs": [],
      "stateMutability": "nonpayable",
      "type": "constructor"
    },
    {
      "anonymous": false,
      "inputs": [
        {
          "indexed": true,
          "internalType": "address",
          "name": "owner",
          "type": "address"
        },
        {
          "indexed": true,
          "internalType": "address",
          "name": "spender",
          "type": "address"
        },
        {
          "indexed": false,
          "internalType": "uint256",
          "name": "value",
          "type": "uint256"
        }
      ],
      "name": "Approval",
      "type": "event"
    },
    {
      "anonymous": false,
      "inputs": [
        {
          "indexed": true,
          "internalType": "address",
          "name": "previousOwner",
          "type": "address"
        },
        {
          "indexed": true,
          "internalType": "address",
          "name": "newOwner",
          "type": "address"
        }
      ],
      "name": "OwnershipTransferred",
      "type": "event"
    },
    {
      "anonymous": false,
      "inputs": [
        {
          "indexed": true,
          "internalType": "address",
          "name": "from",
          "type": "address"
        },
        {
          "indexed": true,
          "internalType": "address",
          "name": "to",
          "type": "address"
        },
        {
          "indexed": false,
          "internalType": "uint256",
          "name": "value",
          "type": "uint256"
        }
      ],
      "name": "Transfer",
      "type": "event"
    },
    {
      "anonymous": false,
      "inputs": [
        {
          "indexed": true,
          "internalType": "address",
          "name": "newVault",
          "type": "address"
        }
      ],
      "name": "VaultTransferred",
      "type": "event"
    },
    {
      "inputs": [
        {
          "internalType": "address",
          "name": "lpAddress",
          "type": "address"
        }
      ],
      "name": "addLpContractAddress",
      "outputs": [],
      "stateMutability": "nonpayable",
      "type": "function"
    },
    {
      "inputs": [
        {
          "internalType": "address",
          "name": "_add",
          "type": "address"
        }
      ],
      "name": "addTaxExempt",
      "outputs": [],
      "stateMutability": "nonpayable",
      "type": "function"
    },
    {
      "inputs": [
        {
          "internalType": "address",
          "name": "owner",
          "type": "address"
        },
        {
          "internalType": "address",
          "name": "spender",
          "type": "address"
        }
      ],
      "name": "allowance",
      "outputs": [
        {
          "internalType": "uint256",
          "name": "",
          "type": "uint256"
        }
      ],
      "stateMutability": "view",
      "type": "function"
    },
    {
      "inputs": [
        {
          "internalType": "address",
          "name": "spender",
          "type": "address"
        },
        {
          "internalType": "uint256",
          "name": "amount",
          "type": "uint256"
        }
      ],
      "name": "approve",
      "outputs": [
        {
          "internalType": "bool",
          "name": "",
          "type": "bool"
        }
      ],
      "stateMutability": "nonpayable",
      "type": "function"
    },
    {
      "inputs": [
        {
          "internalType": "address",
          "name": "account",
          "type": "address"
        }
      ],
      "name": "balanceOf",
      "outputs": [
        {
          "internalType": "uint256",
          "name": "",
          "type": "uint256"
        }
      ],
      "stateMutability": "view",
      "type": "function"
    },
    {
      "inputs": [],
      "name": "baseSellTax",
      "outputs": [
        {
          "internalType": "uint256",
          "name": "",
          "type": "uint256"
        }
      ],
      "stateMutability": "view",
      "type": "function"
    },
    {
      "inputs": [
        {
          "internalType": "uint256",
          "name": "amount_",
          "type": "uint256"
        }
      ],
      "name": "burn",
      "outputs": [],
      "stateMutability": "nonpayable",
      "type": "function"
    },
    {
      "inputs": [
        {
          "internalType": "address",
          "name": "account_",
          "type": "address"
        },
        {
          "internalType": "uint256",
          "name": "amount_",
          "type": "uint256"
        }
      ],
      "name": "burnFrom",
      "outputs": [],
      "stateMutability": "nonpayable",
      "type": "function"
    },
    {
      "inputs": [],
      "name": "decimals",
      "outputs": [
        {
          "internalType": "uint8",
          "name": "",
          "type": "uint8"
        }
      ],
      "stateMutability": "view",
      "type": "function"
    },
    {
      "inputs": [
        {
          "internalType": "address",
          "name": "spender",
          "type": "address"
        },
        {
          "internalType": "uint256",
          "name": "subtractedValue",
          "type": "uint256"
        }
      ],
      "name": "decreaseAllowance",
      "outputs": [
        {
          "internalType": "bool",
          "name": "",
          "type": "bool"
        }
      ],
      "stateMutability": "nonpayable",
      "type": "function"
    },
    {
      "inputs": [
        {
          "internalType": "uint256",
          "name": "amount",
          "type": "uint256"
        }
      ],
      "name": "getCurrentSellTax",
      "outputs": [
        {
          "internalType": "uint256",
          "name": "",
          "type": "uint256"
        }
      ],
      "stateMutability": "view",
      "type": "function"
    },
    {
      "inputs": [
        {
          "internalType": "address",
          "name": "spender",
          "type": "address"
        },
        {
          "internalType": "uint256",
          "name": "addedValue",
          "type": "uint256"
        }
      ],
      "name": "increaseAllowance",
      "outputs": [
        {
          "internalType": "bool",
          "name": "",
          "type": "bool"
        }
      ],
      "stateMutability": "nonpayable",
      "type": "function"
    },
    {
      "inputs": [
        {
          "internalType": "address",
          "name": "account",
          "type": "address"
        },
        {
          "internalType": "uint256",
          "name": "amount",
          "type": "uint256"
        }
      ],
      "name": "mint",
      "outputs": [],
      "stateMutability": "nonpayable",
      "type": "function"
    },
    {
      "inputs": [],
      "name": "multiplier",
      "outputs": [
        {
          "internalType": "uint256",
          "name": "",
          "type": "uint256"
        }
      ],
      "stateMutability": "view",
      "type": "function"
    },
    {
      "inputs": [],
      "name": "name",
      "outputs": [
        {
          "internalType": "string",
          "name": "",
          "type": "string"
        }
      ],
      "stateMutability": "view",
      "type": "function"
    },
    {
      "inputs": [],
      "name": "owner",
      "outputs": [
        {
          "internalType": "address",
          "name": "",
          "type": "address"
        }
      ],
      "stateMutability": "view",
      "type": "function"
    },
    {
      "inputs": [
        {
          "internalType": "address",
          "name": "_add",
          "type": "address"
        }
      ],
      "name": "removeTaxExempt",
      "outputs": [],
      "stateMutability": "nonpayable",
      "type": "function"
    },
    {
      "inputs": [],
      "name": "renounceOwnership",
      "outputs": [],
      "stateMutability": "nonpayable",
      "type": "function"
    },
    {
      "inputs": [
        {
          "internalType": "uint256",
          "name": "_baseSellTax",
          "type": "uint256"
        }
      ],
      "name": "setBaseSellTax",
      "outputs": [],
      "stateMutability": "nonpayable",
      "type": "function"
    },
    {
      "inputs": [
        {
          "internalType": "uint256",
          "name": "_multiplier",
          "type": "uint256"
        }
      ],
      "name": "setMultiplier",
      "outputs": [],
      "stateMutability": "nonpayable",
      "type": "function"
    },
    {
      "inputs": [
        {
          "internalType": "address",
          "name": "vault_",
          "type": "address"
        }
      ],
      "name": "setVault",
      "outputs": [],
      "stateMutability": "nonpayable",
      "type": "function"
    },
    {
      "inputs": [],
      "name": "symbol",
      "outputs": [
        {
          "internalType": "string",
          "name": "",
          "type": "string"
        }
      ],
      "stateMutability": "view",
      "type": "function"
    },
    {
      "inputs": [],
      "name": "totalSupply",
      "outputs": [
        {
          "internalType": "uint256",
          "name": "",
          "type": "uint256"
        }
      ],
      "stateMutability": "view",
      "type": "function"
    },
    {
      "inputs": [
        {
          "internalType": "address",
          "name": "to",
          "type": "address"
        },
        {
          "internalType": "uint256",
          "name": "amount",
          "type": "uint256"
        }
      ],
      "name": "transfer",
      "outputs": [
        {
          "internalType": "bool",
          "name": "",
          "type": "bool"
        }
      ],
      "stateMutability": "nonpayable",
      "type": "function"
    },
    {
      "inputs": [
        {
          "internalType": "address",
          "name": "from",
          "type": "address"
        },
        {
          "internalType": "address",
          "name": "to",
          "type": "address"
        },
        {
          "internalType": "uint256",
          "name": "amount",
          "type": "uint256"
        }
      ],
      "name": "transferFrom",
      "outputs": [
        {
          "internalType": "bool",
          "name": "",
          "type": "bool"
        }
      ],
      "stateMutability": "nonpayable",
      "type": "function"
    },
    {
      "inputs": [
        {
          "internalType": "address",
          "name": "newOwner",
          "type": "address"
        }
      ],
      "name": "transferOwnership",
      "outputs": [],
      "stateMutability": "nonpayable",
      "type": "function"
    },
    {
      "inputs": [],
      "name": "vault",
      "outputs": [
        {
          "internalType": "address",
          "name": "",
          "type": "address"
        }
      ],
      "stateMutability": "view",
      "type": "function"
    }
  ],
  "bytecode": "0x60806040523480156200001157600080fd5b5062000032620000266200013c60201b60201c565b6200014460201b60201c565b6040518060400160405280600f81526020017f427569646c657273204e6174696f6e0000000000000000000000000000000000815250600590805190602001906200007f92919062000208565b506040518060400160405280600381526020017f42444e000000000000000000000000000000000000000000000000000000000081525060069080519060200190620000cd92919062000208565b5060126009819055506005600a819055506001600860003373ffffffffffffffffffffffffffffffffffffffff1673ffffffffffffffffffffffffffffffffffffffff16815260200190815260200160002060006101000a81548160ff0219169083151502179055506200031d565b600033905090565b60008060009054906101000a900473ffffffffffffffffffffffffffffffffffffffff169050816000806101000a81548173ffffffffffffffffffffffffffffffffffffffff021916908373ffffffffffffffffffffffffffffffffffffffff1602179055508173ffffffffffffffffffffffffffffffffffffffff168173ffffffffffffffffffffffffffffffffffffffff167f8be0079c531659141344cd1fd0a4f28419497f9722a3daafe3b4186f6b6457e060405160405180910390a35050565b8280546200021690620002b8565b90600052602060002090601f0160209004810192826200023a576000855562000286565b82601f106200025557805160ff191683800117855562000286565b8280016001018555821562000286579182015b828111156200028557825182559160200191906001019062000268565b5b50905062000295919062000299565b5090565b5b80821115620002b45760008160009055506001016200029a565b5090565b60006002820490506001821680620002d157607f821691505b60208210811415620002e857620002e7620002ee565b5b50919050565b7f4e487b7100000000000000000000000000000000000000000000000000000000600052602260045260246000fd5b6129e1806200032d6000396000f3fe608060405234801561001057600080fd5b50600436106101a95760003560e01c806370a08231116100f9578063a457c2d711610097578063da8da65511610071578063da8da655146104ba578063dd62ed3e146104d6578063f2fde38b14610506578063fbfa77cf14610522576101a9565b8063a457c2d71461042a578063a9059cbb1461045a578063cd43c7511461048a576101a9565b80638da5cb5b116100d35780638da5cb5b146103b657806395d89b41146103d45780639ff0ebc9146103f2578063a3ffb1981461040e576101a9565b806370a0823114610360578063715018a61461039057806379cc67901461039a576101a9565b806339509351116101665780635b683e66116101405780635b683e66146102ee578063641579a61461030c57806366e670fe146103285780636817031b14610344576101a9565b8063395093511461028657806340c10f19146102b657806342966c68146102d2576101a9565b806306fdde03146101ae578063095ea7b3146101cc57806318160ddd146101fc5780631b3ed7221461021a57806323b872dd14610238578063313ce56714610268575b600080fd5b6101b6610540565b6040516101c39190611ffe565b60405180910390f35b6101e660048036038101906101e19190611c78565b6105d2565b6040516101f39190611fe3565b60405180910390f35b6102046105f5565b6040516102119190612260565b60405180910390f35b6102226105ff565b60405161022f9190612260565b60405180910390f35b610252600480360381019061024d9190611c29565b610605565b60405161025f9190611fe3565b60405180910390f35b610270610634565b60405161027d919061227b565b60405180910390f35b6102a0600480360381019061029b9190611c78565b61063d565b6040516102ad9190611fe3565b60405180910390f35b6102d060048036038101906102cb9190611c78565b6106e7565b005b6102ec60048036038101906102e79190611cb4565b610785565b005b6102f6610792565b6040516103039190612260565b60405180910390f35b61032660048036038101906103219190611cb4565b610798565b005b610342600480360381019061033d9190611bc4565b6107ee565b005b61035e60048036038101906103599190611bc4565b6108c1565b005b61037a60048036038101906103759190611bc4565b6109e2565b6040516103879190612260565b60405180910390f35b610398610a2b565b005b6103b460048036038101906103af9190611c78565b610a3f565b005b6103be610a4d565b6040516103cb9190611fc8565b60405180910390f35b6103dc610a76565b6040516103e99190611ffe565b60405180910390f35b61040c60048036038101906104079190611bc4565b610b08565b005b61042860048036038101906104239190611cb4565b610bd2565b005b610444600480360381019061043f9190611c78565b610c28565b6040516104519190611fe3565b60405180910390f35b610474600480360381019061046f9190611c78565b610d12565b6040516104819190611fe3565b60405180910390f35b6104a4600480360381019061049f9190611cb4565b610d35565b6040516104b19190612260565b60405180910390f35b6104d460048036038101906104cf9190611bc4565b610dd7565b005b6104f060048036038101906104eb9190611bed565b610eaa565b6040516104fd9190612260565b60405180910390f35b610520600480360381019061051b9190611bc4565b610f31565b005b61052a610fb5565b6040516105379190611fc8565b60405180910390f35b60606005805461054f9061244f565b80601f016020809104026020016040519081016040528092919081815260200182805461057b9061244f565b80156105c85780601f1061059d576101008083540402835291602001916105c8565b820191906000526020600020905b8154815290600101906020018083116105ab57829003601f168201915b5050505050905090565b6000806105dd610fdf565b90506105ea818585610fe7565b600191505092915050565b6000600454905090565b600a5481565b600080610610610fdf565b905061061d8582856111b2565b61062885858561123e565b60019150509392505050565b60006012905090565b600080610648610fdf565b90506106dc818585600360008673ffffffffffffffffffffffffffffffffffffffff1673ffffffffffffffffffffffffffffffffffffffff16815260200190815260200160002060008973ffffffffffffffffffffffffffffffffffffffff1673ffffffffffffffffffffffffffffffffffffffff168152602001908152602001600020546106d791906122b2565b610fe7565b600191505092915050565b3373ffffffffffffffffffffffffffffffffffffffff16600160009054906101000a900473ffffffffffffffffffffffffffffffffffffffff1673ffffffffffffffffffffffffffffffffffffffff1614610777576040517f08c379a000000000000000000000000000000000000000000000000000000000815260040161076e90612160565b60405180910390fd5b61078182826114d2565b5050565b61078f3382611633565b50565b60095481565b6107a061180c565b600f8111156107e4576040517f08c379a00000000000000000000000000000000000000000000000000000000081526004016107db906120a0565b60405180910390fd5b80600a8190555050565b6107f661180c565b600073ffffffffffffffffffffffffffffffffffffffff168173ffffffffffffffffffffffffffffffffffffffff161415610866576040517f08c379a000000000000000000000000000000000000000000000000000000000815260040161085d90612120565b60405180910390fd5b6001600860008373ffffffffffffffffffffffffffffffffffffffff1673ffffffffffffffffffffffffffffffffffffffff16815260200190815260200160002060006101000a81548160ff02191690831515021790555050565b6108c961180c565b600073ffffffffffffffffffffffffffffffffffffffff168173ffffffffffffffffffffffffffffffffffffffff161415610939576040517f08c379a000000000000000000000000000000000000000000000000000000000815260040161093090612100565b60405180910390fd5b80600160006101000a81548173ffffffffffffffffffffffffffffffffffffffff021916908373ffffffffffffffffffffffffffffffffffffffff160217905550600160009054906101000a900473ffffffffffffffffffffffffffffffffffffffff1673ffffffffffffffffffffffffffffffffffffffff167f3811c8bde9c524fca0e85a90109ab6e776e4f6e675fa7b219c7973abeacb6b2760405160405180910390a250565b6000600260008373ffffffffffffffffffffffffffffffffffffffff1673ffffffffffffffffffffffffffffffffffffffff168152602001908152602001600020549050919050565b610a3361180c565b610a3d600061188a565b565b610a49828261194e565b5050565b60008060009054906101000a900473ffffffffffffffffffffffffffffffffffffffff16905090565b606060068054610a859061244f565b80601f0160208091040260200160405190810160405280929190818152602001828054610ab19061244f565b8015610afe5780601f10610ad357610100808354040283529160200191610afe565b820191906000526020600020905b815481529060010190602001808311610ae157829003601f168201915b5050505050905090565b610b1061180c565b600073ffffffffffffffffffffffffffffffffffffffff168173ffffffffffffffffffffffffffffffffffffffff161415610b80576040517f08c379a0000000000000000000000000000000000000000000000000000000008152600401610b7790612120565b60405180910390fd5b600860008273ffffffffffffffffffffffffffffffffffffffff1673ffffffffffffffffffffffffffffffffffffffff16815260200190815260200160002060006101000a81549060ff021916905550565b610bda61180c565b601e811115610c1e576040517f08c379a0000000000000000000000000000000000000000000000000000000008152600401610c1590612200565b60405180910390fd5b8060098190555050565b600080610c33610fdf565b90506000600360008373ffffffffffffffffffffffffffffffffffffffff1673ffffffffffffffffffffffffffffffffffffffff16815260200190815260200160002060008673ffffffffffffffffffffffffffffffffffffffff1673ffffffffffffffffffffffffffffffffffffffff16815260200190815260200160002054905083811015610cf9576040517f08c379a0000000000000000000000000000000000000000000000000000000008152600401610cf090612220565b60405180910390fd5b610d068286868403610fe7565b60019250505092915050565b600080610d1d610fdf565b9050610d2a81858561123e565b600191505092915050565b60008068056bc75e2d631000008311610d52576009549050610dce565b683635c9adc5dea000008311610d7957600a54600954610d7291906122b2565b9050610dcd565b69021e19e0c9bab24000008311610dad576002600a54610d999190612339565b600954610da691906122b2565b9050610dcc565b6003600a54610dbc9190612339565b600954610dc991906122b2565b90505b5b5b80915050919050565b610ddf61180c565b600073ffffffffffffffffffffffffffffffffffffffff168173ffffffffffffffffffffffffffffffffffffffff161415610e4f576040517f08c379a0000000000000000000000000000000000000000000000000000000008152600401610e4690612140565b60405180910390fd5b6001600760008373ffffffffffffffffffffffffffffffffffffffff1673ffffffffffffffffffffffffffffffffffffffff16815260200190815260200160002060006101000a81548160ff02191690831515021790555050565b6000600360008473ffffffffffffffffffffffffffffffffffffffff1673ffffffffffffffffffffffffffffffffffffffff16815260200190815260200160002060008373ffffffffffffffffffffffffffffffffffffffff1673ffffffffffffffffffffffffffffffffffffffff16815260200190815260200160002054905092915050565b610f3961180c565b600073ffffffffffffffffffffffffffffffffffffffff168173ffffffffffffffffffffffffffffffffffffffff161415610fa9576040517f08c379a0000000000000000000000000000000000000000000000000000000008152600401610fa090612060565b60405180910390fd5b610fb28161188a565b50565b6000600160009054906101000a900473ffffffffffffffffffffffffffffffffffffffff16905090565b600033905090565b600073ffffffffffffffffffffffffffffffffffffffff168373ffffffffffffffffffffffffffffffffffffffff161415611057576040517f08c379a000000000000000000000000000000000000000000000000000000000815260040161104e906121e0565b60405180910390fd5b600073ffffffffffffffffffffffffffffffffffffffff168273ffffffffffffffffffffffffffffffffffffffff1614156110c7576040517f08c379a00000000000000000000000000000000000000000000000000000000081526004016110be90612080565b60405180910390fd5b80600360008573ffffffffffffffffffffffffffffffffffffffff1673ffffffffffffffffffffffffffffffffffffffff16815260200190815260200160002060008473ffffffffffffffffffffffffffffffffffffffff1673ffffffffffffffffffffffffffffffffffffffff168152602001908152602001600020819055508173ffffffffffffffffffffffffffffffffffffffff168373ffffffffffffffffffffffffffffffffffffffff167f8c5be1e5ebec7d5bd14f71427d1e84f3dd0314c0f7b2291e5b200ac8c7c3b925836040516111a59190612260565b60405180910390a3505050565b60006111be8484610eaa565b90507fffffffffffffffffffffffffffffffffffffffffffffffffffffffffffffffff8114611238578181101561122a576040517f08c379a0000000000000000000000000000000000000000000000000000000008152600401611221906120c0565b60405180910390fd5b6112378484848403610fe7565b5b50505050565b600073ffffffffffffffffffffffffffffffffffffffff168373ffffffffffffffffffffffffffffffffffffffff1614156112ae576040517f08c379a00000000000000000000000000000000000000000000000000000000081526004016112a5906121c0565b60405180910390fd5b600073ffffffffffffffffffffffffffffffffffffffff168273ffffffffffffffffffffffffffffffffffffffff16141561131e576040517f08c379a000000000000000000000000000000000000000000000000000000000815260040161131590612020565b60405180910390fd5b611329838383611988565b6000600260008573ffffffffffffffffffffffffffffffffffffffff1673ffffffffffffffffffffffffffffffffffffffff168152602001908152602001600020549050818110156113b0576040517f08c379a00000000000000000000000000000000000000000000000000000000081526004016113a7906120e0565b60405180910390fd5b818103600260008673ffffffffffffffffffffffffffffffffffffffff1673ffffffffffffffffffffffffffffffffffffffff16815260200190815260200160002081905550600061140385858561198d565b905080600260008673ffffffffffffffffffffffffffffffffffffffff1673ffffffffffffffffffffffffffffffffffffffff168152602001908152602001600020600082825461145491906122b2565b925050819055508373ffffffffffffffffffffffffffffffffffffffff168573ffffffffffffffffffffffffffffffffffffffff167fddf252ad1be2c89b69c2b068fc378daa952ba7f163c4a11628f55a4df523b3ef836040516114b89190612260565b60405180910390a36114cb858583611b53565b5050505050565b600073ffffffffffffffffffffffffffffffffffffffff168273ffffffffffffffffffffffffffffffffffffffff161415611542576040517f08c379a000000000000000000000000000000000000000000000000000000000815260040161153990612240565b60405180910390fd5b61154e60008383611988565b806004600082825461156091906122b2565b9250508190555080600260008473ffffffffffffffffffffffffffffffffffffffff1673ffffffffffffffffffffffffffffffffffffffff16815260200190815260200160002060008282546115b691906122b2565b925050819055508173ffffffffffffffffffffffffffffffffffffffff16600073ffffffffffffffffffffffffffffffffffffffff167fddf252ad1be2c89b69c2b068fc378daa952ba7f163c4a11628f55a4df523b3ef8360405161161b9190612260565b60405180910390a361162f60008383611b53565b5050565b600073ffffffffffffffffffffffffffffffffffffffff168273ffffffffffffffffffffffffffffffffffffffff1614156116a3576040517f08c379a000000000000000000000000000000000000000000000000000000000815260040161169a906121a0565b60405180910390fd5b6116af82600083611988565b6000600260008473ffffffffffffffffffffffffffffffffffffffff1673ffffffffffffffffffffffffffffffffffffffff16815260200190815260200160002054905081811015611736576040517f08c379a000000000000000000000000000000000000000000000000000000000815260040161172d90612040565b60405180910390fd5b818103600260008573ffffffffffffffffffffffffffffffffffffffff1673ffffffffffffffffffffffffffffffffffffffff16815260200190815260200160002081905550816004600082825461178e9190612393565b92505081905550600073ffffffffffffffffffffffffffffffffffffffff168373ffffffffffffffffffffffffffffffffffffffff167fddf252ad1be2c89b69c2b068fc378daa952ba7f163c4a11628f55a4df523b3ef846040516117f39190612260565b60405180910390a361180783600084611b53565b505050565b611814610fdf565b73ffffffffffffffffffffffffffffffffffffffff16611832610a4d565b73ffffffffffffffffffffffffffffffffffffffff1614611888576040517f08c379a000000000000000000000000000000000000000000000000000000000815260040161187f90612180565b60405180910390fd5b565b60008060009054906101000a900473ffffffffffffffffffffffffffffffffffffffff169050816000806101000a81548173ffffffffffffffffffffffffffffffffffffffff021916908373ffffffffffffffffffffffffffffffffffffffff1602179055508173ffffffffffffffffffffffffffffffffffffffff168173ffffffffffffffffffffffffffffffffffffffff167f8be0079c531659141344cd1fd0a4f28419497f9722a3daafe3b4186f6b6457e060405160405180910390a35050565b600061196c8261195e8533610eaa565b611b5890919063ffffffff16565b9050611979833383610fe7565b6119838383611633565b505050565b505050565b6000600860008573ffffffffffffffffffffffffffffffffffffffff1673ffffffffffffffffffffffffffffffffffffffff16815260200190815260200160002060009054906101000a900460ff1680611a315750600760008473ffffffffffffffffffffffffffffffffffffffff1673ffffffffffffffffffffffffffffffffffffffff16815260200190815260200160002060009054906101000a900460ff16155b15611a3e57819050611b4c565b6000611a6e6064611a60611a5186610d35565b86611b6e90919063ffffffff16565b611b8490919063ffffffff16565b905080600260003073ffffffffffffffffffffffffffffffffffffffff1673ffffffffffffffffffffffffffffffffffffffff1681526020019081526020016000206000828254611abf91906122b2565b92505081905550611ad03082611633565b3073ffffffffffffffffffffffffffffffffffffffff168573ffffffffffffffffffffffffffffffffffffffff167fddf252ad1be2c89b69c2b068fc378daa952ba7f163c4a11628f55a4df523b3ef83604051611b2d9190612260565b60405180910390a3611b488184611b5890919063ffffffff16565b9150505b9392505050565b505050565b60008183611b669190612393565b905092915050565b60008183611b7c9190612339565b905092915050565b60008183611b929190612308565b905092915050565b600081359050611ba98161297d565b92915050565b600081359050611bbe81612994565b92915050565b600060208284031215611bd657600080fd5b6000611be484828501611b9a565b91505092915050565b60008060408385031215611c0057600080fd5b6000611c0e85828601611b9a565b9250506020611c1f85828601611b9a565b9150509250929050565b600080600060608486031215611c3e57600080fd5b6000611c4c86828701611b9a565b9350506020611c5d86828701611b9a565b9250506040611c6e86828701611baf565b9150509250925092565b60008060408385031215611c8b57600080fd5b6000611c9985828601611b9a565b9250506020611caa85828601611baf565b9150509250929050565b600060208284031215611cc657600080fd5b6000611cd484828501611baf565b91505092915050565b611ce6816123c7565b82525050565b611cf5816123d9565b82525050565b6000611d0682612296565b611d1081856122a1565b9350611d2081856020860161241c565b611d298161250e565b840191505092915050565b6000611d416023836122a1565b9150611d4c8261251f565b604082019050919050565b6000611d646022836122a1565b9150611d6f8261256e565b604082019050919050565b6000611d876026836122a1565b9150611d92826125bd565b604082019050919050565b6000611daa6022836122a1565b9150611db58261260c565b604082019050919050565b6000611dcd6013836122a1565b9150611dd88261265b565b602082019050919050565b6000611df0601d836122a1565b9150611dfb82612684565b602082019050919050565b6000611e136026836122a1565b9150611e1e826126ad565b604082019050919050565b6000611e366003836122a1565b9150611e41826126fc565b602082019050919050565b6000611e59600f836122a1565b9150611e6482612725565b602082019050919050565b6000611e7c6012836122a1565b9150611e878261274e565b602082019050919050565b6000611e9f6023836122a1565b9150611eaa82612777565b604082019050919050565b6000611ec26020836122a1565b9150611ecd826127c6565b602082019050919050565b6000611ee56021836122a1565b9150611ef0826127ef565b604082019050919050565b6000611f086025836122a1565b9150611f138261283e565b604082019050919050565b6000611f2b6024836122a1565b9150611f368261288d565b604082019050919050565b6000611f4e6016836122a1565b9150611f59826128dc565b602082019050919050565b6000611f716025836122a1565b9150611f7c82612905565b604082019050919050565b6000611f94601f836122a1565b9150611f9f82612954565b602082019050919050565b611fb381612405565b82525050565b611fc28161240f565b82525050565b6000602082019050611fdd6000830184611cdd565b92915050565b6000602082019050611ff86000830184611cec565b92915050565b600060208201905081810360008301526120188184611cfb565b905092915050565b6000602082019050818103600083015261203981611d34565b9050919050565b6000602082019050818103600083015261205981611d57565b9050919050565b6000602082019050818103600083015261207981611d7a565b9050919050565b6000602082019050818103600083015261209981611d9d565b9050919050565b600060208201905081810360008301526120b981611dc0565b9050919050565b600060208201905081810360008301526120d981611de3565b9050919050565b600060208201905081810360008301526120f981611e06565b9050919050565b6000602082019050818103600083015261211981611e29565b9050919050565b6000602082019050818103600083015261213981611e4c565b9050919050565b6000602082019050818103600083015261215981611e6f565b9050919050565b6000602082019050818103600083015261217981611e92565b9050919050565b6000602082019050818103600083015261219981611eb5565b9050919050565b600060208201905081810360008301526121b981611ed8565b9050919050565b600060208201905081810360008301526121d981611efb565b9050919050565b600060208201905081810360008301526121f981611f1e565b9050919050565b6000602082019050818103600083015261221981611f41565b9050919050565b6000602082019050818103600083015261223981611f64565b9050919050565b6000602082019050818103600083015261225981611f87565b9050919050565b60006020820190506122756000830184611faa565b92915050565b60006020820190506122906000830184611fb9565b92915050565b600081519050919050565b600082825260208201905092915050565b60006122bd82612405565b91506122c883612405565b9250827fffffffffffffffffffffffffffffffffffffffffffffffffffffffffffffffff038211156122fd576122fc612481565b5b828201905092915050565b600061231382612405565b915061231e83612405565b92508261232e5761232d6124b0565b5b828204905092915050565b600061234482612405565b915061234f83612405565b9250817fffffffffffffffffffffffffffffffffffffffffffffffffffffffffffffffff048311821515161561238857612387612481565b5b828202905092915050565b600061239e82612405565b91506123a983612405565b9250828210156123bc576123bb612481565b5b828203905092915050565b60006123d2826123e5565b9050919050565b60008115159050919050565b600073ffffffffffffffffffffffffffffffffffffffff82169050919050565b6000819050919050565b600060ff82169050919050565b60005b8381101561243a57808201518184015260208101905061241f565b83811115612449576000848401525b50505050565b6000600282049050600182168061246757607f821691505b6020821081141561247b5761247a6124df565b5b50919050565b7f4e487b7100000000000000000000000000000000000000000000000000000000600052601160045260246000fd5b7f4e487b7100000000000000000000000000000000000000000000000000000000600052601260045260246000fd5b7f4e487b7100000000000000000000000000000000000000000000000000000000600052602260045260246000fd5b6000601f19601f8301169050919050565b7f45524332303a207472616e7366657220746f20746865207a65726f206164647260008201527f6573730000000000000000000000000000000000000000000000000000000000602082015250565b7f45524332303a206275726e20616d6f756e7420657863656564732062616c616e60008201527f6365000000000000000000000000000000000000000000000000000000000000602082015250565b7f4f776e61626c653a206e6577206f776e657220697320746865207a65726f206160008201527f6464726573730000000000000000000000000000000000000000000000000000602082015250565b7f45524332303a20617070726f766520746f20746865207a65726f20616464726560008201527f7373000000000000000000000000000000000000000000000000000000000000602082015250565b7f4d756c7469706c69657220546f6f204869676800000000000000000000000000600082015250565b7f45524332303a20696e73756666696369656e7420616c6c6f77616e6365000000600082015250565b7f45524332303a207472616e7366657220616d6f756e742065786365656473206260008201527f616c616e63650000000000000000000000000000000000000000000000000000602082015250565b7f4941300000000000000000000000000000000000000000000000000000000000600082015250565b7f61646472657373206973207a65726f0000000000000000000000000000000000600082015250565b7f6c702061646472657373206973207a65726f0000000000000000000000000000600082015250565b7f5661756c744f776e65643a2063616c6c6572206973206e6f742074686520566160008201527f756c740000000000000000000000000000000000000000000000000000000000602082015250565b7f4f776e61626c653a2063616c6c6572206973206e6f7420746865206f776e6572600082015250565b7f45524332303a206275726e2066726f6d20746865207a65726f2061646472657360008201527f7300000000000000000000000000000000000000000000000000000000000000602082015250565b7f45524332303a207472616e736665722066726f6d20746865207a65726f20616460008201527f6472657373000000000000000000000000000000000000000000000000000000602082015250565b7f45524332303a20617070726f76652066726f6d20746865207a65726f2061646460008201527f7265737300000000000000000000000000000000000000000000000000000000602082015250565b7f426173652053656c6c2054617820546f6f204869676800000000000000000000600082015250565b7f45524332303a2064656372656173656420616c6c6f77616e63652062656c6f7760008201527f207a65726f000000000000000000000000000000000000000000000000000000602082015250565b7f45524332303a206d696e7420746f20746865207a65726f206164647265737300600082015250565b612986816123c7565b811461299157600080fd5b50565b61299d81612405565b81146129a857600080fd5b5056fea26469706673582212200c946db0aa0710fccc3122aaac6a40ba38593e5257c7a8803d76ecb4b1fb31d264736f6c63430008040033",
  "linkReferences": {},
  "deployedLinkReferences": {}
}