{
  "_format": "hh-sol-artifact-1",
  "contractName": "Bond",
  "sourceName": "contracts/coreContracts/Bond.sol",
  "abi": [
    {
      "inputs": [
        {
          "internalType": "address",
          "name": "_BDN",
          "type": "address"
        },
        {
          "internalType": "address",
          "name": "_principle",
          "type": "address"
        },
        {
          "internalType": "address",
          "name": "_treasury",
          "type": "address"
        },
        {
          "internalType": "address",
          "name": "_DAO",
          "type": "address"
        }
      ],
      "stateMutability": "nonpayable",
      "type": "constructor"
    },
    {
      "anonymous": false,
      "inputs": [
        {
          "indexed": false,
          "internalType": "uint256",
          "name": "deposit",
          "type": "uint256"
        },
        {
          "indexed": true,
          "internalType": "uint256",
          "name": "payout",
          "type": "uint256"
        },
        {
          "indexed": true,
          "internalType": "uint256",
          "name": "expires",
          "type": "uint256"
        },
        {
          "indexed": true,
          "internalType": "uint256",
          "name": "priceInUSD",
          "type": "uint256"
        }
      ],
      "name": "BondCreated",
      "type": "event"
    },
    {
      "anonymous": false,
      "inputs": [
        {
          "indexed": true,
          "internalType": "uint256",
          "name": "priceInUSD",
          "type": "uint256"
        },
        {
          "indexed": true,
          "internalType": "uint256",
          "name": "internalPrice",
          "type": "uint256"
        },
        {
          "indexed": true,
          "internalType": "uint256",
          "name": "debtRatio",
          "type": "uint256"
        }
      ],
      "name": "BondPriceChanged",
      "type": "event"
    },
    {
      "anonymous": false,
      "inputs": [
        {
          "indexed": true,
          "internalType": "address",
          "name": "recipient",
          "type": "address"
        },
        {
          "indexed": false,
          "internalType": "uint256",
          "name": "payout",
          "type": "uint256"
        },
        {
          "indexed": false,
          "internalType": "uint256",
          "name": "remaining",
          "type": "uint256"
        }
      ],
      "name": "BondRedeemed",
      "type": "event"
    },
    {
      "anonymous": false,
      "inputs": [
        {
          "indexed": false,
          "internalType": "uint256",
          "name": "initialBCV",
          "type": "uint256"
        },
        {
          "indexed": false,
          "internalType": "uint256",
          "name": "newBCV",
          "type": "uint256"
        },
        {
          "indexed": false,
          "internalType": "uint256",
          "name": "adjustment",
          "type": "uint256"
        },
        {
          "indexed": false,
          "internalType": "bool",
          "name": "addition",
          "type": "bool"
        }
      ],
      "name": "ControlVariableAdjustment",
      "type": "event"
    },
    {
      "anonymous": false,
      "inputs": [
        {
          "components": [
            {
              "internalType": "uint256",
              "name": "controlVariable",
              "type": "uint256"
            },
            {
              "internalType": "uint256",
              "name": "minimumPrice",
              "type": "uint256"
            },
            {
              "internalType": "uint256",
              "name": "maxPayout",
              "type": "uint256"
            },
            {
              "internalType": "uint256",
              "name": "fee",
              "type": "uint256"
            },
            {
              "internalType": "uint256",
              "name": "bondingRewardFee",
              "type": "uint256"
            },
            {
              "internalType": "uint256",
              "name": "maxDebt",
              "type": "uint256"
            },
            {
              "internalType": "uint32",
              "name": "vestingTerm",
              "type": "uint32"
            },
            {
              "internalType": "uint256",
              "name": "minimumPayout",
              "type": "uint256"
            }
          ],
          "indexed": false,
          "internalType": "struct Bond.Terms",
          "name": "terms",
          "type": "tuple"
        }
      ],
      "name": "InitTerms",
      "type": "event"
    },
    {
      "anonymous": false,
      "inputs": [
        {
          "indexed": true,
          "internalType": "address",
          "name": "tokenToRecover",
          "type": "address"
        },
        {
          "indexed": false,
          "internalType": "uint256",
          "name": "amount",
          "type": "uint256"
        }
      ],
      "name": "LogRecoverLostToken",
      "type": "event"
    },
    {
      "anonymous": false,
      "inputs": [
        {
          "components": [
            {
              "internalType": "bool",
              "name": "add",
              "type": "bool"
            },
            {
              "internalType": "uint256",
              "name": "rate",
              "type": "uint256"
            },
            {
              "internalType": "uint256",
              "name": "maxTarget",
              "type": "uint256"
            },
            {
              "internalType": "uint256",
              "name": "minTarget",
              "type": "uint256"
            },
            {
              "internalType": "uint32",
              "name": "buffer",
              "type": "uint32"
            },
            {
              "internalType": "uint32",
              "name": "lastTime",
              "type": "uint32"
            }
          ],
          "indexed": false,
          "internalType": "struct Bond.Adjust",
          "name": "adjust",
          "type": "tuple"
        }
      ],
      "name": "LogSetAdjustment",
      "type": "event"
    },
    {
      "anonymous": false,
      "inputs": [
        {
          "indexed": true,
          "internalType": "address",
          "name": "stakingContract",
          "type": "address"
        }
      ],
      "name": "LogSetStaking",
      "type": "event"
    },
    {
      "anonymous": false,
      "inputs": [
        {
          "indexed": false,
          "internalType": "enum Bond.PARAMETER",
          "name": "param",
          "type": "uint8"
        },
        {
          "indexed": false,
          "internalType": "uint256",
          "name": "value",
          "type": "uint256"
        }
      ],
      "name": "LogSetTerms",
      "type": "event"
    },
    {
      "anonymous": false,
      "inputs": [
        {
          "indexed": true,
          "internalType": "address",
          "name": "tavCalculatorContract",
          "type": "address"
        }
      ],
      "name": "LogTAVCalculator",
      "type": "event"
    },
    {
      "anonymous": false,
      "inputs": [
        {
          "indexed": true,
          "internalType": "address",
          "name": "previousOwner",
          "type": "address"
        },
        {
          "indexed": true,
          "internalType": "address",
          "name": "newOwner",
          "type": "address"
        }
      ],
      "name": "OwnershipTransferred",
      "type": "event"
    },
    {
      "inputs": [],
      "name": "BDN",
      "outputs": [
        {
          "internalType": "contract IERC20",
          "name": "",
          "type": "address"
        }
      ],
      "stateMutability": "view",
      "type": "function"
    },
    {
      "inputs": [],
      "name": "DAO",
      "outputs": [
        {
          "internalType": "address",
          "name": "",
          "type": "address"
        }
      ],
      "stateMutability": "view",
      "type": "function"
    },
    {
      "inputs": [],
      "name": "adjustment",
      "outputs": [
        {
          "internalType": "bool",
          "name": "add",
          "type": "bool"
        },
        {
          "internalType": "uint256",
          "name": "rate",
          "type": "uint256"
        },
        {
          "internalType": "uint256",
          "name": "maxTarget",
          "type": "uint256"
        },
        {
          "internalType": "uint256",
          "name": "minTarget",
          "type": "uint256"
        },
        {
          "internalType": "uint32",
          "name": "buffer",
          "type": "uint32"
        },
        {
          "internalType": "uint32",
          "name": "lastTime",
          "type": "uint32"
        }
      ],
      "stateMutability": "view",
      "type": "function"
    },
    {
      "inputs": [
        {
          "internalType": "address",
          "name": "",
          "type": "address"
        }
      ],
      "name": "bondInfo",
      "outputs": [
        {
          "internalType": "uint256",
          "name": "payout",
          "type": "uint256"
        },
        {
          "internalType": "uint256",
          "name": "pricePaid",
          "type": "uint256"
        },
        {
          "internalType": "uint32",
          "name": "lastTime",
          "type": "uint32"
        },
        {
          "internalType": "uint32",
          "name": "vesting",
          "type": "uint32"
        }
      ],
      "stateMutability": "view",
      "type": "function"
    },
    {
      "inputs": [],
      "name": "bondPrice",
      "outputs": [
        {
          "internalType": "uint256",
          "name": "price_",
          "type": "uint256"
        }
      ],
      "stateMutability": "view",
      "type": "function"
    },
    {
      "inputs": [],
      "name": "bondPriceInUSD",
      "outputs": [
        {
          "internalType": "uint256",
          "name": "price_",
          "type": "uint256"
        }
      ],
      "stateMutability": "view",
      "type": "function"
    },
    {
      "inputs": [],
      "name": "bondingReward",
      "outputs": [
        {
          "internalType": "uint256",
          "name": "",
          "type": "uint256"
        }
      ],
      "stateMutability": "view",
      "type": "function"
    },
    {
      "inputs": [],
      "name": "calculateBondingReward",
      "outputs": [
        {
          "internalType": "uint256",
          "name": "bondingReward_",
          "type": "uint256"
        }
      ],
      "stateMutability": "view",
      "type": "function"
    },
    {
      "inputs": [],
      "name": "currentDebt",
      "outputs": [
        {
          "internalType": "uint256",
          "name": "",
          "type": "uint256"
        }
      ],
      "stateMutability": "view",
      "type": "function"
    },
    {
      "inputs": [],
      "name": "debtDecay",
      "outputs": [
        {
          "internalType": "uint256",
          "name": "decay_",
          "type": "uint256"
        }
      ],
      "stateMutability": "view",
      "type": "function"
    },
    {
      "inputs": [],
      "name": "debtRatio",
      "outputs": [
        {
          "internalType": "uint256",
          "name": "debtRatio_",
          "type": "uint256"
        }
      ],
      "stateMutability": "view",
      "type": "function"
    },
    {
      "inputs": [
        {
          "internalType": "uint256",
          "name": "_amount",
          "type": "uint256"
        },
        {
          "internalType": "uint256",
          "name": "_maxPrice",
          "type": "uint256"
        }
      ],
      "name": "deposit",
      "outputs": [
        {
          "internalType": "uint256",
          "name": "",
          "type": "uint256"
        }
      ],
      "stateMutability": "nonpayable",
      "type": "function"
    },
    {
      "inputs": [],
      "name": "floorPriceValue",
      "outputs": [
        {
          "internalType": "uint256",
          "name": "",
          "type": "uint256"
        }
      ],
      "stateMutability": "view",
      "type": "function"
    },
    {
      "inputs": [
        {
          "internalType": "uint256",
          "name": "_controlVariable",
          "type": "uint256"
        },
        {
          "internalType": "uint256",
          "name": "_minimumPrice",
          "type": "uint256"
        },
        {
          "internalType": "uint256",
          "name": "_maxPayout",
          "type": "uint256"
        },
        {
          "internalType": "uint256",
          "name": "_minPayout",
          "type": "uint256"
        },
        {
          "internalType": "uint256",
          "name": "_fee",
          "type": "uint256"
        },
        {
          "internalType": "uint256",
          "name": "_bondingRewardFee",
          "type": "uint256"
        },
        {
          "internalType": "uint256",
          "name": "_maxDebt",
          "type": "uint256"
        },
        {
          "internalType": "uint32",
          "name": "_vestingTerm",
          "type": "uint32"
        }
      ],
      "name": "initializeBondTerms",
      "outputs": [],
      "stateMutability": "nonpayable",
      "type": "function"
    },
    {
      "inputs": [],
      "name": "lastDecay",
      "outputs": [
        {
          "internalType": "uint32",
          "name": "",
          "type": "uint32"
        }
      ],
      "stateMutability": "view",
      "type": "function"
    },
    {
      "inputs": [],
      "name": "maxPayout",
      "outputs": [
        {
          "internalType": "uint256",
          "name": "",
          "type": "uint256"
        }
      ],
      "stateMutability": "view",
      "type": "function"
    },
    {
      "inputs": [],
      "name": "owner",
      "outputs": [
        {
          "internalType": "address",
          "name": "",
          "type": "address"
        }
      ],
      "stateMutability": "view",
      "type": "function"
    },
    {
      "inputs": [
        {
          "internalType": "uint256",
          "name": "_value",
          "type": "uint256"
        }
      ],
      "name": "payoutFor",
      "outputs": [
        {
          "internalType": "uint256",
          "name": "",
          "type": "uint256"
        }
      ],
      "stateMutability": "view",
      "type": "function"
    },
    {
      "inputs": [
        {
          "internalType": "address",
          "name": "_depositor",
          "type": "address"
        }
      ],
      "name": "pendingPayoutFor",
      "outputs": [
        {
          "internalType": "uint256",
          "name": "pendingPayout_",
          "type": "uint256"
        }
      ],
      "stateMutability": "view",
      "type": "function"
    },
    {
      "inputs": [
        {
          "internalType": "address",
          "name": "_depositor",
          "type": "address"
        }
      ],
      "name": "percentVestedFor",
      "outputs": [
        {
          "internalType": "uint256",
          "name": "percentVested_",
          "type": "uint256"
        }
      ],
      "stateMutability": "view",
      "type": "function"
    },
    {
      "inputs": [],
      "name": "principle",
      "outputs": [
        {
          "internalType": "contract IERC20",
          "name": "",
          "type": "address"
        }
      ],
      "stateMutability": "view",
      "type": "function"
    },
    {
      "inputs": [
        {
          "internalType": "address",
          "name": "_token",
          "type": "address"
        }
      ],
      "name": "recoverLostToken",
      "outputs": [
        {
          "internalType": "bool",
          "name": "",
          "type": "bool"
        }
      ],
      "stateMutability": "nonpayable",
      "type": "function"
    },
    {
      "inputs": [
        {
          "internalType": "address",
          "name": "_recipient",
          "type": "address"
        },
        {
          "internalType": "bool",
          "name": "_stake",
          "type": "bool"
        }
      ],
      "name": "redeem",
      "outputs": [],
      "stateMutability": "nonpayable",
      "type": "function"
    },
    {
      "inputs": [],
      "name": "renounceOwnership",
      "outputs": [],
      "stateMutability": "nonpayable",
      "type": "function"
    },
    {
      "inputs": [
        {
          "internalType": "bool",
          "name": "_addition",
          "type": "bool"
        },
        {
          "internalType": "uint256",
          "name": "_increment",
          "type": "uint256"
        },
        {
          "internalType": "uint256",
          "name": "_maxTarget",
          "type": "uint256"
        },
        {
          "internalType": "uint256",
          "name": "_minTarget",
          "type": "uint256"
        },
        {
          "internalType": "uint32",
          "name": "_buffer",
          "type": "uint32"
        }
      ],
      "name": "setAdjustment",
      "outputs": [],
      "stateMutability": "nonpayable",
      "type": "function"
    },
    {
      "inputs": [
        {
          "internalType": "enum Bond.PARAMETER",
          "name": "_parameter",
          "type": "uint8"
        },
        {
          "internalType": "uint256",
          "name": "_input",
          "type": "uint256"
        }
      ],
      "name": "setBondTerms",
      "outputs": [],
      "stateMutability": "nonpayable",
      "type": "function"
    },
    {
      "inputs": [
        {
          "internalType": "uint256",
          "name": "_value",
          "type": "uint256"
        }
      ],
      "name": "setFloorPriceValue",
      "outputs": [],
      "stateMutability": "nonpayable",
      "type": "function"
    },
    {
      "inputs": [
        {
          "internalType": "address",
          "name": "_staking",
          "type": "address"
        }
      ],
      "name": "setStaking",
      "outputs": [],
      "stateMutability": "nonpayable",
      "type": "function"
    },
    {
      "inputs": [
        {
          "internalType": "address",
          "name": "_tavCalculator",
          "type": "address"
        }
      ],
      "name": "setTAVCalculator",
      "outputs": [],
      "stateMutability": "nonpayable",
      "type": "function"
    },
    {
      "inputs": [],
      "name": "staking",
      "outputs": [
        {
          "internalType": "contract IStaking",
          "name": "",
          "type": "address"
        }
      ],
      "stateMutability": "view",
      "type": "function"
    },
    {
      "inputs": [],
      "name": "tavCalculator",
      "outputs": [
        {
          "internalType": "contract ITAVCalculator",
          "name": "",
          "type": "address"
        }
      ],
      "stateMutability": "view",
      "type": "function"
    },
    {
      "inputs": [],
      "name": "terms",
      "outputs": [
        {
          "internalType": "uint256",
          "name": "controlVariable",
          "type": "uint256"
        },
        {
          "internalType": "uint256",
          "name": "minimumPrice",
          "type": "uint256"
        },
        {
          "internalType": "uint256",
          "name": "maxPayout",
          "type": "uint256"
        },
        {
          "internalType": "uint256",
          "name": "fee",
          "type": "uint256"
        },
        {
          "internalType": "uint256",
          "name": "bondingRewardFee",
          "type": "uint256"
        },
        {
          "internalType": "uint256",
          "name": "maxDebt",
          "type": "uint256"
        },
        {
          "internalType": "uint32",
          "name": "vestingTerm",
          "type": "uint32"
        },
        {
          "internalType": "uint256",
          "name": "minimumPayout",
          "type": "uint256"
        }
      ],
      "stateMutability": "view",
      "type": "function"
    },
    {
      "inputs": [],
      "name": "totalDebt",
      "outputs": [
        {
          "internalType": "uint256",
          "name": "",
          "type": "uint256"
        }
      ],
      "stateMutability": "view",
      "type": "function"
    },
    {
      "inputs": [
        {
          "internalType": "address",
          "name": "newOwner",
          "type": "address"
        }
      ],
      "name": "transferOwnership",
      "outputs": [],
      "stateMutability": "nonpayable",
      "type": "function"
    },
    {
      "inputs": [],
      "name": "treasury",
      "outputs": [
        {
          "internalType": "contract ITreasury",
          "name": "",
          "type": "address"
        }
      ],
      "stateMutability": "view",
      "type": "function"
    }
  ],
  "bytecode": "0x60e06040523480156200001157600080fd5b5060405162005bb438038062005bb48339818101604052810190620000379190620003f6565b620000576200004b620002fc60201b60201c565b6200030460201b60201c565b600073ffffffffffffffffffffffffffffffffffffffff168473ffffffffffffffffffffffffffffffffffffffff1614156200009257600080fd5b8373ffffffffffffffffffffffffffffffffffffffff1660808173ffffffffffffffffffffffffffffffffffffffff1660601b81525050600073ffffffffffffffffffffffffffffffffffffffff168373ffffffffffffffffffffffffffffffffffffffff1614156200010457600080fd5b82600160006101000a81548173ffffffffffffffffffffffffffffffffffffffff021916908373ffffffffffffffffffffffffffffffffffffffff160217905550600073ffffffffffffffffffffffffffffffffffffffff168273ffffffffffffffffffffffffffffffffffffffff1614156200018057600080fd5b8173ffffffffffffffffffffffffffffffffffffffff1660a08173ffffffffffffffffffffffffffffffffffffffff1660601b81525050600073ffffffffffffffffffffffffffffffffffffffff168173ffffffffffffffffffffffffffffffffffffffff161415620001f257600080fd5b8073ffffffffffffffffffffffffffffffffffffffff1660c08173ffffffffffffffffffffffffffffffffffffffff1660601b81525050600160009054906101000a900473ffffffffffffffffffffffffffffffffffffffff1673ffffffffffffffffffffffffffffffffffffffff1663095ea7b383722cd76fe086b93ce2f768a00b22a000000000006040518363ffffffff1660e01b81526004016200029b929190620004b0565b602060405180830381600087803b158015620002b657600080fd5b505af1158015620002cb573d6000803e3d6000fd5b505050506040513d601f19601f82011682018060405250810190620002f1919062000462565b50505050506200056f565b600033905090565b60008060009054906101000a900473ffffffffffffffffffffffffffffffffffffffff169050816000806101000a81548173ffffffffffffffffffffffffffffffffffffffff021916908373ffffffffffffffffffffffffffffffffffffffff1602179055508173ffffffffffffffffffffffffffffffffffffffff168173ffffffffffffffffffffffffffffffffffffffff167f8be0079c531659141344cd1fd0a4f28419497f9722a3daafe3b4186f6b6457e060405160405180910390a35050565b600081519050620003d9816200053b565b92915050565b600081519050620003f08162000555565b92915050565b600080600080608085870312156200040d57600080fd5b60006200041d87828801620003c8565b94505060206200043087828801620003c8565b93505060406200044387828801620003c8565b92505060606200045687828801620003c8565b91505092959194509250565b6000602082840312156200047557600080fd5b60006200048584828501620003df565b91505092915050565b6200049981620004dd565b82525050565b620004aa8162000527565b82525050565b6000604082019050620004c760008301856200048e565b620004d660208301846200049f565b9392505050565b6000620004ea82620004fd565b9050919050565b60008115159050919050565b600073ffffffffffffffffffffffffffffffffffffffff82169050919050565b6000819050919050565b600062000534826200051d565b9050919050565b6200054681620004dd565b81146200055257600080fd5b50565b6200056081620004f1565b81146200056c57600080fd5b50565b60805160601c60a05160601c60c05160601c6155cd620005e760003960008181611b3801528181611d2e015261257801526000818161121b01526124bc0152600081816115c001528181611a5201528181611b7e01528181611e21015281816120970152818161259a015261298701526155cd6000f3fe608060405234801561001057600080fd5b50600436106102115760003560e01c8063844b5c7c11610125578063d5025625116100ad578063e392a2621161007c578063e392a262146105f5578063f2fde38b14610613578063f5c2ab5b1461062f578063fb87b2721461064d578063fc7b9c181461066957610211565b8063d502562514610564578063d7ccfb0b14610589578063e0176de8146105a7578063e2bbb158146105c557610211565b806398fabd3a116100f457806398fabd3a146104a95780639b4b9010146104c7578063b4abccba146104e3578063cd1234b314610513578063cea55f571461054657610211565b8063844b5c7c14610435578063868a352b146104535780638da5cb5b1461046f5780638ff390991461048d57610211565b806361d027b3116101a85780637927ebf8116101775780637927ebf81461038d57806379cdf620146103bd5780637dec6d9a146103db5780637f2b8b0f146103f95780638081caf41461041757610211565b806361d027b31461032b57806368f33ff414610349578063715018a614610365578063759076e51461036f57610211565b80632b303fe0116101e45780632b303fe01461029c578063451ee4a1146102ba5780634cf088d9146102dd578063507930ec146102fb57610211565b8063016a42841461021657806301b88ee8146102345780631e321a0f146102645780631feed31f14610280575b600080fd5b61021e610687565b60405161022b91906143c6565b60405180910390f35b61024e60048036038101906102499190613967565b6106ad565b60405161025b91906147f4565b60405180910390f35b61027e60048036038101906102799190613a6c565b61073d565b005b61029a60048036038101906102959190613990565b610c69565b005b6102a4611074565b6040516102b191906147f4565b60405180910390f35b6102c261107a565b6040516102d496959493929190614365565b60405180910390f35b6102e56110d1565b6040516102f291906143e1565b60405180910390f35b61031560048036038101906103109190613967565b6110f7565b60405161032291906147f4565b60405180910390f35b610333611219565b6040516103409190614417565b60405180910390f35b610363600480360381019061035e9190613b36565b61123d565b005b61036d6114ff565b005b610377611513565b60405161038491906147f4565b60405180910390f35b6103a760048036038101906103a29190613aa8565b611536565b6040516103b491906147f4565b60405180910390f35b6103c5611592565b6040516103d291906143fc565b60405180910390f35b6103e36115b8565b6040516103f091906147f4565b60405180910390f35b6104016115be565b60405161040e91906143c6565b60405180910390f35b61041f6115e2565b60405161042c91906147f4565b60405180910390f35b61043d611716565b60405161044a91906147f4565b60405180910390f35b61046d600480360381019061046891906139f5565b611725565b005b61047761192b565b60405161048491906142a6565b60405180910390f35b6104a760048036038101906104a29190613967565b611954565b005b6104b1611b36565b6040516104be91906142a6565b60405180910390f35b6104e160048036038101906104dc9190613aa8565b611b5a565b005b6104fd60048036038101906104f89190613967565b611b7a565b60405161050a919061434a565b60405180910390f35b61052d60048036038101906105289190613967565b611dcc565b60405161053d949392919061495b565b60405180910390f35b61054e611e1c565b60405161055b91906147f4565b60405180910390f35b61056c611f07565b6040516105809897969594939291906148dd565b60405180910390f35b610591611f4d565b60405161059e91906147f4565b60405180910390f35b6105af612086565b6040516105bc91906147f4565b60405180910390f35b6105df60048036038101906105da9190613afa565b612150565b6040516105ec91906147f4565b60405180910390f35b6105fd6126a0565b60405161060a91906147f4565b60405180910390f35b61062d60048036038101906106289190613967565b612727565b005b6106376127ab565b60405161064491906149a0565b60405180910390f35b61066760048036038101906106629190613967565b6127c1565b005b6106716128c0565b60405161067e91906147f4565b60405180910390f35b600160009054906101000a900473ffffffffffffffffffffffffffffffffffffffff1681565b6000806106b9836110f7565b90506000601160008573ffffffffffffffffffffffffffffffffffffffff1673ffffffffffffffffffffffffffffffffffffffff168152602001908152602001600020600001549050612710821061071357809250610736565b61271061072983836128c690919063ffffffff16565b6107339190614a7d565b92505b5050919050565b6107456128fd565b6000600681111561077f577f4e487b7100000000000000000000000000000000000000000000000000000000600052602160045260246000fd5b8260068111156107b8577f4e487b7100000000000000000000000000000000000000000000000000000000600052602160045260246000fd5b141561082d5762015180811015610804576040517f08c379a00000000000000000000000000000000000000000000000000000000081526004016107fb9061469d565b60405180910390fd5b80600460060160006101000a81548163ffffffff021916908363ffffffff160217905550610c2c565b60016006811115610867577f4e487b7100000000000000000000000000000000000000000000000000000000600052602160045260246000fd5b8260068111156108a0577f4e487b7100000000000000000000000000000000000000000000000000000000600052602160045260246000fd5b14156108fa576127108111156108eb576040517f08c379a00000000000000000000000000000000000000000000000000000000081526004016108e2906144dd565b60405180910390fd5b80600460020181905550610c2b565b60026006811115610934577f4e487b7100000000000000000000000000000000000000000000000000000000600052602160045260246000fd5b82600681111561096d577f4e487b7100000000000000000000000000000000000000000000000000000000600052602160045260246000fd5b1415610a0c576127108111156109b8576040517f08c379a00000000000000000000000000000000000000000000000000000000081526004016109af9061465d565b60405180910390fd5b6107d08110156109fd576040517f08c379a00000000000000000000000000000000000000000000000000000000081526004016109f49061453d565b60405180910390fd5b80600460030181905550610c2a565b60036006811115610a46577f4e487b7100000000000000000000000000000000000000000000000000000000600052602160045260246000fd5b826006811115610a7f577f4e487b7100000000000000000000000000000000000000000000000000000000600052602160045260246000fd5b1415610a945780600460050181905550610c29565b60046006811115610ace577f4e487b7100000000000000000000000000000000000000000000000000000000600052602160045260246000fd5b826006811115610b07577f4e487b7100000000000000000000000000000000000000000000000000000000600052602160045260246000fd5b1415610b1c5780600460010181905550610c28565b60056006811115610b56577f4e487b7100000000000000000000000000000000000000000000000000000000600052602160045260246000fd5b826006811115610b8f577f4e487b7100000000000000000000000000000000000000000000000000000000600052602160045260246000fd5b1415610ba45780600460070181905550610c27565b600680811115610bdd577f4e487b7100000000000000000000000000000000000000000000000000000000600052602160045260246000fd5b826006811115610c16577f4e487b7100000000000000000000000000000000000000000000000000000000600052602160045260246000fd5b1415610c26578060048001819055505b5b5b5b5b5b5b7f4e3705d256225a38255bfb7114e7fa4b6b2939ab1f71639f57e06928858646c58282604051610c5d929190614432565b60405180910390a15050565b8173ffffffffffffffffffffffffffffffffffffffff163373ffffffffffffffffffffffffffffffffffffffff1614610cd7576040517f08c379a0000000000000000000000000000000000000000000000000000000008152600401610cce9061475d565b60405180910390fd5b6000601160008473ffffffffffffffffffffffffffffffffffffffff1673ffffffffffffffffffffffffffffffffffffffff16815260200190815260200160002060405180608001604052908160008201548152602001600182015481526020016002820160009054906101000a900463ffffffff1663ffffffff1663ffffffff1681526020016002820160049054906101000a900463ffffffff1663ffffffff1663ffffffff168152505090506000610d90846110f7565b90506127108110610e8457601160008573ffffffffffffffffffffffffffffffffffffffff1673ffffffffffffffffffffffffffffffffffffffff16815260200190815260200160002060008082016000905560018201600090556002820160006101000a81549063ffffffff02191690556002820160046101000a81549063ffffffff021916905550508373ffffffffffffffffffffffffffffffffffffffff167f51c99f515c87b0d95ba97f616edd182e8f161c4932eac17c6fefe9dab58b77b183600001516000604051610e68929190614846565b60405180910390a2610e7f8484846000015161297b565b61106e565b6000612710610ea08385600001516128c690919063ffffffff16565b610eaa9190614a7d565b90506040518060800160405280610ece838660000151612a8690919063ffffffff16565b8152602001846020015181526020014263ffffffff168152602001610f22610f0986604001514263ffffffff16612aa990919063ffffffff16565b866060015163ffffffff16612aa990919063ffffffff16565b63ffffffff16815250601160008773ffffffffffffffffffffffffffffffffffffffff1673ffffffffffffffffffffffffffffffffffffffff168152602001908152602001600020600082015181600001556020820151816001015560408201518160020160006101000a81548163ffffffff021916908363ffffffff16021790555060608201518160020160046101000a81548163ffffffff021916908363ffffffff1602179055509050508473ffffffffffffffffffffffffffffffffffffffff167f51c99f515c87b0d95ba97f616edd182e8f161c4932eac17c6fefe9dab58b77b182601160008973ffffffffffffffffffffffffffffffffffffffff1673ffffffffffffffffffffffffffffffffffffffff1681526020019081526020016000206000015460405161105992919061486f565b60405180910390a261106c85858361297b565b505b50505050565b60145481565b600c8060000160009054906101000a900460ff16908060010154908060020154908060030154908060040160009054906101000a900463ffffffff16908060040160049054906101000a900463ffffffff16905086565b600260009054906101000a900473ffffffffffffffffffffffffffffffffffffffff1681565b600080601160008473ffffffffffffffffffffffffffffffffffffffff1673ffffffffffffffffffffffffffffffffffffffff16815260200190815260200160002060405180608001604052908160008201548152602001600182015481526020016002820160009054906101000a900463ffffffff1663ffffffff1663ffffffff1681526020016002820160049054906101000a900463ffffffff1663ffffffff1663ffffffff1681525050905060006111c582604001514263ffffffff16612aa990919063ffffffff16565b63ffffffff1690506000826060015163ffffffff169050600081111561120c57806111fb612710846128c690919063ffffffff16565b6112059190614a7d565b9350611211565b600093505b505050919050565b7f000000000000000000000000000000000000000000000000000000000000000081565b6112456128fd565b60006004600001541461128d576040517f08c379a0000000000000000000000000000000000000000000000000000000008152600401611284906146fd565b60405180910390fd5b60008810156112d1576040517f08c379a00000000000000000000000000000000000000000000000000000000081526004016112c8906146dd565b60405180910390fd5b612710861115611316576040517f08c379a000000000000000000000000000000000000000000000000000000000815260040161130d906144dd565b60405180910390fd5b600a8163ffffffff161015611360576040517f08c379a00000000000000000000000000000000000000000000000000000000081526004016113579061469d565b60405180910390fd5b6127108411156113a5576040517f08c379a000000000000000000000000000000000000000000000000000000000815260040161139c9061447d565b60405180910390fd5b6127108311156113ea576040517f08c379a00000000000000000000000000000000000000000000000000000000081526004016113e1906144fd565b60405180910390fd5b6040518061010001604052808981526020018881526020018781526020018581526020018481526020018381526020018263ffffffff168152602001868152506004600082015181600001556020820151816001015560408201518160020155606082015181600301556080820151816004015560a0820151816005015560c08201518160060160006101000a81548163ffffffff021916908363ffffffff16021790555060e0820151816007015590505042601360006101000a81548163ffffffff021916908363ffffffff1602179055507f374455252cd456bbe9a81a1506246bf0ac944729f3affdfab5814e6f56af332260046040516114ed91906147d8565b60405180910390a15050505050505050565b6115076128fd565b6115116000612ad8565b565b60006115316115206126a0565b601254612a8690919063ffffffff16565b905090565b600061158b633b9aca008061157361156e86611569662386f26fc1000061155b611f4d565b6128c690919063ffffffff16565b612b9c565b612da3565b61157d9190614a7d565b6128c690919063ffffffff16565b9050919050565b600360009054906101000a900473ffffffffffffffffffffffffffffffffffffffff1681565b60155481565b7f000000000000000000000000000000000000000000000000000000000000000081565b600080600360009054906101000a900473ffffffffffffffffffffffffffffffffffffffff1673ffffffffffffffffffffffffffffffffffffffff1663ac3b992a6040518163ffffffff1660e01b815260040160206040518083038186803b15801561164d57600080fd5b505afa158015611661573d6000803e3d6000fd5b505050506040513d601f19601f820116820180604052508101906116859190613ad1565b905060006116a8611694611e1c565b6004600001546128c690919063ffffffff16565b6116d5620186a06116c7600460030154866128c690919063ffffffff16565b612de190919063ffffffff16565b6116df91906149ed565b905061170f64e8d4a510006117016004800154846128c690919063ffffffff16565b612de190919063ffffffff16565b9250505090565b6000611720611f4d565b905090565b61172d6128fd565b6103e861174a6101f46004600001546128c690919063ffffffff16565b6117549190614a7d565b841115611796576040517f08c379a000000000000000000000000000000000000000000000000000000000815260040161178d9061457d565b60405180910390fd5b6103e88310156117db576040517f08c379a00000000000000000000000000000000000000000000000000000000081526004016117d29061449d565b60405180910390fd5b6103e8821115611820576040517f08c379a00000000000000000000000000000000000000000000000000000000081526004016118179061449d565b60405180910390fd5b6040518060c0016040528086151581526020018581526020018481526020018381526020018263ffffffff1681526020014263ffffffff16815250600c60008201518160000160006101000a81548160ff02191690831515021790555060208201518160010155604082015181600201556060820151816003015560808201518160040160006101000a81548163ffffffff021916908363ffffffff16021790555060a08201518160040160046101000a81548163ffffffff021916908363ffffffff1602179055509050507fa7baed62dbecf9e27c728fe789b5834dd9c642ff4df89d99851a735cc4a573da600c60405161191c91906147bd565b60405180910390a15050505050565b60008060009054906101000a900473ffffffffffffffffffffffffffffffffffffffff16905090565b61195c6128fd565b600073ffffffffffffffffffffffffffffffffffffffff168173ffffffffffffffffffffffffffffffffffffffff1614156119cc576040517f08c379a00000000000000000000000000000000000000000000000000000000081526004016119c39061461d565b60405180910390fd5b80600260006101000a81548173ffffffffffffffffffffffffffffffffffffffff021916908373ffffffffffffffffffffffffffffffffffffffff1602179055508073ffffffffffffffffffffffffffffffffffffffff167f9d6a6595abf9295f9870c0d2d5760179d6f9ac798af8db39a9e3c9f2fbd2daa060405160405180910390a27f000000000000000000000000000000000000000000000000000000000000000073ffffffffffffffffffffffffffffffffffffffff1663095ea7b3600260009054906101000a900473ffffffffffffffffffffffffffffffffffffffff16722cd76fe086b93ce2f768a00b22a000000000006040518363ffffffff1660e01b8152600401611ae09291906142f8565b602060405180830381600087803b158015611afa57600080fd5b505af1158015611b0e573d6000803e3d6000fd5b505050506040513d601f19601f82011682018060405250810190611b3291906139cc565b5050565b7f000000000000000000000000000000000000000000000000000000000000000081565b611b626128fd565b6000811415611b7057600080fd5b8060158190555050565b60007f000000000000000000000000000000000000000000000000000000000000000073ffffffffffffffffffffffffffffffffffffffff168273ffffffffffffffffffffffffffffffffffffffff161415611c0b576040517f08c379a0000000000000000000000000000000000000000000000000000000008152600401611c029061471d565b60405180910390fd5b600160009054906101000a900473ffffffffffffffffffffffffffffffffffffffff1673ffffffffffffffffffffffffffffffffffffffff168273ffffffffffffffffffffffffffffffffffffffff161415611c9c576040517f08c379a0000000000000000000000000000000000000000000000000000000008152600401611c939061459d565b60405180910390fd5b60008273ffffffffffffffffffffffffffffffffffffffff166370a08231306040518263ffffffff1660e01b8152600401611cd791906142a6565b60206040518083038186803b158015611cef57600080fd5b505afa158015611d03573d6000803e3d6000fd5b505050506040513d601f19601f82011682018060405250810190611d279190613ad1565b9050611d747f0000000000000000000000000000000000000000000000000000000000000000828573ffffffffffffffffffffffffffffffffffffffff16612e2b9092919063ffffffff16565b8273ffffffffffffffffffffffffffffffffffffffff167f11f0a001971cc33b9a8651a3368b34900c22a665504b5cabc3e0e9fdf59d984682604051611dba91906147f4565b60405180910390a26001915050919050565b60116020528060005260406000206000915090508060000154908060010154908060020160009054906101000a900463ffffffff16908060020160049054906101000a900463ffffffff16905084565b6000807f000000000000000000000000000000000000000000000000000000000000000073ffffffffffffffffffffffffffffffffffffffff166318160ddd6040518163ffffffff1660e01b815260040160206040518083038186803b158015611e8557600080fd5b505afa158015611e99573d6000803e3d6000fd5b505050506040513d601f19601f82011682018060405250810190611ebd9190613ad1565b9050670de0b6b3a7640000611ef7611ef2611eec633b9aca00611ede611513565b6128c690919063ffffffff16565b84612b9c565b612da3565b611f019190614a7d565b91505090565b60048060000154908060010154908060020154908060030154908060040154908060050154908060060160009054906101000a900463ffffffff16908060070154905088565b600080600360009054906101000a900473ffffffffffffffffffffffffffffffffffffffff1673ffffffffffffffffffffffffffffffffffffffff1663ac3b992a6040518163ffffffff1660e01b815260040160206040518083038186803b158015611fb857600080fd5b505afa158015611fcc573d6000803e3d6000fd5b505050506040513d601f19601f82011682018060405250810190611ff09190613ad1565b90506000612013611fff611e1c565b6004600001546128c690919063ffffffff16565b612040620186a0612032600460030154866128c690919063ffffffff16565b612de190919063ffffffff16565b61204a91906149ed565b905062989680612075601554841161206457601554612066565b835b83612eb190919063ffffffff16565b61207f9190614a7d565b9250505090565b6000620186a06121416004600201547f000000000000000000000000000000000000000000000000000000000000000073ffffffffffffffffffffffffffffffffffffffff166318160ddd6040518163ffffffff1660e01b815260040160206040518083038186803b1580156120fb57600080fd5b505afa15801561210f573d6000803e3d6000fd5b505050506040513d601f19601f820116820180604052508101906121339190613ad1565b6128c690919063ffffffff16565b61214b9190614a7d565b905090565b600061215a612ed4565b600061216584612f19565b90506000612171611716565b905061218f61217e6115e2565b601454612eb190919063ffffffff16565b601481905550808410156121d8576040517f08c379a00000000000000000000000000000000000000000000000000000000081526004016121cf9061467d565b60405180910390fd5b60006121e383611536565b905060046005015461220084601254612eb190919063ffffffff16565b1115612241576040517f08c379a0000000000000000000000000000000000000000000000000000000008152600401612238906145bd565b60405180910390fd5b612249612ffa565b81101561228b576040517f08c379a0000000000000000000000000000000000000000000000000000000008152600401612282906145fd565b60405180910390fd5b612293612086565b8111156122d5576040517f08c379a00000000000000000000000000000000000000000000000000000000081526004016122cc9061473d565b60405180910390fd5b6000620186a06122f3600460030154846128c690919063ffffffff16565b6122fd9190614a7d565b905060006123148284612eb190919063ffffffff16565b905061232b88601254612eb190919063ffffffff16565b601281905550604051806080016040528061239185601160003373ffffffffffffffffffffffffffffffffffffffff1673ffffffffffffffffffffffffffffffffffffffff16815260200190815260200160002060000154612eb190919063ffffffff16565b81526020018581526020014263ffffffff168152602001600460060160009054906101000a900463ffffffff1663ffffffff16815250601160003373ffffffffffffffffffffffffffffffffffffffff1673ffffffffffffffffffffffffffffffffffffffff168152602001908152602001600020600082015181600001556020820151816001015560408201518160020160006101000a81548163ffffffff021916908363ffffffff16021790555060608201518160020160046101000a81548163ffffffff021916908363ffffffff1602179055509050506124ba33308a600160009054906101000a900473ffffffffffffffffffffffffffffffffffffffff1673ffffffffffffffffffffffffffffffffffffffff16613007909392919063ffffffff16565b7f000000000000000000000000000000000000000000000000000000000000000073ffffffffffffffffffffffffffffffffffffffff1663bc157ac189600160009054906101000a900473ffffffffffffffffffffffffffffffffffffffff16846040518463ffffffff1660e01b81526004016125399392919061480f565b600060405180830381600087803b15801561255357600080fd5b505af1158015612567573d6000803e3d6000fd5b50505050600082146125df576125de7f0000000000000000000000000000000000000000000000000000000000000000837f000000000000000000000000000000000000000000000000000000000000000073ffffffffffffffffffffffffffffffffffffffff16612e2b9092919063ffffffff16565b5b8361260e600460060160009054906101000a900463ffffffff1663ffffffff1642612eb190919063ffffffff16565b847f1fec6dc81f140574bf43f6b1e420ae1dd47928b9d57db8cbd7b8611063b85ae58b60405161263e91906147f4565b60405180910390a461264e611e1c565b612656611f4d565b61265e611716565b7f375b221f40939bfd8f49723a17cf7bc6d576ebf72efe2cc3e991826f5b3f390a60405160405180910390a4612692613090565b829550505050505092915050565b6000806126ce601360009054906101000a900463ffffffff164263ffffffff16612aa990919063ffffffff16565b9050600460060160009054906101000a900463ffffffff1663ffffffff166127078263ffffffff166012546128c690919063ffffffff16565b6127119190614a7d565b91506012548211156127235760125491505b5090565b61272f6128fd565b600073ffffffffffffffffffffffffffffffffffffffff168173ffffffffffffffffffffffffffffffffffffffff16141561279f576040517f08c379a0000000000000000000000000000000000000000000000000000000008152600401612796906144bd565b60405180910390fd5b6127a881612ad8565b50565b601360009054906101000a900463ffffffff1681565b6127c96128fd565b600073ffffffffffffffffffffffffffffffffffffffff168173ffffffffffffffffffffffffffffffffffffffff161415612839576040517f08c379a00000000000000000000000000000000000000000000000000000000081526004016128309061461d565b60405180910390fd5b80600360006101000a81548173ffffffffffffffffffffffffffffffffffffffff021916908373ffffffffffffffffffffffffffffffffffffffff1602179055508073ffffffffffffffffffffffffffffffffffffffff167f9d6a6595abf9295f9870c0d2d5760179d6f9ac798af8db39a9e3c9f2fbd2daa060405160405180910390a250565b60125481565b6000808314806128ee5750818383856128df9190614c1f565b9250826128ec9190614a7d565b145b6128f757600080fd5b92915050565b61290561325b565b73ffffffffffffffffffffffffffffffffffffffff1661292361192b565b73ffffffffffffffffffffffffffffffffffffffff1614612979576040517f08c379a00000000000000000000000000000000000000000000000000000000081526004016129709061463d565b60405180910390fd5b565b816129d0576129cb83827f000000000000000000000000000000000000000000000000000000000000000073ffffffffffffffffffffffffffffffffffffffff16612e2b9092919063ffffffff16565b612a81565b600260009054906101000a900473ffffffffffffffffffffffffffffffffffffffff1673ffffffffffffffffffffffffffffffffffffffff1663adc9772e84836040518363ffffffff1660e01b8152600401612a2d929190614321565b602060405180830381600087803b158015612a4757600080fd5b505af1158015612a5b573d6000803e3d6000fd5b505050506040513d601f19601f82011682018060405250810190612a7f9190613ad1565b505b505050565b6000828284612a959190614c79565b9150811115612aa357600080fd5b92915050565b60008263ffffffff168284612abe9190614cad565b91508163ffffffff161115612ad257600080fd5b92915050565b60008060009054906101000a900473ffffffffffffffffffffffffffffffffffffffff169050816000806101000a81548173ffffffffffffffffffffffffffffffffffffffff021916908373ffffffffffffffffffffffffffffffffffffffff1602179055508173ffffffffffffffffffffffffffffffffffffffff168173ffffffffffffffffffffffffffffffffffffffff167f8be0079c531659141344cd1fd0a4f28419497f9722a3daafe3b4186f6b6457e060405160405180910390a35050565b612ba461388e565b60008211612be7576040517f08c379a0000000000000000000000000000000000000000000000000000000008152600401612bde9061455d565b60405180910390fd5b6000831415612c2557604051806020016040528060007bffffffffffffffffffffffffffffffffffffffffffffffffffffffff168152509050612d9d565b71ffffffffffffffffffffffffffffffffffff80168311612ced57600082607060ff1685901b612c559190614a7d565b90507bffffffffffffffffffffffffffffffffffffffffffffffffffffffff8016811115612cb8576040517f08c379a0000000000000000000000000000000000000000000000000000000008152600401612caf906146bd565b60405180910390fd5b6040518060200160405280827bffffffffffffffffffffffffffffffffffffffffffffffffffffffff16815250915050612d9d565b6000612d09846e01000000000000000000000000000085613263565b90507bffffffffffffffffffffffffffffffffffffffffffffffffffffffff8016811115612d6c576040517f08c379a0000000000000000000000000000000000000000000000000000000008152600401612d63906146bd565b60405180910390fd5b6040518060200160405280827bffffffffffffffffffffffffffffffffffffffffffffffffffffffff168152509150505b92915050565b60006612725dd1d243ab82600001517bffffffffffffffffffffffffffffffffffffffffffffffffffffffff16612dda9190614a7d565b9050919050565b6000612e2383836040518060400160405280601a81526020017f536166654d6174683a206469766973696f6e206279207a65726f000000000000815250613331565b905092915050565b612eac8363a9059cbb60e01b8484604051602401612e4a929190614321565b604051602081830303815290604052907bffffffffffffffffffffffffffffffffffffffffffffffffffffffff19166020820180517bffffffffffffffffffffffffffffffffffffffffffffffffffffffff8381831617835250505050613394565b505050565b6000828284612ec091906149ed565b9150811015612ece57600080fd5b92915050565b612ef0612edf6126a0565b601254612a8690919063ffffffff16565b60128190555042601360006101000a81548163ffffffff021916908363ffffffff160217905550565b6000612ff3600160009054906101000a900473ffffffffffffffffffffffffffffffffffffffff1673ffffffffffffffffffffffffffffffffffffffff1663313ce5676040518163ffffffff1660e01b815260040160206040518083038186803b158015612f8657600080fd5b505afa158015612f9a573d6000803e3d6000fd5b505050506040513d601f19601f82011682018060405250810190612fbe9190613be8565b600a612fca9190614b01565b612fe5670de0b6b3a7640000856128c690919063ffffffff16565b612de190919063ffffffff16565b9050919050565b6000600460070154905090565b61308a846323b872dd60e01b858585604051602401613028939291906142c1565b604051602081830303815290604052907bffffffffffffffffffffffffffffffffffffffffffffffffffffffff19166020820180517bffffffffffffffffffffffffffffffffffffffffffffffffffffffff8381831617835250505050613394565b50505050565b60006130d5600c60040160009054906101000a900463ffffffff16600c60040160049054906101000a900463ffffffff1663ffffffff1661345b90919063ffffffff16565b63ffffffff1690506000600c60010154141580156130f35750804210155b1561325857600060046000015490506000819050600c60000160009054906101000a900460ff161561317b57613137600c6001015482612eb190919063ffffffff16565b9050600c60020154811061317657600c60000160009054906101000a900460ff1615600c60000160006101000a81548160ff0219169083151502179055505b6131d3565b613193600c6001015482612a8690919063ffffffff16565b9050600c6003015481116131d257600c60000160009054906101000a900460ff1615600c60000160006101000a81548160ff0219169083151502179055505b5b8060046000018190555042600c60040160046101000a81548163ffffffff021916908363ffffffff1602179055507fb923e581a0f83128e9e1d8297aa52b18d6744310476e0b54509c054cd7a93b2a8282600c60010154600c60000160009054906101000a900460ff1660405161324d9493929190614898565b60405180910390a150505b50565b600033905090565b6000806000613272868661348a565b91509150600084806132ad577f4e487b7100000000000000000000000000000000000000000000000000000000600052601260045260246000fd5b8688099050828111156132ca576001826132c79190614c79565b91505b80836132d69190614c79565b925084821061331a576040517f08c379a0000000000000000000000000000000000000000000000000000000008152600401613311906145dd565b60405180910390fd5b613325838387613525565b93505050509392505050565b60008083118290613378576040517f08c379a000000000000000000000000000000000000000000000000000000000815260040161336f919061445b565b60405180910390fd5b50600083856133879190614a7d565b9050809150509392505050565b60006133f6826040518060400160405280602081526020017f5361666545524332303a206c6f772d6c6576656c2063616c6c206661696c65648152508573ffffffffffffffffffffffffffffffffffffffff166136d89092919063ffffffff16565b9050600081511115613456578080602001905181019061341691906139cc565b613455576040517f08c379a000000000000000000000000000000000000000000000000000000000815260040161344c9061479d565b60405180910390fd5b5b505050565b60008263ffffffff1682846134709190614a43565b91508163ffffffff16101561348457600080fd5b92915050565b60008060007fffffffffffffffffffffffffffffffffffffffffffffffffffffffffffffffff806134e4577f4e487b7100000000000000000000000000000000000000000000000000000000600052601260045260246000fd5b848609905083856134f59190614c1f565b925082816135039190614c79565b91508281101561351d5760018261351a9190614c79565b91505b509250929050565b6000806001831961353691906149ed565b8316905080836135469190614a7d565b925080856135549190614a7d565b94506001816001831961356791906149ed565b6135719190614a7d565b61357b91906149ed565b846135869190614c1f565b8561359191906149ed565b945060006001905080846135a59190614c1f565b60026135b19190614c79565b816135bc9190614c1f565b905080846135ca9190614c1f565b60026135d69190614c79565b816135e19190614c1f565b905080846135ef9190614c1f565b60026135fb9190614c79565b816136069190614c1f565b905080846136149190614c1f565b60026136209190614c79565b8161362b9190614c1f565b905080846136399190614c1f565b60026136459190614c79565b816136509190614c1f565b9050808461365e9190614c1f565b600261366a9190614c79565b816136759190614c1f565b905080846136839190614c1f565b600261368f9190614c79565b8161369a9190614c1f565b905080846136a89190614c1f565b60026136b49190614c79565b816136bf9190614c1f565b905080866136cd9190614c1f565b925050509392505050565b60606136e784846000856136f0565b90509392505050565b606082471015613735576040517f08c379a000000000000000000000000000000000000000000000000000000000815260040161372c9061451d565b60405180910390fd5b61373e85613804565b61377d576040517f08c379a00000000000000000000000000000000000000000000000000000000081526004016137749061477d565b60405180910390fd5b6000808673ffffffffffffffffffffffffffffffffffffffff1685876040516137a6919061428f565b60006040518083038185875af1925050503d80600081146137e3576040519150601f19603f3d011682016040523d82523d6000602084013e6137e8565b606091505b50915091506137f8828286613827565b92505050949350505050565b6000808273ffffffffffffffffffffffffffffffffffffffff163b119050919050565b6060831561383757829050613887565b60008351111561384a5782518084602001fd5b816040517f08c379a000000000000000000000000000000000000000000000000000000000815260040161387e919061445b565b60405180910390fd5b9392505050565b604051806020016040528060007bffffffffffffffffffffffffffffffffffffffffffffffffffffffff1681525090565b6000813590506138ce81615514565b92915050565b6000813590506138e38161552b565b92915050565b6000815190506138f88161552b565b92915050565b60008135905061390d81615542565b92915050565b60008135905061392281615552565b92915050565b60008151905061393781615552565b92915050565b60008135905061394c81615569565b92915050565b60008151905061396181615580565b92915050565b60006020828403121561397957600080fd5b6000613987848285016138bf565b91505092915050565b600080604083850312156139a357600080fd5b60006139b1858286016138bf565b92505060206139c2858286016138d4565b9150509250929050565b6000602082840312156139de57600080fd5b60006139ec848285016138e9565b91505092915050565b600080600080600060a08688031215613a0d57600080fd5b6000613a1b888289016138d4565b9550506020613a2c88828901613913565b9450506040613a3d88828901613913565b9350506060613a4e88828901613913565b9250506080613a5f8882890161393d565b9150509295509295909350565b60008060408385031215613a7f57600080fd5b6000613a8d858286016138fe565b9250506020613a9e85828601613913565b9150509250929050565b600060208284031215613aba57600080fd5b6000613ac884828501613913565b91505092915050565b600060208284031215613ae357600080fd5b6000613af184828501613928565b91505092915050565b60008060408385031215613b0d57600080fd5b6000613b1b85828601613913565b9250506020613b2c85828601613913565b9150509250929050565b600080600080600080600080610100898b031215613b5357600080fd5b6000613b618b828c01613913565b9850506020613b728b828c01613913565b9750506040613b838b828c01613913565b9650506060613b948b828c01613913565b9550506080613ba58b828c01613913565b94505060a0613bb68b828c01613913565b93505060c0613bc78b828c01613913565b92505060e0613bd88b828c0161393d565b9150509295985092959890939650565b600060208284031215613bfa57600080fd5b6000613c0884828501613952565b91505092915050565b613c1a81614d08565b82525050565b613c2981614d1a565b82525050565b613c3881614d1a565b82525050565b6000613c49826149bb565b613c5381856149d1565b9350613c63818560208601614e46565b80840191505092915050565b613c7881614d80565b82525050565b613c8781614da4565b82525050565b613c9681614dc8565b82525050565b613ca581614dec565b82525050565b613cb481614e10565b82525050565b613cc381614e22565b82525050565b613cd281614e34565b82525050565b6000613ce3826149c6565b613ced81856149dc565b9350613cfd818560208601614e46565b613d0681614f6e565b840191505092915050565b6000613d1e601c836149dc565b9150613d2982614fa6565b602082019050919050565b6000613d41601f836149dc565b9150613d4c82614fcf565b602082019050919050565b6000613d646026836149dc565b9150613d6f82614ff8565b604082019050919050565b6000613d876021836149dc565b9150613d9282615047565b604082019050919050565b6000613daa6026836149dc565b9150613db582615096565b604082019050919050565b6000613dcd6026836149dc565b9150613dd8826150e5565b604082019050919050565b6000613df0601a836149dc565b9150613dfb82615134565b602082019050919050565b6000613e136026836149dc565b9150613e1e8261515d565b604082019050919050565b6000613e366013836149dc565b9150613e41826151ac565b602082019050919050565b6000613e596003836149dc565b9150613e64826151d5565b602082019050919050565b6000613e7c6014836149dc565b9150613e87826151fe565b602082019050919050565b6000613e9f601a836149dc565b9150613eaa82615227565b602082019050919050565b6000613ec2600e836149dc565b9150613ecd82615250565b602082019050919050565b6000613ee56002836149dc565b9150613ef082615279565b602082019050919050565b6000613f086020836149dc565b9150613f13826152a2565b602082019050919050565b6000613f2b6019836149dc565b9150613f36826152cb565b602082019050919050565b6000613f4e6023836149dc565b9150613f59826152f4565b604082019050919050565b6000613f716024836149dc565b9150613f7c82615343565b604082019050919050565b6000613f94601e836149dc565b9150613f9f82615392565b602082019050919050565b6000613fb76013836149dc565b9150613fc2826153bb565b602082019050919050565b6000613fda6020836149dc565b9150613fe5826153e4565b602082019050919050565b6000613ffd6003836149dc565b91506140088261540d565b602082019050919050565b6000614020600e836149dc565b915061402b82615436565b602082019050919050565b60006140436002836149dc565b915061404e8261545f565b602082019050919050565b6000614066601d836149dc565b915061407182615488565b602082019050919050565b6000614089602a836149dc565b9150614094826154b1565b604082019050919050565b60c0820160008083015490506140b481614e79565b6140c16000860182613c20565b50600183015490506140d281614e93565b6140df6020860182614253565b50600283015490506140f081614e93565b6140fd6040860182614253565b506003830154905061410e81614e93565b61411b6060860182614253565b506004830154905061412c81614ead565b6141396080860182614271565b5061414381614ec7565b61415060a0860182614271565b5050505050565b6101008201600080830154905061416d81614e93565b61417a6000860182614253565b506001830154905061418b81614e93565b6141986020860182614253565b50600283015490506141a981614e93565b6141b66040860182614253565b50600383015490506141c781614e93565b6141d46060860182614253565b50600483015490506141e581614e93565b6141f26080860182614253565b506005830154905061420381614e93565b61421060a0860182614253565b506006830154905061422181614ead565b61422e60c0860182614271565b506007830154905061423f81614e93565b61424c60e0860182614253565b5050505050565b61425c81614d59565b82525050565b61426b81614d59565b82525050565b61427a81614d63565b82525050565b61428981614d63565b82525050565b600061429b8284613c3e565b915081905092915050565b60006020820190506142bb6000830184613c11565b92915050565b60006060820190506142d66000830186613c11565b6142e36020830185613c11565b6142f06040830184614262565b949350505050565b600060408201905061430d6000830185613c11565b61431a6020830184613cc9565b9392505050565b60006040820190506143366000830185613c11565b6143436020830184614262565b9392505050565b600060208201905061435f6000830184613c2f565b92915050565b600060c08201905061437a6000830189613c2f565b6143876020830188614262565b6143946040830187614262565b6143a16060830186614262565b6143ae6080830185614280565b6143bb60a0830184614280565b979650505050505050565b60006020820190506143db6000830184613c6f565b92915050565b60006020820190506143f66000830184613c7e565b92915050565b60006020820190506144116000830184613c8d565b92915050565b600060208201905061442c6000830184613c9c565b92915050565b60006040820190506144476000830185613cab565b6144546020830184614262565b9392505050565b600060208201905081810360008301526144758184613cd8565b905092915050565b6000602082019050818103600083015261449681613d11565b9050919050565b600060208201905081810360008301526144b681613d34565b9050919050565b600060208201905081810360008301526144d681613d57565b9050919050565b600060208201905081810360008301526144f681613d7a565b9050919050565b6000602082019050818103600083015261451681613d9d565b9050919050565b6000602082019050818103600083015261453681613dc0565b9050919050565b6000602082019050818103600083015261455681613de3565b9050919050565b6000602082019050818103600083015261457681613e06565b9050919050565b6000602082019050818103600083015261459681613e29565b9050919050565b600060208201905081810360008301526145b681613e4c565b9050919050565b600060208201905081810360008301526145d681613e6f565b9050919050565b600060208201905081810360008301526145f681613e92565b9050919050565b6000602082019050818103600083015261461681613eb5565b9050919050565b6000602082019050818103600083015261463681613ed8565b9050919050565b6000602082019050818103600083015261465681613efb565b9050919050565b6000602082019050818103600083015261467681613f1e565b9050919050565b6000602082019050818103600083015261469681613f41565b9050919050565b600060208201905081810360008301526146b681613f64565b9050919050565b600060208201905081810360008301526146d681613f87565b9050919050565b600060208201905081810360008301526146f681613faa565b9050919050565b6000602082019050818103600083015261471681613fcd565b9050919050565b6000602082019050818103600083015261473681613ff0565b9050919050565b6000602082019050818103600083015261475681614013565b9050919050565b6000602082019050818103600083015261477681614036565b9050919050565b6000602082019050818103600083015261479681614059565b9050919050565b600060208201905081810360008301526147b68161407c565b9050919050565b600060c0820190506147d2600083018461409f565b92915050565b6000610100820190506147ee6000830184614157565b92915050565b60006020820190506148096000830184614262565b92915050565b60006060820190506148246000830186614262565b6148316020830185613c11565b61483e6040830184614262565b949350505050565b600060408201905061485b6000830185614262565b6148686020830184613cba565b9392505050565b60006040820190506148846000830185614262565b6148916020830184614262565b9392505050565b60006080820190506148ad6000830187614262565b6148ba6020830186614262565b6148c76040830185614262565b6148d46060830184613c2f565b95945050505050565b6000610100820190506148f3600083018b614262565b614900602083018a614262565b61490d6040830189614262565b61491a6060830188614262565b6149276080830187614262565b61493460a0830186614262565b61494160c0830185614280565b61494e60e0830184614262565b9998505050505050505050565b60006080820190506149706000830187614262565b61497d6020830186614262565b61498a6040830185614280565b6149976060830184614280565b95945050505050565b60006020820190506149b56000830184614280565b92915050565b600081519050919050565b600081519050919050565b600081905092915050565b600082825260208201905092915050565b60006149f882614d59565b9150614a0383614d59565b9250827fffffffffffffffffffffffffffffffffffffffffffffffffffffffffffffffff03821115614a3857614a37614ee1565b5b828201905092915050565b6000614a4e82614d63565b9150614a5983614d63565b92508263ffffffff03821115614a7257614a71614ee1565b5b828201905092915050565b6000614a8882614d59565b9150614a9383614d59565b925082614aa357614aa2614f10565b5b828204905092915050565b6000808291508390505b6001851115614af857808604811115614ad457614ad3614ee1565b5b6001851615614ae35780820291505b8081029050614af185614f8c565b9450614ab8565b94509492505050565b6000614b0c82614d59565b9150614b1783614d73565b9250614b447fffffffffffffffffffffffffffffffffffffffffffffffffffffffffffffffff8484614b4c565b905092915050565b600082614b5c5760019050614c18565b81614b6a5760009050614c18565b8160018114614b805760028114614b8a57614bb9565b6001915050614c18565b60ff841115614b9c57614b9b614ee1565b5b8360020a915084821115614bb357614bb2614ee1565b5b50614c18565b5060208310610133831016604e8410600b8410161715614bee5782820a905083811115614be957614be8614ee1565b5b614c18565b614bfb8484846001614aae565b92509050818404811115614c1257614c11614ee1565b5b81810290505b9392505050565b6000614c2a82614d59565b9150614c3583614d59565b9250817fffffffffffffffffffffffffffffffffffffffffffffffffffffffffffffffff0483118215151615614c6e57614c6d614ee1565b5b828202905092915050565b6000614c8482614d59565b9150614c8f83614d59565b925082821015614ca257614ca1614ee1565b5b828203905092915050565b6000614cb882614d63565b9150614cc383614d63565b925082821015614cd657614cd5614ee1565b5b828203905092915050565b600060ff82169050919050565b6000819050919050565b600063ffffffff82169050919050565b6000614d1382614d39565b9050919050565b60008115159050919050565b6000819050614d3482615500565b919050565b600073ffffffffffffffffffffffffffffffffffffffff82169050919050565b6000819050919050565b600063ffffffff82169050919050565b600060ff82169050919050565b6000614d8b82614d92565b9050919050565b6000614d9d82614d39565b9050919050565b6000614daf82614db6565b9050919050565b6000614dc182614d39565b9050919050565b6000614dd382614dda565b9050919050565b6000614de582614d39565b9050919050565b6000614df782614dfe565b9050919050565b6000614e0982614d39565b9050919050565b6000614e1b82614d26565b9050919050565b6000614e2d82614d59565b9050919050565b6000614e3f82614d59565b9050919050565b60005b83811015614e64578082015181840152602081019050614e49565b83811115614e73576000848401525b50505050565b6000614e8c614e8783614f7f565b614ce1565b9050919050565b6000614ea6614ea183614f7f565b614cee565b9050919050565b6000614ec0614ebb83614f7f565b614cf8565b9050919050565b6000614eda614ed583614f99565b614cf8565b9050919050565b7f4e487b7100000000000000000000000000000000000000000000000000000000600052601160045260246000fd5b7f4e487b7100000000000000000000000000000000000000000000000000000000600052601260045260246000fd5b7f4e487b7100000000000000000000000000000000000000000000000000000000600052602160045260246000fd5b6000601f19601f8301169050919050565b60008160001c9050919050565b60008160011c9050919050565b60008160201c9050919050565b7f44414f206665652063616e6e6f7420657863656564207061796f757400000000600082015250565b7f4e6578742041646a7573746d656e7420636f756c64206265206c6f636b656400600082015250565b7f4f776e61626c653a206e6577206f776e657220697320746865207a65726f206160008201527f6464726573730000000000000000000000000000000000000000000000000000602082015250565b7f5061796f75742063616e6e6f742062652061626f76652031302070657263656e60008201527f7400000000000000000000000000000000000000000000000000000000000000602082015250565b7f426f6e64696e6720726577617264206665652063616e6e6f742062652061626f60008201527f7665203130250000000000000000000000000000000000000000000000000000602082015250565b7f416464726573733a20696e73756666696369656e742062616c616e636520666f60008201527f722063616c6c0000000000000000000000000000000000000000000000000000602082015250565b7f44414f206665652063616e6e6f7420676f2062656c6f77203225000000000000600082015250565b7f4669786564506f696e743a3a6672616374696f6e3a206469766973696f6e206260008201527f79207a65726f0000000000000000000000000000000000000000000000000000602082015250565b7f496e6372656d656e7420746f6f206c6172676500000000000000000000000000600082015250565b7f4e41500000000000000000000000000000000000000000000000000000000000600082015250565b7f4d61782063617061636974792072656163686564000000000000000000000000600082015250565b7f46756c6c4d6174683a3a6d756c4469763a206f766572666c6f77000000000000600082015250565b7f426f6e6420746f6f20736d616c6c000000000000000000000000000000000000600082015250565b7f4941000000000000000000000000000000000000000000000000000000000000600082015250565b7f4f776e61626c653a2063616c6c6572206973206e6f7420746865206f776e6572600082015250565b7f44414f206665652063616e6e6f74206578636565642031302500000000000000600082015250565b7f536c697070616765206c696d69743a206d6f7265207468616e206d617820707260008201527f6963650000000000000000000000000000000000000000000000000000000000602082015250565b7f56657374696e67206d757374206265206c6f6e676572207468616e203336206860008201527f6f75727300000000000000000000000000000000000000000000000000000000602082015250565b7f4669786564506f696e743a3a6672616374696f6e3a206f766572666c6f770000600082015250565b7f43616e206c6f636b2061646a7573746d656e7400000000000000000000000000600082015250565b7f426f6e6473206d75737420626520696e697469616c697a65642066726f6d2030600082015250565b7f4e41540000000000000000000000000000000000000000000000000000000000600082015250565b7f426f6e6420746f6f206c61726765000000000000000000000000000000000000600082015250565b7f4e41000000000000000000000000000000000000000000000000000000000000600082015250565b7f416464726573733a2063616c6c20746f206e6f6e2d636f6e7472616374000000600082015250565b7f5361666545524332303a204552433230206f7065726174696f6e20646964206e60008201527f6f74207375636365656400000000000000000000000000000000000000000000602082015250565b6007811061551157615510614f3f565b5b50565b61551d81614d08565b811461552857600080fd5b50565b61553481614d1a565b811461553f57600080fd5b50565b6007811061554f57600080fd5b50565b61555b81614d59565b811461556657600080fd5b50565b61557281614d63565b811461557d57600080fd5b50565b61558981614d73565b811461559457600080fd5b5056fea2646970667358221220d1b605f6fb0d86d8f8a196194aca5c9e1e21561d0e2f66280295c333b4a4ff2a64736f6c63430008040033",
  "linkReferences": {},
  "deployedLinkReferences": {}
}