{
  "_format": "hh-sol-artifact-1",
  "contractName": "RewardDistributor",
  "sourceName": "contracts/coreContracts/RewardDistributor.sol",
  "abi": [
    {
      "inputs": [
        {
          "internalType": "address",
          "name": "stakingContract_",
          "type": "address"
        },
        {
          "internalType": "address",
          "name": "stakedBdnAddress_",
          "type": "address"
        }
      ],
      "stateMutability": "nonpayable",
      "type": "constructor"
    },
    {
      "anonymous": false,
      "inputs": [
        {
          "indexed": true,
          "internalType": "address",
          "name": "previousOwner",
          "type": "address"
        },
        {
          "indexed": true,
          "internalType": "address",
          "name": "newOwner",
          "type": "address"
        }
      ],
      "name": "OwnershipTransferred",
      "type": "event"
    },
    {
      "anonymous": false,
      "inputs": [
        {
          "indexed": true,
          "internalType": "address",
          "name": "account",
          "type": "address"
        },
        {
          "indexed": false,
          "internalType": "uint256",
          "name": "amount",
          "type": "uint256"
        },
        {
          "indexed": false,
          "internalType": "uint256",
          "name": "rewardCycle",
          "type": "uint256"
        }
      ],
      "name": "RedeemedRewards",
      "type": "event"
    },
    {
      "anonymous": false,
      "inputs": [
        {
          "indexed": false,
          "internalType": "uint256",
          "name": "allocatedRewards",
          "type": "uint256"
        },
        {
          "indexed": false,
          "internalType": "uint256",
          "name": "totalStakedBdn",
          "type": "uint256"
        },
        {
          "indexed": false,
          "internalType": "uint8",
          "name": "rewardCycle",
          "type": "uint8"
        }
      ],
      "name": "RewardCycleCompleted",
      "type": "event"
    },
    {
      "anonymous": false,
      "inputs": [
        {
          "indexed": true,
          "internalType": "address",
          "name": "account",
          "type": "address"
        },
        {
          "indexed": false,
          "internalType": "uint256",
          "name": "amount",
          "type": "uint256"
        },
        {
          "indexed": false,
          "internalType": "uint256",
          "name": "averageTime",
          "type": "uint256"
        }
      ],
      "name": "StakeBalanceUpdated",
      "type": "event"
    },
    {
      "anonymous": false,
      "inputs": [
        {
          "indexed": true,
          "internalType": "address",
          "name": "account",
          "type": "address"
        },
        {
          "indexed": false,
          "internalType": "uint256",
          "name": "amount",
          "type": "uint256"
        },
        {
          "indexed": false,
          "internalType": "uint256",
          "name": "averageTime",
          "type": "uint256"
        }
      ],
      "name": "UnstakeBalanceUpdated",
      "type": "event"
    },
    {
      "inputs": [
        {
          "internalType": "uint8",
          "name": "",
          "type": "uint8"
        }
      ],
      "name": "_rewardCycleMapping",
      "outputs": [
        {
          "internalType": "uint32",
          "name": "startTimestamp",
          "type": "uint32"
        },
        {
          "internalType": "uint32",
          "name": "endTimestamp",
          "type": "uint32"
        },
        {
          "internalType": "uint256",
          "name": "totalStakedBdnAmount",
          "type": "uint256"
        },
        {
          "internalType": "uint256",
          "name": "totalAllocatedRewards",
          "type": "uint256"
        }
      ],
      "stateMutability": "view",
      "type": "function"
    },
    {
      "inputs": [
        {
          "internalType": "address",
          "name": "",
          "type": "address"
        }
      ],
      "name": "_userActivityMapping",
      "outputs": [
        {
          "internalType": "uint8",
          "name": "",
          "type": "uint8"
        }
      ],
      "stateMutability": "view",
      "type": "function"
    },
    {
      "inputs": [
        {
          "internalType": "address",
          "name": "",
          "type": "address"
        },
        {
          "internalType": "uint8",
          "name": "",
          "type": "uint8"
        }
      ],
      "name": "_userStakeInfoToRewardCycleMapping",
      "outputs": [
        {
          "internalType": "uint256",
          "name": "stakedBdnAmount",
          "type": "uint256"
        },
        {
          "internalType": "uint32",
          "name": "averageInvestedTime",
          "type": "uint32"
        },
        {
          "internalType": "uint8",
          "name": "rewardCycle",
          "type": "uint8"
        },
        {
          "internalType": "bool",
          "name": "redeemed",
          "type": "bool"
        }
      ],
      "stateMutability": "view",
      "type": "function"
    },
    {
      "inputs": [
        {
          "internalType": "uint256",
          "name": "rewardAmount",
          "type": "uint256"
        }
      ],
      "name": "completeRewardCycle",
      "outputs": [],
      "stateMutability": "nonpayable",
      "type": "function"
    },
    {
      "inputs": [],
      "name": "currentRewardCycle",
      "outputs": [
        {
          "internalType": "uint8",
          "name": "",
          "type": "uint8"
        }
      ],
      "stateMutability": "view",
      "type": "function"
    },
    {
      "inputs": [
        {
          "internalType": "uint8",
          "name": "rewardCycleId",
          "type": "uint8"
        }
      ],
      "name": "getRewardCycleTimeWindow",
      "outputs": [
        {
          "internalType": "uint32",
          "name": "startTime_",
          "type": "uint32"
        },
        {
          "internalType": "uint32",
          "name": "endTime_",
          "type": "uint32"
        }
      ],
      "stateMutability": "view",
      "type": "function"
    },
    {
      "inputs": [
        {
          "internalType": "uint8",
          "name": "rewardCycleId",
          "type": "uint8"
        }
      ],
      "name": "getTotalRewardsForCycle",
      "outputs": [
        {
          "internalType": "uint256",
          "name": "",
          "type": "uint256"
        }
      ],
      "stateMutability": "view",
      "type": "function"
    },
    {
      "inputs": [
        {
          "internalType": "address",
          "name": "account_",
          "type": "address"
        }
      ],
      "name": "getTotalRewardsForUser",
      "outputs": [
        {
          "internalType": "uint256",
          "name": "",
          "type": "uint256"
        }
      ],
      "stateMutability": "view",
      "type": "function"
    },
    {
      "inputs": [
        {
          "internalType": "uint8",
          "name": "rewardCycle",
          "type": "uint8"
        }
      ],
      "name": "getTotalStakedBdnForACycle",
      "outputs": [
        {
          "internalType": "uint256",
          "name": "amount_",
          "type": "uint256"
        }
      ],
      "stateMutability": "view",
      "type": "function"
    },
    {
      "inputs": [
        {
          "internalType": "address",
          "name": "account_",
          "type": "address"
        },
        {
          "internalType": "uint8",
          "name": "rewardCycle",
          "type": "uint8"
        }
      ],
      "name": "getTotalStakedBdnOfUserForACycle",
      "outputs": [
        {
          "internalType": "uint256",
          "name": "amount_",
          "type": "uint256"
        }
      ],
      "stateMutability": "view",
      "type": "function"
    },
    {
      "inputs": [],
      "name": "owner",
      "outputs": [
        {
          "internalType": "address",
          "name": "",
          "type": "address"
        }
      ],
      "stateMutability": "view",
      "type": "function"
    },
    {
      "inputs": [
        {
          "internalType": "address",
          "name": "account_",
          "type": "address"
        },
        {
          "internalType": "uint8",
          "name": "rewardCycle_",
          "type": "uint8"
        }
      ],
      "name": "redeemRewardsForACycle",
      "outputs": [],
      "stateMutability": "nonpayable",
      "type": "function"
    },
    {
      "inputs": [
        {
          "internalType": "address",
          "name": "account_",
          "type": "address"
        }
      ],
      "name": "redeemTotalRewardsForUser",
      "outputs": [],
      "stateMutability": "nonpayable",
      "type": "function"
    },
    {
      "inputs": [],
      "name": "renounceOwnership",
      "outputs": [],
      "stateMutability": "nonpayable",
      "type": "function"
    },
    {
      "inputs": [
        {
          "internalType": "address",
          "name": "account_",
          "type": "address"
        },
        {
          "internalType": "uint8",
          "name": "rewardCycle_",
          "type": "uint8"
        }
      ],
      "name": "rewardsForACycle",
      "outputs": [
        {
          "internalType": "uint256",
          "name": "",
          "type": "uint256"
        }
      ],
      "stateMutability": "view",
      "type": "function"
    },
    {
      "inputs": [
        {
          "internalType": "address",
          "name": "stableCoinAddress_",
          "type": "address"
        }
      ],
      "name": "setStableCoinAddress",
      "outputs": [],
      "stateMutability": "nonpayable",
      "type": "function"
    },
    {
      "inputs": [
        {
          "internalType": "address",
          "name": "treasuryAddress_",
          "type": "address"
        }
      ],
      "name": "setTreasuryAddress",
      "outputs": [],
      "stateMutability": "nonpayable",
      "type": "function"
    },
    {
      "inputs": [
        {
          "internalType": "address",
          "name": "to_",
          "type": "address"
        },
        {
          "internalType": "uint256",
          "name": "amount",
          "type": "uint256"
        }
      ],
      "name": "stake",
      "outputs": [],
      "stateMutability": "nonpayable",
      "type": "function"
    },
    {
      "inputs": [],
      "name": "stakedBdnAddress",
      "outputs": [
        {
          "internalType": "address",
          "name": "",
          "type": "address"
        }
      ],
      "stateMutability": "view",
      "type": "function"
    },
    {
      "inputs": [],
      "name": "stakingContract",
      "outputs": [
        {
          "internalType": "address",
          "name": "",
          "type": "address"
        }
      ],
      "stateMutability": "view",
      "type": "function"
    },
    {
      "inputs": [
        {
          "internalType": "address",
          "name": "newOwner",
          "type": "address"
        }
      ],
      "name": "transferOwnership",
      "outputs": [],
      "stateMutability": "nonpayable",
      "type": "function"
    },
    {
      "inputs": [
        {
          "internalType": "address",
          "name": "to_",
          "type": "address"
        },
        {
          "internalType": "uint256",
          "name": "amount",
          "type": "uint256"
        }
      ],
      "name": "unstake",
      "outputs": [],
      "stateMutability": "nonpayable",
      "type": "function"
    }
  ],
  "bytecode": "0x60806040523480156200001157600080fd5b5060405162003c5e38038062003c5e8339818101604052810190620000379190620002a7565b620000576200004b620001c460201b60201c565b620001cc60201b60201c565b600073ffffffffffffffffffffffffffffffffffffffff168273ffffffffffffffffffffffffffffffffffffffff1614156200009257600080fd5b600073ffffffffffffffffffffffffffffffffffffffff168173ffffffffffffffffffffffffffffffffffffffff161415620000cd57600080fd5b6001600060146101000a81548160ff021916908360ff160217905550600060098190555042600160008060149054906101000a900460ff1660ff1660ff16815260200190815260200160002060000160006101000a81548163ffffffff021916908363ffffffff16021790555081600560006101000a81548173ffffffffffffffffffffffffffffffffffffffff021916908373ffffffffffffffffffffffffffffffffffffffff16021790555080600660006101000a81548173ffffffffffffffffffffffffffffffffffffffff021916908373ffffffffffffffffffffffffffffffffffffffff160217905550505062000336565b600033905090565b60008060009054906101000a900473ffffffffffffffffffffffffffffffffffffffff169050816000806101000a81548173ffffffffffffffffffffffffffffffffffffffff021916908373ffffffffffffffffffffffffffffffffffffffff1602179055508173ffffffffffffffffffffffffffffffffffffffff168173ffffffffffffffffffffffffffffffffffffffff167f8be0079c531659141344cd1fd0a4f28419497f9722a3daafe3b4186f6b6457e060405160405180910390a35050565b600081519050620002a1816200031c565b92915050565b60008060408385031215620002bb57600080fd5b6000620002cb8582860162000290565b9250506020620002de8582860162000290565b9150509250929050565b6000620002f582620002fc565b9050919050565b600073ffffffffffffffffffffffffffffffffffffffff82169050919050565b6200032781620002e8565b81146200033357600080fd5b50565b61391880620003466000396000f3fe608060405234801561001057600080fd5b50600436106101425760003560e01c80638da5cb5b116100b8578063ce7ae0e61161007c578063ce7ae0e6146103a0578063e6635612146103bc578063ee99205c146103ec578063f2fde38b1461040a578063f90a6f4314610426578063fa38cdc51461044457610142565b80638da5cb5b146102e7578063adc9772e14610305578063b5185df614610321578063c2a672e014610351578063c65a376e1461036d57610142565b8063665033121161010a57806366503312146101e95780636bb65afa146102195780636cc81cc4146102495780636e93e9f21461027c578063715018a6146102ad57806388cf7398146102b757610142565b8063316dfa721461014757806344879b3b1461017757806344a71036146101935780634dd7dee0146101af5780636605bfda146101cd575b600080fd5b610161600480360381019061015c9190612b4d565b610460565b60405161016e9190613286565b60405180910390f35b610191600480360381019061018c9190612b4d565b610480565b005b6101ad60048036038101906101a89190612bb2565b610506565b005b6101b7610753565b6040516101c49190613286565b60405180910390f35b6101e760048036038101906101e29190612b4d565b610766565b005b61020360048036038101906101fe9190612b4d565b6107ec565b6040516102109190613106565b60405180910390f35b610233600480360381019061022e9190612bb2565b6108d7565b6040516102409190613106565b60405180910390f35b610263600480360381019061025e9190612bb2565b610cc8565b60405161027394939291906131aa565b60405180910390f35b61029660048036038101906102919190612c69565b610d2f565b6040516102a4929190613218565b60405180910390f35b6102b5610d95565b005b6102d160048036038101906102cc9190612c69565b610da9565b6040516102de9190613106565b60405180910390f35b6102ef610dcf565b6040516102fc9190612f20565b60405180910390f35b61031f600480360381019061031a9190612b76565b610df8565b005b61033b60048036038101906103369190612c69565b610e99565b6040516103489190613106565b60405180910390f35b61036b60048036038101906103669190612b76565b610ebf565b005b61038760048036038101906103829190612c69565b610f60565b6040516103979493929190613241565b60405180910390f35b6103ba60048036038101906103b59190612c17565b610fb0565b005b6103d660048036038101906103d19190612bb2565b6112eb565b6040516103e39190613106565b60405180910390f35b6103f461134f565b6040516104019190612f20565b60405180910390f35b610424600480360381019061041f9190612b4d565b611379565b005b61042e6113fd565b60405161043b9190612f20565b60405180910390f35b61045e60048036038101906104599190612b4d565b611427565b005b60046020528060005260406000206000915054906101000a900460ff1681565b6104886114fd565b600073ffffffffffffffffffffffffffffffffffffffff168173ffffffffffffffffffffffffffffffffffffffff1614156104c257600080fd5b80600760006101000a81548173ffffffffffffffffffffffffffffffffffffffff021916908373ffffffffffffffffffffffffffffffffffffffff16021790555050565b61050f8261157b565b600061051b83836108d7565b90506001600360008573ffffffffffffffffffffffffffffffffffffffff1673ffffffffffffffffffffffffffffffffffffffff16815260200190815260200160002060008460ff1660ff16815260200190815260200160002060010160056101000a81548160ff02191690831515021790555080600960008282546105a191906133eb565b9250508190555081600260008573ffffffffffffffffffffffffffffffffffffffff1673ffffffffffffffffffffffffffffffffffffffff16815260200190815260200160002060006101000a81548160ff021916908360ff160217905550600860009054906101000a900473ffffffffffffffffffffffffffffffffffffffff1673ffffffffffffffffffffffffffffffffffffffff16630b0eee30600760009054906101000a900473ffffffffffffffffffffffffffffffffffffffff16836040518363ffffffff1660e01b815260040161067f929190612f3b565b600060405180830381600087803b15801561069957600080fd5b505af11580156106ad573d6000803e3d6000fd5b505050506106fe8382600760009054906101000a900473ffffffffffffffffffffffffffffffffffffffff1673ffffffffffffffffffffffffffffffffffffffff166118d59092919063ffffffff16565b8273ffffffffffffffffffffffffffffffffffffffff167f29f54648bf4cdde44fd5ab419946327cf486052f3f89c2a5d87470351ce2850d82846040516107469291906131ef565b60405180910390a2505050565b600060149054906101000a900460ff1681565b61076e6114fd565b600073ffffffffffffffffffffffffffffffffffffffff168173ffffffffffffffffffffffffffffffffffffffff1614156107a857600080fd5b80600860006101000a81548173ffffffffffffffffffffffffffffffffffffffff021916908373ffffffffffffffffffffffffffffffffffffffff16021790555050565b60008073ffffffffffffffffffffffffffffffffffffffff168273ffffffffffffffffffffffffffffffffffffffff16141561082757600080fd5b6000806001600260008673ffffffffffffffffffffffffffffffffffffffff1673ffffffffffffffffffffffffffffffffffffffff16815260200190815260200160002060009054906101000a900460ff166108839190613329565b90505b600060149054906101000a900460ff1660ff168160ff1610156108cd576108ad84826108d7565b826108b891906132d3565b915080806108c590613543565b915050610886565b5080915050919050565b60008073ffffffffffffffffffffffffffffffffffffffff168373ffffffffffffffffffffffffffffffffffffffff16141561091257600080fd5b600060149054906101000a900460ff1660ff168260ff1610610969576040517f08c379a000000000000000000000000000000000000000000000000000000000815260040161096090613086565b60405180910390fd5b6000600460008573ffffffffffffffffffffffffffffffffffffffff1673ffffffffffffffffffffffffffffffffffffffff16815260200190815260200160002060009054906101000a900460ff1690506109c2612a80565b8160ff168460ff161115610ab957600360008673ffffffffffffffffffffffffffffffffffffffff1673ffffffffffffffffffffffffffffffffffffffff16815260200190815260200160002060008360ff1660ff168152602001908152602001600020604051806080016040529081600082015481526020016001820160009054906101000a900463ffffffff1663ffffffff1663ffffffff1681526020016001820160049054906101000a900460ff1660ff1660ff1681526020016001820160059054906101000a900460ff16151515158152505090506000816020019063ffffffff16908163ffffffff1681525050610b85565b600360008673ffffffffffffffffffffffffffffffffffffffff1673ffffffffffffffffffffffffffffffffffffffff16815260200190815260200160002060008560ff1660ff168152602001908152602001600020604051806080016040529081600082015481526020016001820160009054906101000a900463ffffffff1663ffffffff1663ffffffff1681526020016001820160049054906101000a900460ff1660ff1660ff1681526020016001820160059054906101000a900460ff16151515158152505090505b806060015115610bca576040517f08c379a0000000000000000000000000000000000000000000000000000000008152600401610bc190613026565b60405180910390fd5b6000600160008660ff1660ff1681526020019081526020016000206040518060800160405290816000820160009054906101000a900463ffffffff1663ffffffff1663ffffffff1681526020016000820160049054906101000a900463ffffffff1663ffffffff1663ffffffff1681526020016001820154815260200160028201548152505090506000610c758260000151836020015163ffffffff1661195b90919063ffffffff16565b90506000610c938263ffffffff16856020015163ffffffff1661198a565b90506000610ca9856000015185604001516119dc565b9050610cba82828660600151611a1c565b965050505050505092915050565b6003602052816000526040600020602052806000526040600020600091509150508060000154908060010160009054906101000a900463ffffffff16908060010160049054906101000a900460ff16908060010160059054906101000a900460ff16905084565b600080600160008460ff1660ff16815260200190815260200160002060000160009054906101000a900463ffffffff169150600160008460ff1660ff16815260200190815260200160002060000160049054906101000a900463ffffffff169050915091565b610d9d6114fd565b610da76000611a6d565b565b6000600160008360ff1660ff168152602001908152602001600020600101549050919050565b60008060009054906101000a900473ffffffffffffffffffffffffffffffffffffffff16905090565b600560009054906101000a900473ffffffffffffffffffffffffffffffffffffffff1673ffffffffffffffffffffffffffffffffffffffff163373ffffffffffffffffffffffffffffffffffffffff1614610e88576040517f08c379a0000000000000000000000000000000000000000000000000000000008152600401610e7f90612fa6565b60405180910390fd5b610e9482826001611b31565b505050565b6000600160008360ff1660ff168152602001908152602001600020600201549050919050565b600560009054906101000a900473ffffffffffffffffffffffffffffffffffffffff1673ffffffffffffffffffffffffffffffffffffffff163373ffffffffffffffffffffffffffffffffffffffff1614610f4f576040517f08c379a0000000000000000000000000000000000000000000000000000000008152600401610f4690612fa6565b60405180910390fd5b610f5b82826000611b31565b505050565b60016020528060005260406000206000915090508060000160009054906101000a900463ffffffff16908060000160049054906101000a900463ffffffff16908060010154908060020154905084565b610fb86114fd565b60008111610fc557600080fd5b6000600160008060149054906101000a900460ff1660ff1660ff1681526020019081526020016000206040518060800160405290816000820160009054906101000a900463ffffffff1663ffffffff1663ffffffff1681526020016000820160049054906101000a900463ffffffff1663ffffffff1663ffffffff16815260200160018201548152602001600282015481525050905042816000015163ffffffff16106110a7576040517f08c379a000000000000000000000000000000000000000000000000000000000815260040161109e906130e6565b60405180910390fd5b42816020019063ffffffff16908163ffffffff168152505081816060018181525050600660009054906101000a900473ffffffffffffffffffffffffffffffffffffffff1673ffffffffffffffffffffffffffffffffffffffff166318160ddd6040518163ffffffff1660e01b815260040160206040518083038186803b15801561113157600080fd5b505afa158015611145573d6000803e3d6000fd5b505050506040513d601f19601f820116820180604052508101906111699190612c40565b81604001818152505080600160008060149054906101000a900460ff1660ff1660ff16815260200190815260200160002060008201518160000160006101000a81548163ffffffff021916908363ffffffff16021790555060208201518160000160046101000a81548163ffffffff021916908363ffffffff16021790555060408201518160010155606082015181600201559050507fb5a927304116e39aa3a6faa912604add4565a926be6ec77c5caa602e5811b5bf828260400151600060149054906101000a900460ff166040516112459392919061314a565b60405180910390a16000601481819054906101000a900460ff168092919061126c90613543565b91906101000a81548160ff021916908360ff16021790555050816009600082825461129791906132d3565b9250508190555042600160008060149054906101000a900460ff1660ff1660ff16815260200190815260200160002060000160006101000a81548163ffffffff021916908363ffffffff1602179055505050565b6000600360008473ffffffffffffffffffffffffffffffffffffffff1673ffffffffffffffffffffffffffffffffffffffff16815260200190815260200160002060008360ff1660ff16815260200190815260200160002060000154905092915050565b6000600560009054906101000a900473ffffffffffffffffffffffffffffffffffffffff16905090565b6113816114fd565b600073ffffffffffffffffffffffffffffffffffffffff168173ffffffffffffffffffffffffffffffffffffffff1614156113f1576040517f08c379a00000000000000000000000000000000000000000000000000000000081526004016113e890612f86565b60405180910390fd5b6113fa81611a6d565b50565b6000600660009054906101000a900473ffffffffffffffffffffffffffffffffffffffff16905090565b600073ffffffffffffffffffffffffffffffffffffffff168173ffffffffffffffffffffffffffffffffffffffff16141561146157600080fd5b60006001600260008473ffffffffffffffffffffffffffffffffffffffff1673ffffffffffffffffffffffffffffffffffffffff16815260200190815260200160002060009054906101000a900460ff166114bc9190613329565b90505b600060149054906101000a900460ff1660ff168160ff1610156114f9576114e68282610506565b80806114f190613543565b9150506114bf565b5050565b61150561209d565b73ffffffffffffffffffffffffffffffffffffffff16611523610dcf565b73ffffffffffffffffffffffffffffffffffffffff1614611579576040517f08c379a000000000000000000000000000000000000000000000000000000000815260040161157090613046565b60405180910390fd5b565b600060149054906101000a900460ff1660ff16600460008373ffffffffffffffffffffffffffffffffffffffff1673ffffffffffffffffffffffffffffffffffffffff16815260200190815260200160002060009054906101000a900460ff1660ff16146118d25760006001600460008473ffffffffffffffffffffffffffffffffffffffff1673ffffffffffffffffffffffffffffffffffffffff16815260200190815260200160002060009054906101000a900460ff1661163e9190613329565b90505b600060149054906101000a900460ff1660ff168160ff1611611869576000600360008473ffffffffffffffffffffffffffffffffffffffff1673ffffffffffffffffffffffffffffffffffffffff16815260200190815260200160002060006001846116ad9190613453565b60ff1660ff168152602001908152602001600020604051806080016040529081600082015481526020016001820160009054906101000a900463ffffffff1663ffffffff1663ffffffff1681526020016001820160049054906101000a900460ff1660ff1660ff1681526020016001820160059054906101000a900460ff161515151581525050905061173e612a80565b6000816020019063ffffffff16908163ffffffff168152505082816040019060ff16908160ff16815250508160000151816000018181525050600081606001901515908115158152505080600360008673ffffffffffffffffffffffffffffffffffffffff1673ffffffffffffffffffffffffffffffffffffffff16815260200190815260200160002060008560ff1660ff1681526020019081526020016000206000820151816000015560208201518160010160006101000a81548163ffffffff021916908363ffffffff16021790555060408201518160010160046101000a81548160ff021916908360ff16021790555060608201518160010160056101000a81548160ff0219169083151502179055509050505050808061186190613543565b915050611641565b50600060149054906101000a900460ff16600460008373ffffffffffffffffffffffffffffffffffffffff1673ffffffffffffffffffffffffffffffffffffffff16815260200190815260200160002060006101000a81548160ff021916908360ff1602179055505b50565b6119568363a9059cbb60e01b84846040516024016118f4929190612f3b565b604051602081830303815290604052907bffffffffffffffffffffffffffffffffffffffffffffffffffffffff19166020820180517bffffffffffffffffffffffffffffffffffffffffffffffffffffffff83818316178352505050506120a5565b505050565b60008263ffffffff168284611970919061341f565b91508163ffffffff16111561198457600080fd5b92915050565b60006119d466038d7ea4c68000806119bc6119b76119b1878961216c90919063ffffffff16565b8861218f565b612396565b6119c69190613360565b6123d490919063ffffffff16565b905092915050565b6000611a1466038d7ea4c68000806119fc6119f7878761218f565b612396565b611a069190613360565b6123d490919063ffffffff16565b905092915050565b6000611a646ec097ce7bc90715b34b9f1000000000611a5684611a4887896123d490919063ffffffff16565b6123d490919063ffffffff16565b61240b90919063ffffffff16565b90509392505050565b60008060009054906101000a900473ffffffffffffffffffffffffffffffffffffffff169050816000806101000a81548173ffffffffffffffffffffffffffffffffffffffff021916908373ffffffffffffffffffffffffffffffffffffffff1602179055508173ffffffffffffffffffffffffffffffffffffffff168173ffffffffffffffffffffffffffffffffffffffff167f8be0079c531659141344cd1fd0a4f28419497f9722a3daafe3b4186f6b6457e060405160405180910390a35050565b6000611b3c8461157b565b6000600360008673ffffffffffffffffffffffffffffffffffffffff1673ffffffffffffffffffffffffffffffffffffffff16815260200190815260200160002060008060149054906101000a900460ff1660ff1660ff168152602001908152602001600020604051806080016040529081600082015481526020016001820160009054906101000a900463ffffffff1663ffffffff1663ffffffff1681526020016001820160049054906101000a900460ff1660ff1660ff1681526020016001820160059054906101000a900460ff1615151515815250509050600060149054906101000a900460ff16600460008773ffffffffffffffffffffffffffffffffffffffff1673ffffffffffffffffffffffffffffffffffffffff16815260200190815260200160002060006101000a81548160ff021916908360ff1602179055508215611e7d576000611cd48260200151600160008060149054906101000a900460ff1660ff1660ff16815260200190815260200160002060000160009054906101000a900463ffffffff16846000015188612455565b9050611cf1670de0b6b3a76400008261240b90919063ffffffff16565b826020019063ffffffff16908163ffffffff1681525050611d1f8583600001516124e890919063ffffffff16565b826000018181525050600060149054906101000a900460ff16826040019060ff16908160ff168152505081600360008873ffffffffffffffffffffffffffffffffffffffff1673ffffffffffffffffffffffffffffffffffffffff16815260200190815260200160002060008060149054906101000a900460ff1660ff1660ff1681526020019081526020016000206000820151816000015560208201518160010160006101000a81548163ffffffff021916908363ffffffff16021790555060408201518160010160046101000a81548160ff021916908360ff16021790555060608201518160010160056101000a81548160ff0219169083151502179055509050508573ffffffffffffffffffffffffffffffffffffffff167f388581407fcab28d7eaeffaf92f1716df2203258960164e8401a02b1efb5c11d8683604051611e6b929190613121565b60405180910390a28092505050612096565b611e9484826000015161216c90919063ffffffff16565b81600001818152505080600360008773ffffffffffffffffffffffffffffffffffffffff1673ffffffffffffffffffffffffffffffffffffffff16815260200190815260200160002060008060149054906101000a900460ff1660ff1660ff1681526020019081526020016000206000820151816000015560208201518160010160006101000a81548163ffffffff021916908363ffffffff16021790555060408201518160010160046101000a81548160ff021916908360ff16021790555060608201518160010160056101000a81548160ff02191690831515021790555090505060008160000151141561203357600360008673ffffffffffffffffffffffffffffffffffffffff1673ffffffffffffffffffffffffffffffffffffffff16815260200190815260200160002060008060149054906101000a900460ff1660ff1660ff1681526020019081526020016000206000808201600090556001820160006101000a81549063ffffffff02191690556001820160046101000a81549060ff02191690556001820160056101000a81549060ff021916905550505b8473ffffffffffffffffffffffffffffffffffffffff167f1e301f7726fd710134cc80520b42a10391600bb16c2597bf2932bbad9c82eca985836020015160405161207f929190613181565b60405180910390a2806020015163ffffffff169150505b9392505050565b600033905090565b6000612107826040518060400160405280602081526020017f5361666545524332303a206c6f772d6c6576656c2063616c6c206661696c65648152508573ffffffffffffffffffffffffffffffffffffffff1661250b9092919063ffffffff16565b905060008151111561216757808060200190518101906121279190612bee565b612166576040517f08c379a000000000000000000000000000000000000000000000000000000000815260040161215d906130c6565b60405180910390fd5b5b505050565b600082828461217b91906133eb565b915081111561218957600080fd5b92915050565b612197612ab3565b600082116121da576040517f08c379a00000000000000000000000000000000000000000000000000000000081526004016121d190612fe6565b60405180910390fd5b600083141561221857604051806020016040528060007bffffffffffffffffffffffffffffffffffffffffffffffffffffffff168152509050612390565b71ffffffffffffffffffffffffffffffffffff801683116122e057600082607060ff1685901b6122489190613360565b90507bffffffffffffffffffffffffffffffffffffffffffffffffffffffff80168111156122ab576040517f08c379a00000000000000000000000000000000000000000000000000000000081526004016122a290613066565b60405180910390fd5b6040518060200160405280827bffffffffffffffffffffffffffffffffffffffffffffffffffffffff16815250915050612390565b60006122fc846e01000000000000000000000000000085612523565b90507bffffffffffffffffffffffffffffffffffffffffffffffffffffffff801681111561235f576040517f08c379a000000000000000000000000000000000000000000000000000000000815260040161235690613066565b60405180910390fd5b6040518060200160405280827bffffffffffffffffffffffffffffffffffffffffffffffffffffffff168152509150505b92915050565b60006612725dd1d243ab82600001517bffffffffffffffffffffffffffffffffffffffffffffffffffffffff166123cd9190613360565b9050919050565b6000808314806123fc5750818383856123ed9190613391565b9250826123fa9190613360565b145b61240557600080fd5b92915050565b600061244d83836040518060400160405280601a81526020017f536166654d6174683a206469766973696f6e206279207a65726f0000000000008152506125f1565b905092915050565b600080612471848763ffffffff166123d490919063ffffffff16565b9050600061248e8663ffffffff164261216c90919063ffffffff16565b905060006124a582866123d490919063ffffffff16565b905060006124bc82856124e890919063ffffffff16565b90506124da816124d5888a6124e890919063ffffffff16565b612654565b945050505050949350505050565b60008282846124f791906132d3565b915081101561250557600080fd5b92915050565b606061251a8484600085612694565b90509392505050565b600080600061253286866127a8565b915091506000848061256d577f4e487b7100000000000000000000000000000000000000000000000000000000600052601260045260246000fd5b86880990508281111561258a5760018261258791906133eb565b91505b808361259691906133eb565b92508482106125da576040517f08c379a00000000000000000000000000000000000000000000000000000000081526004016125d190613006565b60405180910390fd5b6125e5838387612843565b93505050509392505050565b60008083118290612638576040517f08c379a000000000000000000000000000000000000000000000000000000000815260040161262f9190612f64565b60405180910390fd5b50600083856126479190613360565b9050809150509392505050565b600061268c66038d7ea4c680008061267461266f878761218f565b612396565b61267e9190613360565b6123d490919063ffffffff16565b905092915050565b6060824710156126d9576040517f08c379a00000000000000000000000000000000000000000000000000000000081526004016126d090612fc6565b60405180910390fd5b6126e2856129f6565b612721576040517f08c379a0000000000000000000000000000000000000000000000000000000008152600401612718906130a6565b60405180910390fd5b6000808673ffffffffffffffffffffffffffffffffffffffff16858760405161274a9190612f09565b60006040518083038185875af1925050503d8060008114612787576040519150601f19603f3d011682016040523d82523d6000602084013e61278c565b606091505b509150915061279c828286612a19565b92505050949350505050565b60008060007fffffffffffffffffffffffffffffffffffffffffffffffffffffffffffffffff80612802577f4e487b7100000000000000000000000000000000000000000000000000000000600052601260045260246000fd5b848609905083856128139190613391565b9250828161282191906133eb565b91508281101561283b5760018261283891906133eb565b91505b509250929050565b6000806001831961285491906132d3565b8316905080836128649190613360565b925080856128729190613360565b94506001816001831961288591906132d3565b61288f9190613360565b61289991906132d3565b846128a49190613391565b856128af91906132d3565b945060006001905080846128c39190613391565b60026128cf91906133eb565b816128da9190613391565b905080846128e89190613391565b60026128f491906133eb565b816128ff9190613391565b9050808461290d9190613391565b600261291991906133eb565b816129249190613391565b905080846129329190613391565b600261293e91906133eb565b816129499190613391565b905080846129579190613391565b600261296391906133eb565b8161296e9190613391565b9050808461297c9190613391565b600261298891906133eb565b816129939190613391565b905080846129a19190613391565b60026129ad91906133eb565b816129b89190613391565b905080846129c69190613391565b60026129d291906133eb565b816129dd9190613391565b905080866129eb9190613391565b925050509392505050565b6000808273ffffffffffffffffffffffffffffffffffffffff163b119050919050565b60608315612a2957829050612a79565b600083511115612a3c5782518084602001fd5b816040517f08c379a0000000000000000000000000000000000000000000000000000000008152600401612a709190612f64565b60405180910390fd5b9392505050565b604051806080016040528060008152602001600063ffffffff168152602001600060ff1681526020016000151581525090565b604051806020016040528060007bffffffffffffffffffffffffffffffffffffffffffffffffffffffff1681525090565b600081359050612af381613886565b92915050565b600081519050612b088161389d565b92915050565b600081359050612b1d816138b4565b92915050565b600081519050612b32816138b4565b92915050565b600081359050612b47816138cb565b92915050565b600060208284031215612b5f57600080fd5b6000612b6d84828501612ae4565b91505092915050565b60008060408385031215612b8957600080fd5b6000612b9785828601612ae4565b9250506020612ba885828601612b0e565b9150509250929050565b60008060408385031215612bc557600080fd5b6000612bd385828601612ae4565b9250506020612be485828601612b38565b9150509250929050565b600060208284031215612c0057600080fd5b6000612c0e84828501612af9565b91505092915050565b600060208284031215612c2957600080fd5b6000612c3784828501612b0e565b91505092915050565b600060208284031215612c5257600080fd5b6000612c6084828501612b23565b91505092915050565b600060208284031215612c7b57600080fd5b6000612c8984828501612b38565b91505092915050565b612c9b81613487565b82525050565b612caa81613499565b82525050565b6000612cbb826132a1565b612cc581856132b7565b9350612cd5818560208601613510565b80840191505092915050565b6000612cec826132ac565b612cf681856132c2565b9350612d06818560208601613510565b612d0f816135cb565b840191505092915050565b6000612d276026836132c2565b9150612d32826135dc565b604082019050919050565b6000612d4a6003836132c2565b9150612d558261362b565b602082019050919050565b6000612d6d6026836132c2565b9150612d7882613654565b604082019050919050565b6000612d906026836132c2565b9150612d9b826136a3565b604082019050919050565b6000612db3601a836132c2565b9150612dbe826136f2565b602082019050919050565b6000612dd66019836132c2565b9150612de18261371b565b602082019050919050565b6000612df96020836132c2565b9150612e0482613744565b602082019050919050565b6000612e1c601e836132c2565b9150612e278261376d565b602082019050919050565b6000612e3f6014836132c2565b9150612e4a82613796565b602082019050919050565b6000612e62601d836132c2565b9150612e6d826137bf565b602082019050919050565b6000612e85602a836132c2565b9150612e90826137e8565b604082019050919050565b6000612ea86027836132c2565b9150612eb382613837565b604082019050919050565b612ec7816134c5565b82525050565b612ed6816134ec565b82525050565b612ee5816134cf565b82525050565b612ef4816134fe565b82525050565b612f03816134df565b82525050565b6000612f158284612cb0565b915081905092915050565b6000602082019050612f356000830184612c92565b92915050565b6000604082019050612f506000830185612c92565b612f5d6020830184612ebe565b9392505050565b60006020820190508181036000830152612f7e8184612ce1565b905092915050565b60006020820190508181036000830152612f9f81612d1a565b9050919050565b60006020820190508181036000830152612fbf81612d3d565b9050919050565b60006020820190508181036000830152612fdf81612d60565b9050919050565b60006020820190508181036000830152612fff81612d83565b9050919050565b6000602082019050818103600083015261301f81612da6565b9050919050565b6000602082019050818103600083015261303f81612dc9565b9050919050565b6000602082019050818103600083015261305f81612dec565b9050919050565b6000602082019050818103600083015261307f81612e0f565b9050919050565b6000602082019050818103600083015261309f81612e32565b9050919050565b600060208201905081810360008301526130bf81612e55565b9050919050565b600060208201905081810360008301526130df81612e78565b9050919050565b600060208201905081810360008301526130ff81612e9b565b9050919050565b600060208201905061311b6000830184612ebe565b92915050565b60006040820190506131366000830185612ebe565b6131436020830184612ebe565b9392505050565b600060608201905061315f6000830186612ebe565b61316c6020830185612ebe565b6131796040830184612efa565b949350505050565b60006040820190506131966000830185612ebe565b6131a36020830184612ecd565b9392505050565b60006080820190506131bf6000830187612ebe565b6131cc6020830186612edc565b6131d96040830185612efa565b6131e66060830184612ca1565b95945050505050565b60006040820190506132046000830185612ebe565b6132116020830184612eeb565b9392505050565b600060408201905061322d6000830185612edc565b61323a6020830184612edc565b9392505050565b60006080820190506132566000830187612edc565b6132636020830186612edc565b6132706040830185612ebe565b61327d6060830184612ebe565b95945050505050565b600060208201905061329b6000830184612efa565b92915050565b600081519050919050565b600081519050919050565b600081905092915050565b600082825260208201905092915050565b60006132de826134c5565b91506132e9836134c5565b9250827fffffffffffffffffffffffffffffffffffffffffffffffffffffffffffffffff0382111561331e5761331d61356d565b5b828201905092915050565b6000613334826134df565b915061333f836134df565b92508260ff038211156133555761335461356d565b5b828201905092915050565b600061336b826134c5565b9150613376836134c5565b9250826133865761338561359c565b5b828204905092915050565b600061339c826134c5565b91506133a7836134c5565b9250817fffffffffffffffffffffffffffffffffffffffffffffffffffffffffffffffff04831182151516156133e0576133df61356d565b5b828202905092915050565b60006133f6826134c5565b9150613401836134c5565b9250828210156134145761341361356d565b5b828203905092915050565b600061342a826134cf565b9150613435836134cf565b9250828210156134485761344761356d565b5b828203905092915050565b600061345e826134df565b9150613469836134df565b92508282101561347c5761347b61356d565b5b828203905092915050565b6000613492826134a5565b9050919050565b60008115159050919050565b600073ffffffffffffffffffffffffffffffffffffffff82169050919050565b6000819050919050565b600063ffffffff82169050919050565b600060ff82169050919050565b60006134f7826134cf565b9050919050565b6000613509826134df565b9050919050565b60005b8381101561352e578082015181840152602081019050613513565b8381111561353d576000848401525b50505050565b600061354e826134df565b915060ff8214156135625761356161356d565b5b600182019050919050565b7f4e487b7100000000000000000000000000000000000000000000000000000000600052601160045260246000fd5b7f4e487b7100000000000000000000000000000000000000000000000000000000600052601260045260246000fd5b6000601f19601f8301169050919050565b7f4f776e61626c653a206e6577206f776e657220697320746865207a65726f206160008201527f6464726573730000000000000000000000000000000000000000000000000000602082015250565b7f4f53430000000000000000000000000000000000000000000000000000000000600082015250565b7f416464726573733a20696e73756666696369656e742062616c616e636520666f60008201527f722063616c6c0000000000000000000000000000000000000000000000000000602082015250565b7f4669786564506f696e743a3a6672616374696f6e3a206469766973696f6e206260008201527f79207a65726f0000000000000000000000000000000000000000000000000000602082015250565b7f46756c6c4d6174683a3a6d756c4469763a206f766572666c6f77000000000000600082015250565b7f557365722048617320616c72656164792052656465656d656400000000000000600082015250565b7f4f776e61626c653a2063616c6c6572206973206e6f7420746865206f776e6572600082015250565b7f4669786564506f696e743a3a6672616374696f6e3a206f766572666c6f770000600082015250565b7f496e76616c696420526577617264204379636c65000000000000000000000000600082015250565b7f416464726573733a2063616c6c20746f206e6f6e2d636f6e7472616374000000600082015250565b7f5361666545524332303a204552433230206f7065726174696f6e20646964206e60008201527f6f74207375636365656400000000000000000000000000000000000000000000602082015250565b7f546865206379636c6520656e6454696d652073686f756c64206265204754207360008201527f74617274696d6500000000000000000000000000000000000000000000000000602082015250565b61388f81613487565b811461389a57600080fd5b50565b6138a681613499565b81146138b157600080fd5b50565b6138bd816134c5565b81146138c857600080fd5b50565b6138d4816134df565b81146138df57600080fd5b5056fea26469706673582212202e2d05099467187150faefaca8e2c065fe70034a57bdfee19ca6fea83021ce3864736f6c63430008040033",
  "linkReferences": {},
  "deployedLinkReferences": {}
}