{
  "_format": "hh-sol-artifact-1",
  "contractName": "Staking",
  "sourceName": "contracts/coreContracts/Staking.sol",
  "abi": [
    {
      "inputs": [
        {
          "internalType": "address",
          "name": "_bdn",
          "type": "address"
        },
        {
          "internalType": "address",
          "name": "_sbdn",
          "type": "address"
        }
      ],
      "stateMutability": "nonpayable",
      "type": "constructor"
    },
    {
      "anonymous": false,
      "inputs": [
        {
          "indexed": true,
          "internalType": "address",
          "name": "account",
          "type": "address"
        },
        {
          "indexed": false,
          "internalType": "uint256",
          "name": "amount",
          "type": "uint256"
        }
      ],
      "name": "BdnStaked",
      "type": "event"
    },
    {
      "anonymous": false,
      "inputs": [
        {
          "indexed": true,
          "internalType": "address",
          "name": "account",
          "type": "address"
        },
        {
          "indexed": false,
          "internalType": "uint256",
          "name": "amount",
          "type": "uint256"
        }
      ],
      "name": "BdnUnstaked",
      "type": "event"
    },
    {
      "anonymous": false,
      "inputs": [
        {
          "indexed": true,
          "internalType": "address",
          "name": "previousOwner",
          "type": "address"
        },
        {
          "indexed": true,
          "internalType": "address",
          "name": "newOwner",
          "type": "address"
        }
      ],
      "name": "OwnershipTransferred",
      "type": "event"
    },
    {
      "anonymous": false,
      "inputs": [
        {
          "indexed": false,
          "internalType": "uint256",
          "name": "warmup",
          "type": "uint256"
        }
      ],
      "name": "WarmupSet",
      "type": "event"
    },
    {
      "inputs": [],
      "name": "BDN",
      "outputs": [
        {
          "internalType": "contract IERC20",
          "name": "",
          "type": "address"
        }
      ],
      "stateMutability": "view",
      "type": "function"
    },
    {
      "inputs": [
        {
          "internalType": "address",
          "name": "_to",
          "type": "address"
        }
      ],
      "name": "claim",
      "outputs": [
        {
          "internalType": "uint256",
          "name": "",
          "type": "uint256"
        }
      ],
      "stateMutability": "nonpayable",
      "type": "function"
    },
    {
      "inputs": [],
      "name": "contractBDNBalance",
      "outputs": [
        {
          "internalType": "uint256",
          "name": "",
          "type": "uint256"
        }
      ],
      "stateMutability": "view",
      "type": "function"
    },
    {
      "inputs": [],
      "name": "forfeit",
      "outputs": [
        {
          "internalType": "uint256",
          "name": "",
          "type": "uint256"
        }
      ],
      "stateMutability": "nonpayable",
      "type": "function"
    },
    {
      "inputs": [],
      "name": "getRewardDistributorAddress",
      "outputs": [
        {
          "internalType": "address",
          "name": "",
          "type": "address"
        }
      ],
      "stateMutability": "view",
      "type": "function"
    },
    {
      "inputs": [],
      "name": "owner",
      "outputs": [
        {
          "internalType": "address",
          "name": "",
          "type": "address"
        }
      ],
      "stateMutability": "view",
      "type": "function"
    },
    {
      "inputs": [],
      "name": "renounceOwnership",
      "outputs": [],
      "stateMutability": "nonpayable",
      "type": "function"
    },
    {
      "inputs": [],
      "name": "rewardDistributor",
      "outputs": [
        {
          "internalType": "contract IRewardDistributor",
          "name": "",
          "type": "address"
        }
      ],
      "stateMutability": "view",
      "type": "function"
    },
    {
      "inputs": [],
      "name": "sBDN",
      "outputs": [
        {
          "internalType": "contract IERC20",
          "name": "",
          "type": "address"
        }
      ],
      "stateMutability": "view",
      "type": "function"
    },
    {
      "inputs": [
        {
          "internalType": "address",
          "name": "rewardDistributor_",
          "type": "address"
        }
      ],
      "name": "setRewardDistributor",
      "outputs": [],
      "stateMutability": "nonpayable",
      "type": "function"
    },
    {
      "inputs": [
        {
          "internalType": "uint256",
          "name": "_warmupPeriod",
          "type": "uint256"
        }
      ],
      "name": "setWarmupLength",
      "outputs": [],
      "stateMutability": "nonpayable",
      "type": "function"
    },
    {
      "inputs": [
        {
          "internalType": "address",
          "name": "_to",
          "type": "address"
        },
        {
          "internalType": "uint256",
          "name": "_amount",
          "type": "uint256"
        }
      ],
      "name": "stake",
      "outputs": [
        {
          "internalType": "uint256",
          "name": "",
          "type": "uint256"
        }
      ],
      "stateMutability": "nonpayable",
      "type": "function"
    },
    {
      "inputs": [],
      "name": "supplyInWarmup",
      "outputs": [
        {
          "internalType": "uint256",
          "name": "",
          "type": "uint256"
        }
      ],
      "stateMutability": "view",
      "type": "function"
    },
    {
      "inputs": [],
      "name": "toggleLock",
      "outputs": [],
      "stateMutability": "nonpayable",
      "type": "function"
    },
    {
      "inputs": [
        {
          "internalType": "address",
          "name": "newOwner",
          "type": "address"
        }
      ],
      "name": "transferOwnership",
      "outputs": [],
      "stateMutability": "nonpayable",
      "type": "function"
    },
    {
      "inputs": [
        {
          "internalType": "address",
          "name": "_to",
          "type": "address"
        },
        {
          "internalType": "uint256",
          "name": "_amount",
          "type": "uint256"
        }
      ],
      "name": "unstake",
      "outputs": [
        {
          "internalType": "uint256",
          "name": "amount_",
          "type": "uint256"
        }
      ],
      "stateMutability": "nonpayable",
      "type": "function"
    },
    {
      "inputs": [
        {
          "internalType": "address",
          "name": "",
          "type": "address"
        }
      ],
      "name": "warmupInfo",
      "outputs": [
        {
          "internalType": "uint256",
          "name": "deposit",
          "type": "uint256"
        },
        {
          "internalType": "uint256",
          "name": "expiry",
          "type": "uint256"
        },
        {
          "internalType": "bool",
          "name": "lock",
          "type": "bool"
        }
      ],
      "stateMutability": "view",
      "type": "function"
    },
    {
      "inputs": [],
      "name": "warmupPeriod",
      "outputs": [
        {
          "internalType": "uint256",
          "name": "",
          "type": "uint256"
        }
      ],
      "stateMutability": "view",
      "type": "function"
    }
  ],
  "bytecode": "0x60c06040523480156200001157600080fd5b50604051620023d2380380620023d2833981810160405281019062000037919062000296565b620000576200004b620001b360201b60201c565b620001bb60201b60201c565b600073ffffffffffffffffffffffffffffffffffffffff168273ffffffffffffffffffffffffffffffffffffffff161415620000ca576040517f08c379a0000000000000000000000000000000000000000000000000000000008152600401620000c19062000325565b60405180910390fd5b8173ffffffffffffffffffffffffffffffffffffffff1660808173ffffffffffffffffffffffffffffffffffffffff1660601b81525050600073ffffffffffffffffffffffffffffffffffffffff168173ffffffffffffffffffffffffffffffffffffffff16141562000174576040517f08c379a00000000000000000000000000000000000000000000000000000000081526004016200016b9062000347565b60405180910390fd5b8073ffffffffffffffffffffffffffffffffffffffff1660a08173ffffffffffffffffffffffffffffffffffffffff1660601b8152505050506200041a565b600033905090565b60008060009054906101000a900473ffffffffffffffffffffffffffffffffffffffff169050816000806101000a81548173ffffffffffffffffffffffffffffffffffffffff021916908373ffffffffffffffffffffffffffffffffffffffff1602179055508173ffffffffffffffffffffffffffffffffffffffff168173ffffffffffffffffffffffffffffffffffffffff167f8be0079c531659141344cd1fd0a4f28419497f9722a3daafe3b4186f6b6457e060405160405180910390a35050565b600081519050620002908162000400565b92915050565b60008060408385031215620002aa57600080fd5b6000620002ba858286016200027f565b9250506020620002cd858286016200027f565b9150509250929050565b6000620002e660118362000369565b9150620002f382620003ae565b602082019050919050565b60006200030d60128362000369565b91506200031a82620003d7565b602082019050919050565b600060208201905081810360008301526200034081620002d7565b9050919050565b600060208201905081810360008301526200036281620002fe565b9050919050565b600082825260208201905092915050565b600062000387826200038e565b9050919050565b600073ffffffffffffffffffffffffffffffffffffffff82169050919050565b7f5a65726f20616464726573733a2042444e000000000000000000000000000000600082015250565b7f5a65726f20616464726573733a207342444e0000000000000000000000000000600082015250565b6200040b816200037a565b81146200041757600080fd5b50565b60805160601c60a05160601c611f5b62000477600039600081816105b601528181610aba01526110380152600081816105da015281816106720152818161079a01528181610b4701528181610c370152610f230152611f5b6000f3fe608060405234801561001057600080fd5b50600436106101165760003560e01c8063a1809b95116100a2578063c467d65011610071578063c467d650146102d3578063deac361a146102f1578063f2fde38b1461030f578063f3d86e4a1461032b578063ff9413d81461034957610116565b8063a1809b9514610239578063acc2166a14610255578063adc9772e14610273578063c2a672e0146102a357610116565b8063764b4b2f116100e9578063764b4b2f146101a55780637f2b8b0f146101c35780638da5cb5b146101e15780639238d592146101ff5780639fe8f89b1461021b57610116565b80631e83409a1461011b578063201386411461014b5780636746f4c214610169578063715018a61461019b575b600080fd5b6101356004803603810190610130919061160c565b610353565b6040516101429190611aa3565b60405180910390f35b61015361055f565b6040516101609190611aa3565b60405180910390f35b610183600480360381019061017e919061160c565b610569565b60405161019293929190611abe565b60405180910390f35b6101a36105a0565b005b6101ad6105b4565b6040516101ba919061194b565b60405180910390f35b6101cb6105d8565b6040516101d8919061194b565b60405180910390f35b6101e96105fc565b6040516101f691906118d0565b60405180910390f35b6102196004803603810190610214919061169a565b610625565b005b61022361066e565b6040516102309190611aa3565b60405180910390f35b610253600480360381019061024e919061160c565b61071e565b005b61025d61076a565b60405161026a9190611966565b60405180910390f35b61028d60048036038101906102889190611635565b610790565b60405161029a9190611aa3565b60405180910390f35b6102bd60048036038101906102b89190611635565b610ab6565b6040516102ca9190611aa3565b60405180910390f35b6102db610d61565b6040516102e891906118d0565b60405180910390f35b6102f9610d8b565b6040516103069190611aa3565b60405180910390f35b6103296004803603810190610324919061160c565b610d91565b005b610333610e15565b6040516103409190611aa3565b60405180910390f35b610351610f72565b005b600080600260008473ffffffffffffffffffffffffffffffffffffffff1673ffffffffffffffffffffffffffffffffffffffff16815260200190815260200160002060405180606001604052908160008201548152602001600182015481526020016002820160009054906101000a900460ff16151515158152505090508060400151610449573373ffffffffffffffffffffffffffffffffffffffff168373ffffffffffffffffffffffffffffffffffffffff1614610448576040517f08c379a000000000000000000000000000000000000000000000000000000000815260040161043f906119e3565b60405180910390fd5b5b8060200151421015801561046257506000816020015114155b1561055457600260008473ffffffffffffffffffffffffffffffffffffffff1673ffffffffffffffffffffffffffffffffffffffff16815260200190815260200160002060008082016000905560018201600090556002820160006101000a81549060ff021916905550506104e6816000015160045461101e90919063ffffffff16565b6004819055508273ffffffffffffffffffffffffffffffffffffffff167fd6ef64cb4289c6a3adf0041739d4ca65ea9b9b73b192d59311f7d958bf1433f382600001516040516105369190611aa3565b60405180910390a261054c838260000151611034565b91505061055a565b60009150505b919050565b6000600454905090565b60026020528060005260406000206000915090508060000154908060010154908060020160009054906101000a900460ff16905083565b6105a86110cc565b6105b2600061114a565b565b7f000000000000000000000000000000000000000000000000000000000000000081565b7f000000000000000000000000000000000000000000000000000000000000000081565b60008060009054906101000a900473ffffffffffffffffffffffffffffffffffffffff16905090565b61062d6110cc565b806003819055507fac17d51c35ac71d3eddc155985908430e88946d51e2f6093e93c1c0aba08f6c4816040516106639190611aa3565b60405180910390a150565b60007f000000000000000000000000000000000000000000000000000000000000000073ffffffffffffffffffffffffffffffffffffffff166370a08231306040518263ffffffff1660e01b81526004016106c991906118d0565b60206040518083038186803b1580156106e157600080fd5b505afa1580156106f5573d6000803e3d6000fd5b505050506040513d601f19601f8201168201806040525081019061071991906116c3565b905090565b6107266110cc565b80600160006101000a81548173ffffffffffffffffffffffffffffffffffffffff021916908373ffffffffffffffffffffffffffffffffffffffff16021790555050565b600160009054906101000a900473ffffffffffffffffffffffffffffffffffffffff1681565b60006107df3330847f000000000000000000000000000000000000000000000000000000000000000073ffffffffffffffffffffffffffffffffffffffff1661120e909392919063ffffffff16565b600060035414156108da576107f48383611034565b50600160009054906101000a900473ffffffffffffffffffffffffffffffffffffffff1673ffffffffffffffffffffffffffffffffffffffff1663adc9772e84846040518363ffffffff1660e01b8152600401610852929190611922565b600060405180830381600087803b15801561086c57600080fd5b505af1158015610880573d6000803e3d6000fd5b505050508273ffffffffffffffffffffffffffffffffffffffff167fd6ef64cb4289c6a3adf0041739d4ca65ea9b9b73b192d59311f7d958bf1433f3836040516108ca9190611aa3565b60405180910390a2819050610ab0565b6000600260008573ffffffffffffffffffffffffffffffffffffffff1673ffffffffffffffffffffffffffffffffffffffff16815260200190815260200160002060405180606001604052908160008201548152602001600182015481526020016002820160009054906101000a900460ff161515151581525050905080604001516109cf573373ffffffffffffffffffffffffffffffffffffffff168473ffffffffffffffffffffffffffffffffffffffff16146109ce576040517f08c379a00000000000000000000000000000000000000000000000000000000081526004016109c5906119c3565b60405180910390fd5b5b60405180606001604052806109f185846000015161129790919063ffffffff16565b8152602001610a0b6003544261129790919063ffffffff16565b815260200182604001511515815250600260008673ffffffffffffffffffffffffffffffffffffffff1673ffffffffffffffffffffffffffffffffffffffff168152602001908152602001600020600082015181600001556020820151816001015560408201518160020160006101000a81548160ff021916908315150217905550905050610aa58360045461129790919063ffffffff16565b600481905550829150505b92915050565b60007f000000000000000000000000000000000000000000000000000000000000000073ffffffffffffffffffffffffffffffffffffffff16639dc29fac33846040518363ffffffff1660e01b8152600401610b13929190611922565b600060405180830381600087803b158015610b2d57600080fd5b505af1158015610b41573d6000803e3d6000fd5b505050507f000000000000000000000000000000000000000000000000000000000000000073ffffffffffffffffffffffffffffffffffffffff166370a08231306040518263ffffffff1660e01b8152600401610b9e91906118d0565b60206040518083038186803b158015610bb657600080fd5b505afa158015610bca573d6000803e3d6000fd5b505050506040513d601f19601f82011682018060405250810190610bee91906116c3565b821115610c30576040517f08c379a0000000000000000000000000000000000000000000000000000000008152600401610c2790611a23565b60405180910390fd5b610c7b83837f000000000000000000000000000000000000000000000000000000000000000073ffffffffffffffffffffffffffffffffffffffff166112ad9092919063ffffffff16565b600160009054906101000a900473ffffffffffffffffffffffffffffffffffffffff1673ffffffffffffffffffffffffffffffffffffffff1663c2a672e084846040518363ffffffff1660e01b8152600401610cd8929190611922565b600060405180830381600087803b158015610cf257600080fd5b505af1158015610d06573d6000803e3d6000fd5b505050508273ffffffffffffffffffffffffffffffffffffffff167fcd564e3072fb22cf6854bcc03dfae0b11f59a5760430060a8ed620b6672da3ab83604051610d509190611aa3565b60405180910390a281905092915050565b6000600160009054906101000a900473ffffffffffffffffffffffffffffffffffffffff16905090565b60035481565b610d996110cc565b600073ffffffffffffffffffffffffffffffffffffffff168173ffffffffffffffffffffffffffffffffffffffff161415610e09576040517f08c379a0000000000000000000000000000000000000000000000000000000008152600401610e00906119a3565b60405180910390fd5b610e128161114a565b50565b600080600260003373ffffffffffffffffffffffffffffffffffffffff1673ffffffffffffffffffffffffffffffffffffffff16815260200190815260200160002060405180606001604052908160008201548152602001600182015481526020016002820160009054906101000a900460ff1615151515815250509050600260003373ffffffffffffffffffffffffffffffffffffffff1673ffffffffffffffffffffffffffffffffffffffff16815260200190815260200160002060008082016000905560018201600090556002820160006101000a81549060ff02191690555050610f12816000015160045461101e90919063ffffffff16565b600481905550610f673382600001517f000000000000000000000000000000000000000000000000000000000000000073ffffffffffffffffffffffffffffffffffffffff166112ad9092919063ffffffff16565b806000015191505090565b600260003373ffffffffffffffffffffffffffffffffffffffff1673ffffffffffffffffffffffffffffffffffffffff16815260200190815260200160002060020160009054906101000a900460ff1615600260003373ffffffffffffffffffffffffffffffffffffffff1673ffffffffffffffffffffffffffffffffffffffff16815260200190815260200160002060020160006101000a81548160ff021916908315150217905550565b6000818361102c9190611b7d565b905092915050565b60007f000000000000000000000000000000000000000000000000000000000000000073ffffffffffffffffffffffffffffffffffffffff166340c10f1984846040518363ffffffff1660e01b8152600401611091929190611922565b600060405180830381600087803b1580156110ab57600080fd5b505af11580156110bf573d6000803e3d6000fd5b5050505081905092915050565b6110d4611333565b73ffffffffffffffffffffffffffffffffffffffff166110f26105fc565b73ffffffffffffffffffffffffffffffffffffffff1614611148576040517f08c379a000000000000000000000000000000000000000000000000000000000815260040161113f90611a43565b60405180910390fd5b565b60008060009054906101000a900473ffffffffffffffffffffffffffffffffffffffff169050816000806101000a81548173ffffffffffffffffffffffffffffffffffffffff021916908373ffffffffffffffffffffffffffffffffffffffff1602179055508173ffffffffffffffffffffffffffffffffffffffff168173ffffffffffffffffffffffffffffffffffffffff167f8be0079c531659141344cd1fd0a4f28419497f9722a3daafe3b4186f6b6457e060405160405180910390a35050565b611291846323b872dd60e01b85858560405160240161122f939291906118eb565b604051602081830303815290604052907bffffffffffffffffffffffffffffffffffffffffffffffffffffffff19166020820180517bffffffffffffffffffffffffffffffffffffffffffffffffffffffff838183161783525050505061133b565b50505050565b600081836112a59190611b27565b905092915050565b61132e8363a9059cbb60e01b84846040516024016112cc929190611922565b604051602081830303815290604052907bffffffffffffffffffffffffffffffffffffffffffffffffffffffff19166020820180517bffffffffffffffffffffffffffffffffffffffffffffffffffffffff838183161783525050505061133b565b505050565b600033905090565b600061139d826040518060400160405280602081526020017f5361666545524332303a206c6f772d6c6576656c2063616c6c206661696c65648152508573ffffffffffffffffffffffffffffffffffffffff166114029092919063ffffffff16565b90506000815111156113fd57808060200190518101906113bd9190611671565b6113fc576040517f08c379a00000000000000000000000000000000000000000000000000000000081526004016113f390611a83565b60405180910390fd5b5b505050565b6060611411848460008561141a565b90509392505050565b60608247101561145f576040517f08c379a000000000000000000000000000000000000000000000000000000000815260040161145690611a03565b60405180910390fd5b6114688561152e565b6114a7576040517f08c379a000000000000000000000000000000000000000000000000000000000815260040161149e90611a63565b60405180910390fd5b6000808673ffffffffffffffffffffffffffffffffffffffff1685876040516114d091906118b9565b60006040518083038185875af1925050503d806000811461150d576040519150601f19603f3d011682016040523d82523d6000602084013e611512565b606091505b5091509150611522828286611551565b92505050949350505050565b6000808273ffffffffffffffffffffffffffffffffffffffff163b119050919050565b60608315611561578290506115b1565b6000835111156115745782518084602001fd5b816040517f08c379a00000000000000000000000000000000000000000000000000000000081526004016115a89190611981565b60405180910390fd5b9392505050565b6000813590506115c781611ee0565b92915050565b6000815190506115dc81611ef7565b92915050565b6000813590506115f181611f0e565b92915050565b60008151905061160681611f0e565b92915050565b60006020828403121561161e57600080fd5b600061162c848285016115b8565b91505092915050565b6000806040838503121561164857600080fd5b6000611656858286016115b8565b9250506020611667858286016115e2565b9150509250929050565b60006020828403121561168357600080fd5b6000611691848285016115cd565b91505092915050565b6000602082840312156116ac57600080fd5b60006116ba848285016115e2565b91505092915050565b6000602082840312156116d557600080fd5b60006116e3848285016115f7565b91505092915050565b6116f581611bb1565b82525050565b61170481611bc3565b82525050565b600061171582611af5565b61171f8185611b0b565b935061172f818560208601611c41565b80840191505092915050565b61174481611bf9565b82525050565b61175381611c1d565b82525050565b600061176482611b00565b61176e8185611b16565b935061177e818560208601611c41565b61178781611ca3565b840191505092915050565b600061179f602683611b16565b91506117aa82611cb4565b604082019050919050565b60006117c2602883611b16565b91506117cd82611d03565b604082019050919050565b60006117e5602683611b16565b91506117f082611d52565b604082019050919050565b6000611808602683611b16565b915061181382611da1565b604082019050919050565b600061182b602483611b16565b915061183682611df0565b604082019050919050565b600061184e602083611b16565b915061185982611e3f565b602082019050919050565b6000611871601d83611b16565b915061187c82611e68565b602082019050919050565b6000611894602a83611b16565b915061189f82611e91565b604082019050919050565b6118b381611bef565b82525050565b60006118c5828461170a565b915081905092915050565b60006020820190506118e560008301846116ec565b92915050565b600060608201905061190060008301866116ec565b61190d60208301856116ec565b61191a60408301846118aa565b949350505050565b600060408201905061193760008301856116ec565b61194460208301846118aa565b9392505050565b6000602082019050611960600083018461173b565b92915050565b600060208201905061197b600083018461174a565b92915050565b6000602082019050818103600083015261199b8184611759565b905092915050565b600060208201905081810360008301526119bc81611792565b9050919050565b600060208201905081810360008301526119dc816117b5565b9050919050565b600060208201905081810360008301526119fc816117d8565b9050919050565b60006020820190508181036000830152611a1c816117fb565b9050919050565b60006020820190508181036000830152611a3c8161181e565b9050919050565b60006020820190508181036000830152611a5c81611841565b9050919050565b60006020820190508181036000830152611a7c81611864565b9050919050565b60006020820190508181036000830152611a9c81611887565b9050919050565b6000602082019050611ab860008301846118aa565b92915050565b6000606082019050611ad360008301866118aa565b611ae060208301856118aa565b611aed60408301846116fb565b949350505050565b600081519050919050565b600081519050919050565b600081905092915050565b600082825260208201905092915050565b6000611b3282611bef565b9150611b3d83611bef565b9250827fffffffffffffffffffffffffffffffffffffffffffffffffffffffffffffffff03821115611b7257611b71611c74565b5b828201905092915050565b6000611b8882611bef565b9150611b9383611bef565b925082821015611ba657611ba5611c74565b5b828203905092915050565b6000611bbc82611bcf565b9050919050565b60008115159050919050565b600073ffffffffffffffffffffffffffffffffffffffff82169050919050565b6000819050919050565b6000611c0482611c0b565b9050919050565b6000611c1682611bcf565b9050919050565b6000611c2882611c2f565b9050919050565b6000611c3a82611bcf565b9050919050565b60005b83811015611c5f578082015181840152602081019050611c44565b83811115611c6e576000848401525b50505050565b7f4e487b7100000000000000000000000000000000000000000000000000000000600052601160045260246000fd5b6000601f19601f8301169050919050565b7f4f776e61626c653a206e6577206f776e657220697320746865207a65726f206160008201527f6464726573730000000000000000000000000000000000000000000000000000602082015250565b7f45787465726e616c206465706f7369747320666f72206163636f756e7420617260008201527f65206c6f636b6564000000000000000000000000000000000000000000000000602082015250565b7f45787465726e616c20636c61696d7320666f72206163636f756e74206172652060008201527f6c6f636b65640000000000000000000000000000000000000000000000000000602082015250565b7f416464726573733a20696e73756666696369656e742062616c616e636520666f60008201527f722063616c6c0000000000000000000000000000000000000000000000000000602082015250565b7f496e73756666696369656e742042444e2062616c616e636520696e20636f6e7460008201527f7261637400000000000000000000000000000000000000000000000000000000602082015250565b7f4f776e61626c653a2063616c6c6572206973206e6f7420746865206f776e6572600082015250565b7f416464726573733a2063616c6c20746f206e6f6e2d636f6e7472616374000000600082015250565b7f5361666545524332303a204552433230206f7065726174696f6e20646964206e60008201527f6f74207375636365656400000000000000000000000000000000000000000000602082015250565b611ee981611bb1565b8114611ef457600080fd5b50565b611f0081611bc3565b8114611f0b57600080fd5b50565b611f1781611bef565b8114611f2257600080fd5b5056fea2646970667358221220c9ad5f7b1874b5898cb5cefeea0ff49a60676da507c036248d0b1bcf6afc0dfc64736f6c63430008040033",
  "linkReferences": {},
  "deployedLinkReferences": {}
}