{
  "_format": "hh-sol-artifact-1",
  "contractName": "Treasury",
  "sourceName": "contracts/coreContracts/Treasury.sol",
  "abi": [
    {
      "inputs": [
        {
          "internalType": "address",
          "name": "_BDN",
          "type": "address"
        },
        {
          "internalType": "address",
          "name": "_treasuryHelper",
          "type": "address"
        }
      ],
      "stateMutability": "nonpayable",
      "type": "constructor"
    },
    {
      "anonymous": false,
      "inputs": [
        {
          "indexed": true,
          "internalType": "address",
          "name": "debtor",
          "type": "address"
        },
        {
          "indexed": true,
          "internalType": "address",
          "name": "token",
          "type": "address"
        },
        {
          "indexed": false,
          "internalType": "uint256",
          "name": "amount",
          "type": "uint256"
        },
        {
          "indexed": false,
          "internalType": "uint256",
          "name": "value",
          "type": "uint256"
        }
      ],
      "name": "CreateDebt",
      "type": "event"
    },
    {
      "anonymous": false,
      "inputs": [
        {
          "indexed": true,
          "internalType": "address",
          "name": "token",
          "type": "address"
        },
        {
          "indexed": false,
          "internalType": "uint256",
          "name": "amount",
          "type": "uint256"
        },
        {
          "indexed": false,
          "internalType": "uint256",
          "name": "bdnMinted",
          "type": "uint256"
        }
      ],
      "name": "Deposit",
      "type": "event"
    },
    {
      "anonymous": false,
      "inputs": [
        {
          "indexed": true,
          "internalType": "address",
          "name": "previousOwner",
          "type": "address"
        },
        {
          "indexed": true,
          "internalType": "address",
          "name": "newOwner",
          "type": "address"
        }
      ],
      "name": "OwnershipTransferred",
      "type": "event"
    },
    {
      "anonymous": false,
      "inputs": [
        {
          "indexed": true,
          "internalType": "address",
          "name": "debtor",
          "type": "address"
        },
        {
          "indexed": true,
          "internalType": "address",
          "name": "token",
          "type": "address"
        },
        {
          "indexed": false,
          "internalType": "uint256",
          "name": "amount",
          "type": "uint256"
        },
        {
          "indexed": false,
          "internalType": "uint256",
          "name": "value",
          "type": "uint256"
        }
      ],
      "name": "RepayDebt",
      "type": "event"
    },
    {
      "anonymous": false,
      "inputs": [
        {
          "indexed": true,
          "internalType": "address",
          "name": "token",
          "type": "address"
        },
        {
          "indexed": false,
          "internalType": "uint256",
          "name": "amount",
          "type": "uint256"
        }
      ],
      "name": "ReservesManaged",
      "type": "event"
    },
    {
      "anonymous": false,
      "inputs": [
        {
          "indexed": true,
          "internalType": "uint256",
          "name": "totalReserves",
          "type": "uint256"
        }
      ],
      "name": "ReservesUpdated",
      "type": "event"
    },
    {
      "anonymous": false,
      "inputs": [
        {
          "indexed": true,
          "internalType": "address",
          "name": "token",
          "type": "address"
        },
        {
          "indexed": false,
          "internalType": "uint256",
          "name": "amount",
          "type": "uint256"
        },
        {
          "indexed": false,
          "internalType": "uint256",
          "name": "bdnBurned",
          "type": "uint256"
        }
      ],
      "name": "Withdrawal",
      "type": "event"
    },
    {
      "inputs": [],
      "name": "BDN",
      "outputs": [
        {
          "internalType": "address",
          "name": "",
          "type": "address"
        }
      ],
      "stateMutability": "view",
      "type": "function"
    },
    {
      "inputs": [
        {
          "internalType": "address",
          "name": "_token",
          "type": "address"
        },
        {
          "internalType": "address",
          "name": "_liquidityBond",
          "type": "address"
        }
      ],
      "name": "addLiquidityBond",
      "outputs": [],
      "stateMutability": "nonpayable",
      "type": "function"
    },
    {
      "inputs": [],
      "name": "auditOwner",
      "outputs": [
        {
          "internalType": "address",
          "name": "",
          "type": "address"
        }
      ],
      "stateMutability": "view",
      "type": "function"
    },
    {
      "inputs": [
        {
          "internalType": "uint256",
          "name": "_amount",
          "type": "uint256"
        }
      ],
      "name": "bdnEqValue",
      "outputs": [
        {
          "internalType": "uint256",
          "name": "value_",
          "type": "uint256"
        }
      ],
      "stateMutability": "view",
      "type": "function"
    },
    {
      "inputs": [
        {
          "internalType": "address",
          "name": "",
          "type": "address"
        }
      ],
      "name": "bondCalculator",
      "outputs": [
        {
          "internalType": "address",
          "name": "",
          "type": "address"
        }
      ],
      "stateMutability": "view",
      "type": "function"
    },
    {
      "inputs": [
        {
          "internalType": "address",
          "name": "",
          "type": "address"
        }
      ],
      "name": "debtorBalance",
      "outputs": [
        {
          "internalType": "uint256",
          "name": "",
          "type": "uint256"
        }
      ],
      "stateMutability": "view",
      "type": "function"
    },
    {
      "inputs": [
        {
          "internalType": "uint256",
          "name": "_amount",
          "type": "uint256"
        },
        {
          "internalType": "address",
          "name": "_token",
          "type": "address"
        },
        {
          "internalType": "uint256",
          "name": "_bdnAmount",
          "type": "uint256"
        }
      ],
      "name": "deposit",
      "outputs": [],
      "stateMutability": "nonpayable",
      "type": "function"
    },
    {
      "inputs": [
        {
          "internalType": "address",
          "name": "_token",
          "type": "address"
        },
        {
          "internalType": "uint256",
          "name": "_amount",
          "type": "uint256"
        }
      ],
      "name": "manage",
      "outputs": [],
      "stateMutability": "nonpayable",
      "type": "function"
    },
    {
      "inputs": [],
      "name": "owner",
      "outputs": [
        {
          "internalType": "address",
          "name": "",
          "type": "address"
        }
      ],
      "stateMutability": "view",
      "type": "function"
    },
    {
      "inputs": [
        {
          "internalType": "address",
          "name": "_liquidityBond",
          "type": "address"
        }
      ],
      "name": "removeLiquidityBond",
      "outputs": [],
      "stateMutability": "nonpayable",
      "type": "function"
    },
    {
      "inputs": [],
      "name": "renounceOwnership",
      "outputs": [],
      "stateMutability": "nonpayable",
      "type": "function"
    },
    {
      "inputs": [],
      "name": "sBDN",
      "outputs": [
        {
          "internalType": "address",
          "name": "",
          "type": "address"
        }
      ],
      "stateMutability": "view",
      "type": "function"
    },
    {
      "inputs": [
        {
          "internalType": "address",
          "name": "_sBDN",
          "type": "address"
        }
      ],
      "name": "setStakedBDN",
      "outputs": [],
      "stateMutability": "nonpayable",
      "type": "function"
    },
    {
      "inputs": [
        {
          "internalType": "address",
          "name": "_tavCalculator",
          "type": "address"
        }
      ],
      "name": "setTAVCalculator",
      "outputs": [],
      "stateMutability": "nonpayable",
      "type": "function"
    },
    {
      "inputs": [],
      "name": "tavCalculator",
      "outputs": [
        {
          "internalType": "address",
          "name": "",
          "type": "address"
        }
      ],
      "stateMutability": "view",
      "type": "function"
    },
    {
      "inputs": [],
      "name": "totalBDNMinted",
      "outputs": [
        {
          "internalType": "uint256",
          "name": "",
          "type": "uint256"
        }
      ],
      "stateMutability": "view",
      "type": "function"
    },
    {
      "inputs": [],
      "name": "totalReserves",
      "outputs": [
        {
          "internalType": "uint256",
          "name": "",
          "type": "uint256"
        }
      ],
      "stateMutability": "view",
      "type": "function"
    },
    {
      "inputs": [
        {
          "internalType": "address",
          "name": "newOwner",
          "type": "address"
        }
      ],
      "name": "transferOwnership",
      "outputs": [],
      "stateMutability": "nonpayable",
      "type": "function"
    },
    {
      "inputs": [],
      "name": "treasuryHelper",
      "outputs": [
        {
          "internalType": "address",
          "name": "",
          "type": "address"
        }
      ],
      "stateMutability": "view",
      "type": "function"
    },
    {
      "inputs": [
        {
          "internalType": "address",
          "name": "_token",
          "type": "address"
        },
        {
          "internalType": "uint256",
          "name": "_amount",
          "type": "uint256"
        },
        {
          "internalType": "bool",
          "name": "isReserveToken",
          "type": "bool"
        },
        {
          "internalType": "bool",
          "name": "isLiquidToken",
          "type": "bool"
        }
      ],
      "name": "valueOfToken",
      "outputs": [
        {
          "internalType": "uint256",
          "name": "",
          "type": "uint256"
        }
      ],
      "stateMutability": "view",
      "type": "function"
    },
    {
      "inputs": [
        {
          "internalType": "uint256",
          "name": "_amount",
          "type": "uint256"
        },
        {
          "internalType": "address",
          "name": "_token",
          "type": "address"
        }
      ],
      "name": "withdraw",
      "outputs": [],
      "stateMutability": "nonpayable",
      "type": "function"
    }
  ],
  "bytecode": "0x60a06040523480156200001157600080fd5b50604051620032b4380380620032b4833981810160405281019062000037919062000230565b620000576200004b6200014d60201b60201c565b6200015560201b60201c565b600073ffffffffffffffffffffffffffffffffffffffff168273ffffffffffffffffffffffffffffffffffffffff1614156200009257600080fd5b8173ffffffffffffffffffffffffffffffffffffffff1660808173ffffffffffffffffffffffffffffffffffffffff1660601b81525050600073ffffffffffffffffffffffffffffffffffffffff168173ffffffffffffffffffffffffffffffffffffffff1614156200010457600080fd5b80600360006101000a81548173ffffffffffffffffffffffffffffffffffffffff021916908373ffffffffffffffffffffffffffffffffffffffff1602179055505050620002bf565b600033905090565b60008060009054906101000a900473ffffffffffffffffffffffffffffffffffffffff169050816000806101000a81548173ffffffffffffffffffffffffffffffffffffffff021916908373ffffffffffffffffffffffffffffffffffffffff1602179055508173ffffffffffffffffffffffffffffffffffffffff168173ffffffffffffffffffffffffffffffffffffffff167f8be0079c531659141344cd1fd0a4f28419497f9722a3daafe3b4186f6b6457e060405160405180910390a35050565b6000815190506200022a81620002a5565b92915050565b600080604083850312156200024457600080fd5b6000620002548582860162000219565b9250506020620002678582860162000219565b9150509250929050565b60006200027e8262000285565b9050919050565b600073ffffffffffffffffffffffffffffffffffffffff82169050919050565b620002b08162000271565b8114620002bc57600080fd5b50565b60805160601c612fc1620002f36000396000818161062f01528181610d1b015281816111f501526114a60152612fc16000f3fe608060405234801561001057600080fd5b50600436106101365760003560e01c80637f2b8b0f116100b8578063c045cfe01161007c578063c045cfe014610301578063de317e6f14610331578063e0875e321461034f578063f20796231461036d578063f2fde38b1461039d578063fb87b272146103b957610136565b80637f2b8b0f1461026f5780638da5cb5b1461028d5780638f840ddd146102ab5780639d5c9e8d146102c9578063bc157ac1146102e557610136565b8063649ad014116100ff578063649ad014146101f157806367db67ba1461020d578063715018a614610229578063764b4b2f1461023357806379cdf6201461025157610136565b8062f714ce1461013b578063094a8651146101575780630b0eee30146101875780631af4da70146101a35780631fe8aac5146101d3575b600080fd5b61015560048036038101906101509190612403565b6103d5565b005b610171600480360381019061016c9190612284565b61073b565b60405161017e91906128d4565b60405180910390f35b6101a1600480360381019061019c91906122e9565b610753565b005b6101bd60048036038101906101b89190612284565b610b6d565b6040516101ca91906126d7565b60405180910390f35b6101db610ba0565b6040516101e891906126d7565b60405180910390f35b61020b60048036038101906102069190612284565b610bc6565b005b61022760048036038101906102229190612284565b610c4c565b005b610231610cb9565b005b61023b610ccd565b60405161024891906126d7565b60405180910390f35b610259610cf3565b60405161026691906126d7565b60405180910390f35b610277610d19565b60405161028491906126d7565b60405180910390f35b610295610d3d565b6040516102a291906126d7565b60405180910390f35b6102b3610d66565b6040516102c091906128d4565b60405180910390f35b6102e360048036038101906102de91906122ad565b610d70565b005b6102ff60048036038101906102fa919061243f565b610dfa565b005b61031b600480360381019061031691906123b1565b611307565b60405161032891906128d4565b60405180910390f35b6103396113dc565b60405161034691906126d7565b60405180910390f35b610357611402565b60405161036491906128d4565b60405180910390f35b61038760048036038101906103829190612325565b61140c565b60405161039491906128d4565b60405180910390f35b6103b760048036038101906103b29190612284565b611676565b005b6103d360048036038101906103ce9190612284565b6116fa565b005b600360009054906101000a900473ffffffffffffffffffffffffffffffffffffffff1673ffffffffffffffffffffffffffffffffffffffff166368c31dd5826040518263ffffffff1660e01b815260040161043091906126d7565b60206040518083038186803b15801561044857600080fd5b505afa15801561045c573d6000803e3d6000fd5b505050506040513d601f19601f820116820180604052508101906104809190612388565b6104bf576040517f08c379a00000000000000000000000000000000000000000000000000000000081526004016104b690612874565b60405180910390fd5b600360009054906101000a900473ffffffffffffffffffffffffffffffffffffffff1673ffffffffffffffffffffffffffffffffffffffff166387d67dff336040518263ffffffff1660e01b815260040161051a91906126d7565b60206040518083038186803b15801561053257600080fd5b505afa158015610546573d6000803e3d6000fd5b505050506040513d601f19601f8201168201806040525081019061056a9190612388565b6105a9576040517f08c379a00000000000000000000000000000000000000000000000000000000081526004016105a090612794565b60405180910390fd5b60006105b982846001600061140c565b905060006105c682611307565b90506105dd8160085461174690919063ffffffff16565b6008819055506105f88260075461174690919063ffffffff16565b6007819055506007547f93bb8edd35984706eee1b92541281f7f62d33c01c5b2ec0929a113603bd21d6660405160405180910390a27f000000000000000000000000000000000000000000000000000000000000000073ffffffffffffffffffffffffffffffffffffffff166379cc679033836040518363ffffffff1660e01b8152600401610688929190612729565b600060405180830381600087803b1580156106a257600080fd5b505af11580156106b6573d6000803e3d6000fd5b505050506106e533858573ffffffffffffffffffffffffffffffffffffffff1661175c9092919063ffffffff16565b8273ffffffffffffffffffffffffffffffffffffffff167fdf273cb619d95419a9cd0ec88123a0538c85064229baa6363788f743fff90deb858360405161072d9291906128ef565b60405180910390a250505050565b60066020528060005260406000206000915090505481565b6000600360009054906101000a900473ffffffffffffffffffffffffffffffffffffffff1673ffffffffffffffffffffffffffffffffffffffff1663a569e571846040518263ffffffff1660e01b81526004016107b091906126d7565b60206040518083038186803b1580156107c857600080fd5b505afa1580156107dc573d6000803e3d6000fd5b505050506040513d601f19601f820116820180604052508101906108009190612388565b90506000600360009054906101000a900473ffffffffffffffffffffffffffffffffffffffff1673ffffffffffffffffffffffffffffffffffffffff166368c31dd5856040518263ffffffff1660e01b815260040161085f91906126d7565b60206040518083038186803b15801561087757600080fd5b505afa15801561088b573d6000803e3d6000fd5b505050506040513d601f19601f820116820180604052508101906108af9190612388565b905081156109a257600360009054906101000a900473ffffffffffffffffffffffffffffffffffffffff1673ffffffffffffffffffffffffffffffffffffffff1663df89b344336040518263ffffffff1660e01b815260040161091291906126d7565b60206040518083038186803b15801561092a57600080fd5b505afa15801561093e573d6000803e3d6000fd5b505050506040513d601f19601f820116820180604052508101906109629190612388565b6109a1576040517f08c379a000000000000000000000000000000000000000000000000000000000815260040161099890612794565b60405180910390fd5b5b8015610a9357600360009054906101000a900473ffffffffffffffffffffffffffffffffffffffff1673ffffffffffffffffffffffffffffffffffffffff1663ebd83cd8336040518263ffffffff1660e01b8152600401610a0391906126d7565b60206040518083038186803b158015610a1b57600080fd5b505afa158015610a2f573d6000803e3d6000fd5b505050506040513d601f19601f82011682018060405250810190610a539190612388565b610a92576040517f08c379a0000000000000000000000000000000000000000000000000000000008152600401610a8990612794565b60405180910390fd5b5b6000610aa18585848661140c565b9050610ab88160075461174690919063ffffffff16565b6007819055506007547f93bb8edd35984706eee1b92541281f7f62d33c01c5b2ec0929a113603bd21d6660405160405180910390a2610b1833858773ffffffffffffffffffffffffffffffffffffffff1661175c9092919063ffffffff16565b8473ffffffffffffffffffffffffffffffffffffffff167f2bb2640731848fe9820ba48dbc978c1fc9bbd5f11b948bfab05b7dee3378fd8085604051610b5e91906128d4565b60405180910390a25050505050565b60056020528060005260406000206000915054906101000a900473ffffffffffffffffffffffffffffffffffffffff1681565b600460009054906101000a900473ffffffffffffffffffffffffffffffffffffffff1681565b610bce6117e2565b600073ffffffffffffffffffffffffffffffffffffffff168173ffffffffffffffffffffffffffffffffffffffff161415610c0857600080fd5b80600160006101000a81548173ffffffffffffffffffffffffffffffffffffffff021916908373ffffffffffffffffffffffffffffffffffffffff16021790555050565b610c546117e2565b600560008273ffffffffffffffffffffffffffffffffffffffff1673ffffffffffffffffffffffffffffffffffffffff16815260200190815260200160002060006101000a81549073ffffffffffffffffffffffffffffffffffffffff021916905550565b610cc16117e2565b610ccb6000611860565b565b600160009054906101000a900473ffffffffffffffffffffffffffffffffffffffff1681565b600260009054906101000a900473ffffffffffffffffffffffffffffffffffffffff1681565b7f000000000000000000000000000000000000000000000000000000000000000081565b60008060009054906101000a900473ffffffffffffffffffffffffffffffffffffffff16905090565b6000600754905090565b610d786117e2565b80600560008473ffffffffffffffffffffffffffffffffffffffff1673ffffffffffffffffffffffffffffffffffffffff16815260200190815260200160002060006101000a81548173ffffffffffffffffffffffffffffffffffffffff021916908373ffffffffffffffffffffffffffffffffffffffff1602179055505050565b6000600360009054906101000a900473ffffffffffffffffffffffffffffffffffffffff1673ffffffffffffffffffffffffffffffffffffffff166368c31dd5846040518263ffffffff1660e01b8152600401610e5791906126d7565b60206040518083038186803b158015610e6f57600080fd5b505afa158015610e83573d6000803e3d6000fd5b505050506040513d601f19601f82011682018060405250810190610ea79190612388565b90506000600360009054906101000a900473ffffffffffffffffffffffffffffffffffffffff1673ffffffffffffffffffffffffffffffffffffffff1663a569e571856040518263ffffffff1660e01b8152600401610f0691906126d7565b60206040518083038186803b158015610f1e57600080fd5b505afa158015610f32573d6000803e3d6000fd5b505050506040513d601f19601f82011682018060405250810190610f569190612388565b90508180610f615750805b610fa0576040517f08c379a0000000000000000000000000000000000000000000000000000000008152600401610f9790612874565b60405180910390fd5b811561109557600360009054906101000a900473ffffffffffffffffffffffffffffffffffffffff1673ffffffffffffffffffffffffffffffffffffffff1663124154ca336040518263ffffffff1660e01b815260040161100191906126d7565b60206040518083038186803b15801561101957600080fd5b505afa15801561102d573d6000803e3d6000fd5b505050506040513d601f19601f820116820180604052508101906110519190612388565b611090576040517f08c379a0000000000000000000000000000000000000000000000000000000008152600401611087906127f4565b60405180910390fd5b611180565b600360009054906101000a900473ffffffffffffffffffffffffffffffffffffffff1673ffffffffffffffffffffffffffffffffffffffff1663a1210a2d336040518263ffffffff1660e01b81526004016110f091906126d7565b60206040518083038186803b15801561110857600080fd5b505afa15801561111c573d6000803e3d6000fd5b505050506040513d601f19601f820116820180604052508101906111409190612388565b61117f576040517f08c379a0000000000000000000000000000000000000000000000000000000008152600401611176906127f4565b60405180910390fd5b5b600061118e8587858561140c565b90506111a58160075461192490919063ffffffff16565b6007819055506111c08460085461192490919063ffffffff16565b6008819055506111f33330888873ffffffffffffffffffffffffffffffffffffffff1661193a909392919063ffffffff16565b7f000000000000000000000000000000000000000000000000000000000000000073ffffffffffffffffffffffffffffffffffffffff166340c10f1933866040518363ffffffff1660e01b815260040161124e929190612729565b600060405180830381600087803b15801561126857600080fd5b505af115801561127c573d6000803e3d6000fd5b505050506007547f93bb8edd35984706eee1b92541281f7f62d33c01c5b2ec0929a113603bd21d6660405160405180910390a28473ffffffffffffffffffffffffffffffffffffffff167f90890809c654f11d6e72a28fa60149770a0d11ec6c92319d6ceb2bb0a4ea1a1587866040516112f79291906128ef565b60405180910390a2505050505050565b6000806113c0633b9aca00600260009054906101000a900473ffffffffffffffffffffffffffffffffffffffff1673ffffffffffffffffffffffffffffffffffffffff1663ac3b992a6040518163ffffffff1660e01b815260040160206040518083038186803b15801561137a57600080fd5b505afa15801561138e573d6000803e3d6000fd5b505050506040513d601f19601f820116820180604052508101906113b291906123da565b6119c390919063ffffffff16565b90506113d46113cf84836119d9565b611be0565b915050919050565b600360009054906101000a900473ffffffffffffffffffffffffffffffffffffffff1681565b6000600854905090565b600082156115725761156b8573ffffffffffffffffffffffffffffffffffffffff1663313ce5676040518163ffffffff1660e01b815260040160206040518083038186803b15801561145d57600080fd5b505afa158015611471573d6000803e3d6000fd5b505050506040513d601f19601f82011682018060405250810190611495919061248e565b600a6114a19190612a24565b61155d7f000000000000000000000000000000000000000000000000000000000000000073ffffffffffffffffffffffffffffffffffffffff1663313ce5676040518163ffffffff1660e01b815260040160206040518083038186803b15801561150a57600080fd5b505afa15801561151e573d6000803e3d6000fd5b505050506040513d601f19601f82011682018060405250810190611542919061248e565b600a61154e9190612a24565b876119c390919063ffffffff16565b611c1e90919063ffffffff16565b905061166e565b811561166957600560008673ffffffffffffffffffffffffffffffffffffffff1673ffffffffffffffffffffffffffffffffffffffff16815260200190815260200160002060009054906101000a900473ffffffffffffffffffffffffffffffffffffffff1673ffffffffffffffffffffffffffffffffffffffff16634249719f86866040518363ffffffff1660e01b8152600401611612929190612729565b60206040518083038186803b15801561162a57600080fd5b505afa15801561163e573d6000803e3d6000fd5b505050506040513d601f19601f8201168201806040525081019061166291906123da565b905061166e565b600090505b949350505050565b61167e6117e2565b600073ffffffffffffffffffffffffffffffffffffffff168173ffffffffffffffffffffffffffffffffffffffff1614156116ee576040517f08c379a00000000000000000000000000000000000000000000000000000000081526004016116e590612774565b60405180910390fd5b6116f781611860565b50565b6117026117e2565b80600260006101000a81548173ffffffffffffffffffffffffffffffffffffffff021916908373ffffffffffffffffffffffffffffffffffffffff16021790555050565b600081836117549190612b9c565b905092915050565b6117dd8363a9059cbb60e01b848460405160240161177b929190612729565b604051602081830303815290604052907bffffffffffffffffffffffffffffffffffffffffffffffffffffffff19166020820180517bffffffffffffffffffffffffffffffffffffffffffffffffffffffff8381831617835250505050611c34565b505050565b6117ea611cfb565b73ffffffffffffffffffffffffffffffffffffffff16611808610d3d565b73ffffffffffffffffffffffffffffffffffffffff161461185e576040517f08c379a000000000000000000000000000000000000000000000000000000000815260040161185590612834565b60405180910390fd5b565b60008060009054906101000a900473ffffffffffffffffffffffffffffffffffffffff169050816000806101000a81548173ffffffffffffffffffffffffffffffffffffffff021916908373ffffffffffffffffffffffffffffffffffffffff1602179055508173ffffffffffffffffffffffffffffffffffffffff168173ffffffffffffffffffffffffffffffffffffffff167f8be0079c531659141344cd1fd0a4f28419497f9722a3daafe3b4186f6b6457e060405160405180910390a35050565b60008183611932919061294a565b905092915050565b6119bd846323b872dd60e01b85858560405160240161195b939291906126f2565b604051602081830303815290604052907bffffffffffffffffffffffffffffffffffffffffffffffffffffffff19166020820180517bffffffffffffffffffffffffffffffffffffffffffffffffffffffff8381831617835250505050611c34565b50505050565b600081836119d19190612b42565b905092915050565b6119e16121d5565b60008211611a24576040517f08c379a0000000000000000000000000000000000000000000000000000000008152600401611a1b906127d4565b60405180910390fd5b6000831415611a6257604051806020016040528060007bffffffffffffffffffffffffffffffffffffffffffffffffffffffff168152509050611bda565b71ffffffffffffffffffffffffffffffffffff80168311611b2a57600082607060ff1685901b611a9291906129a0565b90507bffffffffffffffffffffffffffffffffffffffffffffffffffffffff8016811115611af5576040517f08c379a0000000000000000000000000000000000000000000000000000000008152600401611aec90612854565b60405180910390fd5b6040518060200160405280827bffffffffffffffffffffffffffffffffffffffffffffffffffffffff16815250915050611bda565b6000611b46846e01000000000000000000000000000085611d03565b90507bffffffffffffffffffffffffffffffffffffffffffffffffffffffff8016811115611ba9576040517f08c379a0000000000000000000000000000000000000000000000000000000008152600401611ba090612854565b60405180910390fd5b6040518060200160405280827bffffffffffffffffffffffffffffffffffffffffffffffffffffffff168152509150505b92915050565b60006612725dd1d243ab82600001517bffffffffffffffffffffffffffffffffffffffffffffffffffffffff16611c1791906129a0565b9050919050565b60008183611c2c91906129a0565b905092915050565b6000611c96826040518060400160405280602081526020017f5361666545524332303a206c6f772d6c6576656c2063616c6c206661696c65648152508573ffffffffffffffffffffffffffffffffffffffff16611dd19092919063ffffffff16565b9050600081511115611cf65780806020019051810190611cb69190612388565b611cf5576040517f08c379a0000000000000000000000000000000000000000000000000000000008152600401611cec906128b4565b60405180910390fd5b5b505050565b600033905090565b6000806000611d128686611de9565b9150915060008480611d4d577f4e487b7100000000000000000000000000000000000000000000000000000000600052601260045260246000fd5b868809905082811115611d6a57600182611d679190612b9c565b91505b8083611d769190612b9c565b9250848210611dba576040517f08c379a0000000000000000000000000000000000000000000000000000000008152600401611db190612814565b60405180910390fd5b611dc5838387611e84565b93505050509392505050565b6060611de08484600085612037565b90509392505050565b60008060007fffffffffffffffffffffffffffffffffffffffffffffffffffffffffffffffff80611e43577f4e487b7100000000000000000000000000000000000000000000000000000000600052601260045260246000fd5b84860990508385611e549190612b42565b92508281611e629190612b9c565b915082811015611e7c57600182611e799190612b9c565b91505b509250929050565b60008060018319611e95919061294a565b831690508083611ea591906129a0565b92508085611eb391906129a0565b945060018160018319611ec6919061294a565b611ed091906129a0565b611eda919061294a565b84611ee59190612b42565b85611ef0919061294a565b94506000600190508084611f049190612b42565b6002611f109190612b9c565b81611f1b9190612b42565b90508084611f299190612b42565b6002611f359190612b9c565b81611f409190612b42565b90508084611f4e9190612b42565b6002611f5a9190612b9c565b81611f659190612b42565b90508084611f739190612b42565b6002611f7f9190612b9c565b81611f8a9190612b42565b90508084611f989190612b42565b6002611fa49190612b9c565b81611faf9190612b42565b90508084611fbd9190612b42565b6002611fc99190612b9c565b81611fd49190612b42565b90508084611fe29190612b42565b6002611fee9190612b9c565b81611ff99190612b42565b905080846120079190612b42565b60026120139190612b9c565b8161201e9190612b42565b9050808661202c9190612b42565b925050509392505050565b60608247101561207c576040517f08c379a0000000000000000000000000000000000000000000000000000000008152600401612073906127b4565b60405180910390fd5b6120858561214b565b6120c4576040517f08c379a00000000000000000000000000000000000000000000000000000000081526004016120bb90612894565b60405180910390fd5b6000808673ffffffffffffffffffffffffffffffffffffffff1685876040516120ed91906126c0565b60006040518083038185875af1925050503d806000811461212a576040519150601f19603f3d011682016040523d82523d6000602084013e61212f565b606091505b509150915061213f82828661216e565b92505050949350505050565b6000808273ffffffffffffffffffffffffffffffffffffffff163b119050919050565b6060831561217e578290506121ce565b6000835111156121915782518084602001fd5b816040517f08c379a00000000000000000000000000000000000000000000000000000000081526004016121c59190612752565b60405180910390fd5b9392505050565b604051806020016040528060007bffffffffffffffffffffffffffffffffffffffffffffffffffffffff1681525090565b60008135905061221581612f2f565b92915050565b60008135905061222a81612f46565b92915050565b60008151905061223f81612f46565b92915050565b60008135905061225481612f5d565b92915050565b60008151905061226981612f5d565b92915050565b60008151905061227e81612f74565b92915050565b60006020828403121561229657600080fd5b60006122a484828501612206565b91505092915050565b600080604083850312156122c057600080fd5b60006122ce85828601612206565b92505060206122df85828601612206565b9150509250929050565b600080604083850312156122fc57600080fd5b600061230a85828601612206565b925050602061231b85828601612245565b9150509250929050565b6000806000806080858703121561233b57600080fd5b600061234987828801612206565b945050602061235a87828801612245565b935050604061236b8782880161221b565b925050606061237c8782880161221b565b91505092959194509250565b60006020828403121561239a57600080fd5b60006123a884828501612230565b91505092915050565b6000602082840312156123c357600080fd5b60006123d184828501612245565b91505092915050565b6000602082840312156123ec57600080fd5b60006123fa8482850161225a565b91505092915050565b6000806040838503121561241657600080fd5b600061242485828601612245565b925050602061243585828601612206565b9150509250929050565b60008060006060848603121561245457600080fd5b600061246286828701612245565b935050602061247386828701612206565b925050604061248486828701612245565b9150509250925092565b6000602082840312156124a057600080fd5b60006124ae8482850161226f565b91505092915050565b6124c081612bd0565b82525050565b60006124d182612918565b6124db818561292e565b93506124eb818560208601612c25565b80840191505092915050565b600061250282612923565b61250c8185612939565b935061251c818560208601612c25565b61252581612cb6565b840191505092915050565b600061253d602683612939565b915061254882612cd4565b604082019050919050565b6000612560600983612939565b915061256b82612d23565b602082019050919050565b6000612583602683612939565b915061258e82612d4c565b604082019050919050565b60006125a6602683612939565b91506125b182612d9b565b604082019050919050565b60006125c9600983612939565b91506125d482612dea565b602082019050919050565b60006125ec601a83612939565b91506125f782612e13565b602082019050919050565b600061260f602083612939565b915061261a82612e3c565b602082019050919050565b6000612632601e83612939565b915061263d82612e65565b602082019050919050565b6000612655600283612939565b915061266082612e8e565b602082019050919050565b6000612678601d83612939565b915061268382612eb7565b602082019050919050565b600061269b602a83612939565b91506126a682612ee0565b604082019050919050565b6126ba81612c0e565b82525050565b60006126cc82846124c6565b915081905092915050565b60006020820190506126ec60008301846124b7565b92915050565b600060608201905061270760008301866124b7565b61271460208301856124b7565b61272160408301846126b1565b949350505050565b600060408201905061273e60008301856124b7565b61274b60208301846126b1565b9392505050565b6000602082019050818103600083015261276c81846124f7565b905092915050565b6000602082019050818103600083015261278d81612530565b9050919050565b600060208201905081810360008301526127ad81612553565b9050919050565b600060208201905081810360008301526127cd81612576565b9050919050565b600060208201905081810360008301526127ed81612599565b9050919050565b6000602082019050818103600083015261280d816125bc565b9050919050565b6000602082019050818103600083015261282d816125df565b9050919050565b6000602082019050818103600083015261284d81612602565b9050919050565b6000602082019050818103600083015261286d81612625565b9050919050565b6000602082019050818103600083015261288d81612648565b9050919050565b600060208201905081810360008301526128ad8161266b565b9050919050565b600060208201905081810360008301526128cd8161268e565b9050919050565b60006020820190506128e960008301846126b1565b92915050565b600060408201905061290460008301856126b1565b61291160208301846126b1565b9392505050565b600081519050919050565b600081519050919050565b600081905092915050565b600082825260208201905092915050565b600061295582612c0e565b915061296083612c0e565b9250827fffffffffffffffffffffffffffffffffffffffffffffffffffffffffffffffff0382111561299557612994612c58565b5b828201905092915050565b60006129ab82612c0e565b91506129b683612c0e565b9250826129c6576129c5612c87565b5b828204905092915050565b6000808291508390505b6001851115612a1b578086048111156129f7576129f6612c58565b5b6001851615612a065780820291505b8081029050612a1485612cc7565b94506129db565b94509492505050565b6000612a2f82612c0e565b9150612a3a83612c18565b9250612a677fffffffffffffffffffffffffffffffffffffffffffffffffffffffffffffffff8484612a6f565b905092915050565b600082612a7f5760019050612b3b565b81612a8d5760009050612b3b565b8160018114612aa35760028114612aad57612adc565b6001915050612b3b565b60ff841115612abf57612abe612c58565b5b8360020a915084821115612ad657612ad5612c58565b5b50612b3b565b5060208310610133831016604e8410600b8410161715612b115782820a905083811115612b0c57612b0b612c58565b5b612b3b565b612b1e84848460016129d1565b92509050818404811115612b3557612b34612c58565b5b81810290505b9392505050565b6000612b4d82612c0e565b9150612b5883612c0e565b9250817fffffffffffffffffffffffffffffffffffffffffffffffffffffffffffffffff0483118215151615612b9157612b90612c58565b5b828202905092915050565b6000612ba782612c0e565b9150612bb283612c0e565b925082821015612bc557612bc4612c58565b5b828203905092915050565b6000612bdb82612bee565b9050919050565b60008115159050919050565b600073ffffffffffffffffffffffffffffffffffffffff82169050919050565b6000819050919050565b600060ff82169050919050565b60005b83811015612c43578082015181840152602081019050612c28565b83811115612c52576000848401525b50505050565b7f4e487b7100000000000000000000000000000000000000000000000000000000600052601160045260246000fd5b7f4e487b7100000000000000000000000000000000000000000000000000000000600052601260045260246000fd5b6000601f19601f8301169050919050565b60008160011c9050919050565b7f4f776e61626c653a206e6577206f776e657220697320746865207a65726f206160008201527f6464726573730000000000000000000000000000000000000000000000000000602082015250565b7f4e417070726f7665640000000000000000000000000000000000000000000000600082015250565b7f416464726573733a20696e73756666696369656e742062616c616e636520666f60008201527f722063616c6c0000000000000000000000000000000000000000000000000000602082015250565b7f4669786564506f696e743a3a6672616374696f6e3a206469766973696f6e206260008201527f79207a65726f0000000000000000000000000000000000000000000000000000602082015250565b7f4e415050524f5645440000000000000000000000000000000000000000000000600082015250565b7f46756c6c4d6174683a3a6d756c4469763a206f766572666c6f77000000000000600082015250565b7f4f776e61626c653a2063616c6c6572206973206e6f7420746865206f776e6572600082015250565b7f4669786564506f696e743a3a6672616374696f6e3a206f766572666c6f770000600082015250565b7f4e41000000000000000000000000000000000000000000000000000000000000600082015250565b7f416464726573733a2063616c6c20746f206e6f6e2d636f6e7472616374000000600082015250565b7f5361666545524332303a204552433230206f7065726174696f6e20646964206e60008201527f6f74207375636365656400000000000000000000000000000000000000000000602082015250565b612f3881612bd0565b8114612f4357600080fd5b50565b612f4f81612be2565b8114612f5a57600080fd5b50565b612f6681612c0e565b8114612f7157600080fd5b50565b612f7d81612c18565b8114612f8857600080fd5b5056fea264697066735822122050ecc8f95d135f26caef4ca875fea49ebdf03eb8f3e0c1d7ede5e53742fc513864736f6c63430008040033",
  "linkReferences": {},
  "deployedLinkReferences": {}
}