{
  "_format": "hh-sol-artifact-1",
  "contractName": "TreasuryHelper",
  "sourceName": "contracts/coreContracts/TreasuryHelper.sol",
  "abi": [
    {
      "inputs": [
        {
          "internalType": "address",
          "name": "_BDN",
          "type": "address"
        },
        {
          "internalType": "address",
          "name": "_MIM",
          "type": "address"
        },
        {
          "internalType": "uint256",
          "name": "_blocksNeededForQueue",
          "type": "uint256"
        }
      ],
      "stateMutability": "nonpayable",
      "type": "constructor"
    },
    {
      "anonymous": false,
      "inputs": [
        {
          "indexed": true,
          "internalType": "enum TreasuryHelper.MANAGING",
          "name": "managing",
          "type": "uint8"
        },
        {
          "indexed": false,
          "internalType": "address",
          "name": "activated",
          "type": "address"
        },
        {
          "indexed": false,
          "internalType": "bool",
          "name": "result",
          "type": "bool"
        }
      ],
      "name": "ChangeActivated",
      "type": "event"
    },
    {
      "anonymous": false,
      "inputs": [
        {
          "indexed": true,
          "internalType": "enum TreasuryHelper.MANAGING",
          "name": "managing",
          "type": "uint8"
        },
        {
          "indexed": false,
          "internalType": "address",
          "name": "queued",
          "type": "address"
        }
      ],
      "name": "ChangeQueued",
      "type": "event"
    },
    {
      "anonymous": false,
      "inputs": [
        {
          "indexed": true,
          "internalType": "address",
          "name": "previousOwner",
          "type": "address"
        },
        {
          "indexed": true,
          "internalType": "address",
          "name": "newOwner",
          "type": "address"
        }
      ],
      "name": "OwnershipTransferred",
      "type": "event"
    },
    {
      "anonymous": false,
      "inputs": [
        {
          "indexed": true,
          "internalType": "uint256",
          "name": "totalReserves",
          "type": "uint256"
        }
      ],
      "name": "ReservesAudited",
      "type": "event"
    },
    {
      "anonymous": false,
      "inputs": [
        {
          "indexed": true,
          "internalType": "uint256",
          "name": "totalReserves",
          "type": "uint256"
        }
      ],
      "name": "ReservesUpdated",
      "type": "event"
    },
    {
      "inputs": [],
      "name": "BDN",
      "outputs": [
        {
          "internalType": "address",
          "name": "",
          "type": "address"
        }
      ],
      "stateMutability": "view",
      "type": "function"
    },
    {
      "inputs": [
        {
          "internalType": "address",
          "name": "",
          "type": "address"
        }
      ],
      "name": "LiquidityDepositorQueue",
      "outputs": [
        {
          "internalType": "uint256",
          "name": "",
          "type": "uint256"
        }
      ],
      "stateMutability": "view",
      "type": "function"
    },
    {
      "inputs": [
        {
          "internalType": "address",
          "name": "",
          "type": "address"
        }
      ],
      "name": "LiquidityManagerQueue",
      "outputs": [
        {
          "internalType": "uint256",
          "name": "",
          "type": "uint256"
        }
      ],
      "stateMutability": "view",
      "type": "function"
    },
    {
      "inputs": [
        {
          "internalType": "address",
          "name": "",
          "type": "address"
        }
      ],
      "name": "LiquidityTokenQueue",
      "outputs": [
        {
          "internalType": "uint256",
          "name": "",
          "type": "uint256"
        }
      ],
      "stateMutability": "view",
      "type": "function"
    },
    {
      "inputs": [
        {
          "internalType": "address",
          "name": "",
          "type": "address"
        }
      ],
      "name": "ReserveManagerQueue",
      "outputs": [
        {
          "internalType": "uint256",
          "name": "",
          "type": "uint256"
        }
      ],
      "stateMutability": "view",
      "type": "function"
    },
    {
      "inputs": [],
      "name": "blocksNeededForQueue",
      "outputs": [
        {
          "internalType": "uint256",
          "name": "",
          "type": "uint256"
        }
      ],
      "stateMutability": "view",
      "type": "function"
    },
    {
      "inputs": [
        {
          "internalType": "address",
          "name": "",
          "type": "address"
        }
      ],
      "name": "bondCalculator",
      "outputs": [
        {
          "internalType": "address",
          "name": "",
          "type": "address"
        }
      ],
      "stateMutability": "view",
      "type": "function"
    },
    {
      "inputs": [
        {
          "internalType": "address",
          "name": "",
          "type": "address"
        }
      ],
      "name": "debtorQueue",
      "outputs": [
        {
          "internalType": "uint256",
          "name": "",
          "type": "uint256"
        }
      ],
      "stateMutability": "view",
      "type": "function"
    },
    {
      "inputs": [
        {
          "internalType": "uint256",
          "name": "",
          "type": "uint256"
        }
      ],
      "name": "debtors",
      "outputs": [
        {
          "internalType": "address",
          "name": "",
          "type": "address"
        }
      ],
      "stateMutability": "view",
      "type": "function"
    },
    {
      "inputs": [
        {
          "internalType": "address",
          "name": "",
          "type": "address"
        }
      ],
      "name": "isDebtor",
      "outputs": [
        {
          "internalType": "bool",
          "name": "",
          "type": "bool"
        }
      ],
      "stateMutability": "view",
      "type": "function"
    },
    {
      "inputs": [
        {
          "internalType": "address",
          "name": "",
          "type": "address"
        }
      ],
      "name": "isLiquidityDepositor",
      "outputs": [
        {
          "internalType": "bool",
          "name": "",
          "type": "bool"
        }
      ],
      "stateMutability": "view",
      "type": "function"
    },
    {
      "inputs": [
        {
          "internalType": "address",
          "name": "",
          "type": "address"
        }
      ],
      "name": "isLiquidityManager",
      "outputs": [
        {
          "internalType": "bool",
          "name": "",
          "type": "bool"
        }
      ],
      "stateMutability": "view",
      "type": "function"
    },
    {
      "inputs": [
        {
          "internalType": "address",
          "name": "",
          "type": "address"
        }
      ],
      "name": "isLiquidityToken",
      "outputs": [
        {
          "internalType": "bool",
          "name": "",
          "type": "bool"
        }
      ],
      "stateMutability": "view",
      "type": "function"
    },
    {
      "inputs": [
        {
          "internalType": "address",
          "name": "",
          "type": "address"
        }
      ],
      "name": "isReserveDepositor",
      "outputs": [
        {
          "internalType": "bool",
          "name": "",
          "type": "bool"
        }
      ],
      "stateMutability": "view",
      "type": "function"
    },
    {
      "inputs": [
        {
          "internalType": "address",
          "name": "",
          "type": "address"
        }
      ],
      "name": "isReserveManager",
      "outputs": [
        {
          "internalType": "bool",
          "name": "",
          "type": "bool"
        }
      ],
      "stateMutability": "view",
      "type": "function"
    },
    {
      "inputs": [
        {
          "internalType": "address",
          "name": "",
          "type": "address"
        }
      ],
      "name": "isReserveSpender",
      "outputs": [
        {
          "internalType": "bool",
          "name": "",
          "type": "bool"
        }
      ],
      "stateMutability": "view",
      "type": "function"
    },
    {
      "inputs": [
        {
          "internalType": "address",
          "name": "",
          "type": "address"
        }
      ],
      "name": "isReserveToken",
      "outputs": [
        {
          "internalType": "bool",
          "name": "",
          "type": "bool"
        }
      ],
      "stateMutability": "view",
      "type": "function"
    },
    {
      "inputs": [
        {
          "internalType": "address",
          "name": "",
          "type": "address"
        }
      ],
      "name": "isRewardManager",
      "outputs": [
        {
          "internalType": "bool",
          "name": "",
          "type": "bool"
        }
      ],
      "stateMutability": "view",
      "type": "function"
    },
    {
      "inputs": [
        {
          "internalType": "uint256",
          "name": "",
          "type": "uint256"
        }
      ],
      "name": "liquidityDepositors",
      "outputs": [
        {
          "internalType": "address",
          "name": "",
          "type": "address"
        }
      ],
      "stateMutability": "view",
      "type": "function"
    },
    {
      "inputs": [
        {
          "internalType": "uint256",
          "name": "",
          "type": "uint256"
        }
      ],
      "name": "liquidityManagers",
      "outputs": [
        {
          "internalType": "address",
          "name": "",
          "type": "address"
        }
      ],
      "stateMutability": "view",
      "type": "function"
    },
    {
      "inputs": [
        {
          "internalType": "uint256",
          "name": "",
          "type": "uint256"
        }
      ],
      "name": "liquidityTokens",
      "outputs": [
        {
          "internalType": "address",
          "name": "",
          "type": "address"
        }
      ],
      "stateMutability": "view",
      "type": "function"
    },
    {
      "inputs": [],
      "name": "owner",
      "outputs": [
        {
          "internalType": "address",
          "name": "",
          "type": "address"
        }
      ],
      "stateMutability": "view",
      "type": "function"
    },
    {
      "inputs": [
        {
          "internalType": "enum TreasuryHelper.MANAGING",
          "name": "_managing",
          "type": "uint8"
        },
        {
          "internalType": "address",
          "name": "_address",
          "type": "address"
        }
      ],
      "name": "queue",
      "outputs": [
        {
          "internalType": "bool",
          "name": "",
          "type": "bool"
        }
      ],
      "stateMutability": "nonpayable",
      "type": "function"
    },
    {
      "inputs": [],
      "name": "renounceOwnership",
      "outputs": [],
      "stateMutability": "nonpayable",
      "type": "function"
    },
    {
      "inputs": [
        {
          "internalType": "address",
          "name": "",
          "type": "address"
        }
      ],
      "name": "reserveDepositorQueue",
      "outputs": [
        {
          "internalType": "uint256",
          "name": "",
          "type": "uint256"
        }
      ],
      "stateMutability": "view",
      "type": "function"
    },
    {
      "inputs": [
        {
          "internalType": "uint256",
          "name": "",
          "type": "uint256"
        }
      ],
      "name": "reserveDepositors",
      "outputs": [
        {
          "internalType": "address",
          "name": "",
          "type": "address"
        }
      ],
      "stateMutability": "view",
      "type": "function"
    },
    {
      "inputs": [
        {
          "internalType": "uint256",
          "name": "",
          "type": "uint256"
        }
      ],
      "name": "reserveManagers",
      "outputs": [
        {
          "internalType": "address",
          "name": "",
          "type": "address"
        }
      ],
      "stateMutability": "view",
      "type": "function"
    },
    {
      "inputs": [
        {
          "internalType": "address",
          "name": "",
          "type": "address"
        }
      ],
      "name": "reserveSpenderQueue",
      "outputs": [
        {
          "internalType": "uint256",
          "name": "",
          "type": "uint256"
        }
      ],
      "stateMutability": "view",
      "type": "function"
    },
    {
      "inputs": [
        {
          "internalType": "uint256",
          "name": "",
          "type": "uint256"
        }
      ],
      "name": "reserveSpenders",
      "outputs": [
        {
          "internalType": "address",
          "name": "",
          "type": "address"
        }
      ],
      "stateMutability": "view",
      "type": "function"
    },
    {
      "inputs": [
        {
          "internalType": "address",
          "name": "",
          "type": "address"
        }
      ],
      "name": "reserveTokenQueue",
      "outputs": [
        {
          "internalType": "uint256",
          "name": "",
          "type": "uint256"
        }
      ],
      "stateMutability": "view",
      "type": "function"
    },
    {
      "inputs": [
        {
          "internalType": "uint256",
          "name": "",
          "type": "uint256"
        }
      ],
      "name": "reserveTokens",
      "outputs": [
        {
          "internalType": "address",
          "name": "",
          "type": "address"
        }
      ],
      "stateMutability": "view",
      "type": "function"
    },
    {
      "inputs": [
        {
          "internalType": "address",
          "name": "",
          "type": "address"
        }
      ],
      "name": "rewardManagerQueue",
      "outputs": [
        {
          "internalType": "uint256",
          "name": "",
          "type": "uint256"
        }
      ],
      "stateMutability": "view",
      "type": "function"
    },
    {
      "inputs": [
        {
          "internalType": "uint256",
          "name": "",
          "type": "uint256"
        }
      ],
      "name": "rewardManagers",
      "outputs": [
        {
          "internalType": "address",
          "name": "",
          "type": "address"
        }
      ],
      "stateMutability": "view",
      "type": "function"
    },
    {
      "inputs": [],
      "name": "sBDN",
      "outputs": [
        {
          "internalType": "address",
          "name": "",
          "type": "address"
        }
      ],
      "stateMutability": "view",
      "type": "function"
    },
    {
      "inputs": [],
      "name": "sBDNQueue",
      "outputs": [
        {
          "internalType": "uint256",
          "name": "",
          "type": "uint256"
        }
      ],
      "stateMutability": "view",
      "type": "function"
    },
    {
      "inputs": [
        {
          "internalType": "address",
          "name": "_treasuryAddress",
          "type": "address"
        }
      ],
      "name": "setTreasuryAddress",
      "outputs": [],
      "stateMutability": "nonpayable",
      "type": "function"
    },
    {
      "inputs": [
        {
          "internalType": "enum TreasuryHelper.MANAGING",
          "name": "_managing",
          "type": "uint8"
        },
        {
          "internalType": "address",
          "name": "_address",
          "type": "address"
        },
        {
          "internalType": "address",
          "name": "_calculator",
          "type": "address"
        }
      ],
      "name": "toggle",
      "outputs": [
        {
          "internalType": "bool",
          "name": "",
          "type": "bool"
        }
      ],
      "stateMutability": "nonpayable",
      "type": "function"
    },
    {
      "inputs": [
        {
          "internalType": "address",
          "name": "newOwner",
          "type": "address"
        }
      ],
      "name": "transferOwnership",
      "outputs": [],
      "stateMutability": "nonpayable",
      "type": "function"
    },
    {
      "inputs": [],
      "name": "treasury",
      "outputs": [
        {
          "internalType": "contract ITreasury",
          "name": "",
          "type": "address"
        }
      ],
      "stateMutability": "view",
      "type": "function"
    },
    {
      "inputs": [
        {
          "internalType": "address",
          "name": "_token",
          "type": "address"
        },
        {
          "internalType": "uint256",
          "name": "_amount",
          "type": "uint256"
        }
      ],
      "name": "valueOfToken",
      "outputs": [
        {
          "internalType": "uint256",
          "name": "value_",
          "type": "uint256"
        }
      ],
      "stateMutability": "view",
      "type": "function"
    }
  ],
  "bytecode": "0x60c06040523480156200001157600080fd5b506040516200417e3803806200417e8339818101604052810190620000379190620002ca565b620000576200004b620001d060201b60201c565b620001d860201b60201c565b600073ffffffffffffffffffffffffffffffffffffffff168373ffffffffffffffffffffffffffffffffffffffff1614156200009257600080fd5b8273ffffffffffffffffffffffffffffffffffffffff1660808173ffffffffffffffffffffffffffffffffffffffff1660601b81525050600073ffffffffffffffffffffffffffffffffffffffff168273ffffffffffffffffffffffffffffffffffffffff1614156200010457600080fd5b6002829080600181540180825580915050600190039060005260206000200160009091909190916101000a81548173ffffffffffffffffffffffffffffffffffffffff021916908373ffffffffffffffffffffffffffffffffffffffff1602179055506001600360008473ffffffffffffffffffffffffffffffffffffffff1673ffffffffffffffffffffffffffffffffffffffff16815260200190815260200160002060006101000a81548160ff0219169083151502179055508060a0818152505050505062000392565b600033905090565b60008060009054906101000a900473ffffffffffffffffffffffffffffffffffffffff169050816000806101000a81548173ffffffffffffffffffffffffffffffffffffffff021916908373ffffffffffffffffffffffffffffffffffffffff1602179055508173ffffffffffffffffffffffffffffffffffffffff168173ffffffffffffffffffffffffffffffffffffffff167f8be0079c531659141344cd1fd0a4f28419497f9722a3daafe3b4186f6b6457e060405160405180910390a35050565b600081519050620002ad816200035e565b92915050565b600081519050620002c48162000378565b92915050565b600080600060608486031215620002e057600080fd5b6000620002f0868287016200029c565b935050602062000303868287016200029c565b92505060406200031686828701620002b3565b9150509250925092565b60006200032d8262000334565b9050919050565b600073ffffffffffffffffffffffffffffffffffffffff82169050919050565b6000819050919050565b620003698162000320565b81146200037557600080fd5b50565b620003838162000354565b81146200038f57600080fd5b50565b60805160601c60a051613d766200040860003960008181610de1015281816111e6015281816112da015281816113ce015281816114c7015281816115c9015281816116bd015281816117b6015281816118b8015281816119ac0152611a9f015260008181610ba20152610ee90152613d766000f3fe608060405234801561001057600080fd5b50600436106102485760003560e01c8063932cc8c31161013b578063d1b317e5116100b8578063f2fde38b1161007c578063f2fde38b14610837578063fb93958814610853578063fbfd393b14610883578063fd1ec010146108b3578063fff9ee87146108e357610248565b8063d1b317e514610747578063df89b34414610777578063e83afee3146107a7578063ebd83cd8146107d7578063ee4e19a11461080757610248565b8063b5b1d560116100ff578063b5b1d56014610669578063c24ad43e14610699578063cd85641a146106c9578063d031370b146106f9578063d07f390f1461072957610248565b8063932cc8c314610579578063a1210a2d146105a9578063a569e571146105d9578063ab319c9a14610609578063b1bd38b01461063957610248565b8063715018a6116101c957806387d67dff1161018d57806387d67dff146104ad57806388981603146104dd5780638da5cb5b146104fb5780638f59c727146105195780638f6a7b571461054957610248565b8063715018a614610407578063764b4b2f14610411578063788c6c011461042f5780637f2b8b0f1461045f578063869871bf1461047d57610248565b806361d027b31161021057806361d027b31461033d5780636605bfda1461035b57806368c31dd5146103775780636b5e40a7146103a757806370a0502a146103d757610248565b80630619aff11461024d578063124154ca1461027d5780631af4da70146102ad578063437f7912146102dd5780634e83423c1461030d575b600080fd5b61026760048036038101906102629190613610565b610913565b6040516102749190613753565b60405180910390f35b61029760048036038101906102929190613520565b610952565b6040516102a491906137c0565b60405180910390f35b6102c760048036038101906102c29190613520565b610972565b6040516102d49190613753565b60405180910390f35b6102f760048036038101906102f29190613610565b6109a5565b6040516103049190613753565b60405180910390f35b61032760048036038101906103229190613520565b6109e4565b60405161033491906137c0565b60405180910390f35b610345610a04565b60405161035291906137db565b60405180910390f35b61037560048036038101906103709190613520565b610a2a565b005b610391600480360381019061038c9190613520565b610ab0565b60405161039e91906137c0565b60405180910390f35b6103c160048036038101906103bc9190613610565b610ad0565b6040516103ce9190613753565b60405180910390f35b6103f160048036038101906103ec9190613610565b610b0f565b6040516103fe9190613753565b60405180910390f35b61040f610b4e565b005b610419610b62565b6040516104269190613753565b60405180910390f35b61044960048036038101906104449190613520565b610b88565b6040516104569190613876565b60405180910390f35b610467610ba0565b6040516104749190613753565b60405180910390f35b61049760048036038101906104929190613610565b610bc4565b6040516104a49190613753565b60405180910390f35b6104c760048036038101906104c29190613520565b610c03565b6040516104d491906137c0565b60405180910390f35b6104e5610c23565b6040516104f29190613876565b60405180910390f35b610503610c29565b6040516105109190613753565b60405180910390f35b610533600480360381019061052e9190613520565b610c52565b6040516105409190613876565b60405180910390f35b610563600480360381019061055e9190613610565b610c6a565b6040516105709190613753565b60405180910390f35b610593600480360381019061058e9190613520565b610ca9565b6040516105a09190613876565b60405180910390f35b6105c360048036038101906105be9190613520565b610cc1565b6040516105d091906137c0565b60405180910390f35b6105f360048036038101906105ee9190613520565b610ce1565b60405161060091906137c0565b60405180910390f35b610623600480360381019061061e9190613520565b610d01565b6040516106309190613876565b60405180910390f35b610653600480360381019061064e9190613520565b610d19565b6040516106609190613876565b60405180910390f35b610683600480360381019061067e9190613610565b610d31565b6040516106909190613753565b60405180910390f35b6106b360048036038101906106ae9190613520565b610d70565b6040516106c09190613876565b60405180910390f35b6106e360048036038101906106de9190613520565b610d88565b6040516106f09190613876565b60405180910390f35b610713600480360381019061070e9190613610565b610da0565b6040516107209190613753565b60405180910390f35b610731610ddf565b60405161073e9190613876565b60405180910390f35b610761600480360381019061075c9190613549565b610e03565b60405161076e9190613876565b60405180910390f35b610791600480360381019061078c9190613520565b611104565b60405161079e91906137c0565b60405180910390f35b6107c160048036038101906107bc9190613585565b611124565b6040516107ce91906137c0565b60405180910390f35b6107f160048036038101906107ec9190613520565b611b65565b6040516107fe91906137c0565b60405180910390f35b610821600480360381019061081c9190613520565b611b85565b60405161082e91906137c0565b60405180910390f35b610851600480360381019061084c9190613520565b611ba5565b005b61086d60048036038101906108689190613520565b611c29565b60405161087a9190613876565b60405180910390f35b61089d600480360381019061089891906135c1565b611c41565b6040516108aa91906137c0565b60405180910390f35b6108cd60048036038101906108c89190613610565b613096565b6040516108da9190613753565b60405180910390f35b6108fd60048036038101906108f89190613520565b6130d5565b60405161090a9190613876565b60405180910390f35b6012818154811061092357600080fd5b906000526020600020016000915054906101000a900473ffffffffffffffffffffffffffffffffffffffff1681565b60066020528060005260406000206000915054906101000a900460ff1681565b60116020528060005260406000206000915054906101000a900473ffffffffffffffffffffffffffffffffffffffff1681565b600881815481106109b557600080fd5b906000526020600020016000915054906101000a900473ffffffffffffffffffffffffffffffffffffffff1681565b601c6020528060005260406000206000915054906101000a900460ff1681565b600160009054906101000a900473ffffffffffffffffffffffffffffffffffffffff1681565b610a326130ed565b600073ffffffffffffffffffffffffffffffffffffffff168173ffffffffffffffffffffffffffffffffffffffff161415610a6c57600080fd5b80600160006101000a81548173ffffffffffffffffffffffffffffffffffffffff021916908373ffffffffffffffffffffffffffffffffffffffff16021790555050565b60036020528060005260406000206000915054906101000a900460ff1681565b60058181548110610ae057600080fd5b906000526020600020016000915054906101000a900473ffffffffffffffffffffffffffffffffffffffff1681565b60158181548110610b1f57600080fd5b906000526020600020016000915054906101000a900473ffffffffffffffffffffffffffffffffffffffff1681565b610b566130ed565b610b60600061316b565b565b601e60009054906101000a900473ffffffffffffffffffffffffffffffffffffffff1681565b60046020528060005260406000206000915090505481565b7f000000000000000000000000000000000000000000000000000000000000000081565b60188181548110610bd457600080fd5b906000526020600020016000915054906101000a900473ffffffffffffffffffffffffffffffffffffffff1681565b60096020528060005260406000206000915054906101000a900460ff1681565b601f5481565b60008060009054906101000a900473ffffffffffffffffffffffffffffffffffffffff16905090565b600d6020528060005260406000206000915090505481565b600e8181548110610c7a57600080fd5b906000526020600020016000915054906101000a900473ffffffffffffffffffffffffffffffffffffffff1681565b60076020528060005260406000206000915090505481565b600f6020528060005260406000206000915054906101000a900460ff1681565b600c6020528060005260406000206000915054906101000a900460ff1681565b60176020528060005260406000206000915090505481565b60146020528060005260406000206000915090505481565b601b8181548110610d4157600080fd5b906000526020600020016000915054906101000a900473ffffffffffffffffffffffffffffffffffffffff1681565b600a6020528060005260406000206000915090505481565b601a6020528060005260406000206000915090505481565b60028181548110610db057600080fd5b906000526020600020016000915054906101000a900473ffffffffffffffffffffffffffffffffffffffff1681565b7f000000000000000000000000000000000000000000000000000000000000000081565b6000600360008473ffffffffffffffffffffffffffffffffffffffff1673ffffffffffffffffffffffffffffffffffffffff16815260200190815260200160002060009054906101000a900460ff1615610fb557610fae8373ffffffffffffffffffffffffffffffffffffffff1663313ce5676040518163ffffffff1660e01b815260040160206040518083038186803b158015610ea057600080fd5b505afa158015610eb4573d6000803e3d6000fd5b505050506040513d601f19601f82011682018060405250810190610ed89190613662565b600a610ee4919061397c565b610fa07f000000000000000000000000000000000000000000000000000000000000000073ffffffffffffffffffffffffffffffffffffffff1663313ce5676040518163ffffffff1660e01b815260040160206040518083038186803b158015610f4d57600080fd5b505afa158015610f61573d6000803e3d6000fd5b505050506040513d601f19601f82011682018060405250810190610f859190613662565b600a610f91919061397c565b8561322f90919063ffffffff16565b61324590919063ffffffff16565b90506110fe565b600c60008473ffffffffffffffffffffffffffffffffffffffff1673ffffffffffffffffffffffffffffffffffffffff16815260200190815260200160002060009054906101000a900460ff16156110f857601160008473ffffffffffffffffffffffffffffffffffffffff1673ffffffffffffffffffffffffffffffffffffffff16815260200190815260200160002060009054906101000a900473ffffffffffffffffffffffffffffffffffffffff1673ffffffffffffffffffffffffffffffffffffffff16634249719f84846040518363ffffffff1660e01b81526004016110a1929190613797565b60206040518083038186803b1580156110b957600080fd5b505afa1580156110cd573d6000803e3d6000fd5b505050506040513d601f19601f820116820180604052508101906110f19190613639565b90506110fd565b600090505b5b92915050565b60166020528060005260406000206000915054906101000a900460ff1681565b600061112e6130ed565b600073ffffffffffffffffffffffffffffffffffffffff168273ffffffffffffffffffffffffffffffffffffffff16141561116857600080fd5b600060098111156111a2577f4e487b7100000000000000000000000000000000000000000000000000000000600052602160045260246000fd5b8360098111156111db577f4e487b7100000000000000000000000000000000000000000000000000000000600052602160045260246000fd5b141561125c576112147f00000000000000000000000000000000000000000000000000000000000000004361325b90919063ffffffff16565b600760008473ffffffffffffffffffffffffffffffffffffffff1673ffffffffffffffffffffffffffffffffffffffff16815260200190815260200160002081905550611aea565b60016009811115611296577f4e487b7100000000000000000000000000000000000000000000000000000000600052602160045260246000fd5b8360098111156112cf577f4e487b7100000000000000000000000000000000000000000000000000000000600052602160045260246000fd5b1415611350576113087f00000000000000000000000000000000000000000000000000000000000000004361325b90919063ffffffff16565b600a60008473ffffffffffffffffffffffffffffffffffffffff1673ffffffffffffffffffffffffffffffffffffffff16815260200190815260200160002081905550611ae9565b6002600981111561138a577f4e487b7100000000000000000000000000000000000000000000000000000000600052602160045260246000fd5b8360098111156113c3577f4e487b7100000000000000000000000000000000000000000000000000000000600052602160045260246000fd5b1415611444576113fc7f00000000000000000000000000000000000000000000000000000000000000004361325b90919063ffffffff16565b600460008473ffffffffffffffffffffffffffffffffffffffff1673ffffffffffffffffffffffffffffffffffffffff16815260200190815260200160002081905550611ae8565b6003600981111561147e577f4e487b7100000000000000000000000000000000000000000000000000000000600052602160045260246000fd5b8360098111156114b7577f4e487b7100000000000000000000000000000000000000000000000000000000600052602160045260246000fd5b141561154b576115036114f460027f000000000000000000000000000000000000000000000000000000000000000061322f90919063ffffffff16565b4361325b90919063ffffffff16565b601460008473ffffffffffffffffffffffffffffffffffffffff1673ffffffffffffffffffffffffffffffffffffffff16815260200190815260200160002081905550611ae7565b60046009811115611585577f4e487b7100000000000000000000000000000000000000000000000000000000600052602160045260246000fd5b8360098111156115be577f4e487b7100000000000000000000000000000000000000000000000000000000600052602160045260246000fd5b141561163f576115f77f00000000000000000000000000000000000000000000000000000000000000004361325b90919063ffffffff16565b601060008473ffffffffffffffffffffffffffffffffffffffff1673ffffffffffffffffffffffffffffffffffffffff16815260200190815260200160002081905550611ae6565b60056009811115611679577f4e487b7100000000000000000000000000000000000000000000000000000000600052602160045260246000fd5b8360098111156116b2577f4e487b7100000000000000000000000000000000000000000000000000000000600052602160045260246000fd5b1415611733576116eb7f00000000000000000000000000000000000000000000000000000000000000004361325b90919063ffffffff16565b600d60008473ffffffffffffffffffffffffffffffffffffffff1673ffffffffffffffffffffffffffffffffffffffff16815260200190815260200160002081905550611ae5565b6006600981111561176d577f4e487b7100000000000000000000000000000000000000000000000000000000600052602160045260246000fd5b8360098111156117a6577f4e487b7100000000000000000000000000000000000000000000000000000000600052602160045260246000fd5b141561183a576117f26117e360027f000000000000000000000000000000000000000000000000000000000000000061322f90919063ffffffff16565b4361325b90919063ffffffff16565b601760008473ffffffffffffffffffffffffffffffffffffffff1673ffffffffffffffffffffffffffffffffffffffff16815260200190815260200160002081905550611ae4565b60076009811115611874577f4e487b7100000000000000000000000000000000000000000000000000000000600052602160045260246000fd5b8360098111156118ad577f4e487b7100000000000000000000000000000000000000000000000000000000600052602160045260246000fd5b141561192e576118e67f00000000000000000000000000000000000000000000000000000000000000004361325b90919063ffffffff16565b601a60008473ffffffffffffffffffffffffffffffffffffffff1673ffffffffffffffffffffffffffffffffffffffff16815260200190815260200160002081905550611ae3565b60086009811115611968577f4e487b7100000000000000000000000000000000000000000000000000000000600052602160045260246000fd5b8360098111156119a1577f4e487b7100000000000000000000000000000000000000000000000000000000600052602160045260246000fd5b1415611a22576119da7f00000000000000000000000000000000000000000000000000000000000000004361325b90919063ffffffff16565b601d60008473ffffffffffffffffffffffffffffffffffffffff1673ffffffffffffffffffffffffffffffffffffffff16815260200190815260200160002081905550611ae2565b600980811115611a5b577f4e487b7100000000000000000000000000000000000000000000000000000000600052602160045260246000fd5b836009811115611a94577f4e487b7100000000000000000000000000000000000000000000000000000000600052602160045260246000fd5b1415611ad857611acd7f00000000000000000000000000000000000000000000000000000000000000004361325b90919063ffffffff16565b601f81905550611ae1565b60009050611b5f565b5b5b5b5b5b5b5b5b5b826009811115611b23577f4e487b7100000000000000000000000000000000000000000000000000000000600052602160045260246000fd5b7f0e4f2c4b5bc209d509bc3d49348c787fefadc66a79351b470599ac0f5be52eaf83604051611b529190613753565b60405180910390a2600190505b92915050565b60136020528060005260406000206000915054906101000a900460ff1681565b60196020528060005260406000206000915054906101000a900460ff1681565b611bad6130ed565b600073ffffffffffffffffffffffffffffffffffffffff168173ffffffffffffffffffffffffffffffffffffffff161415611c1d576040517f08c379a0000000000000000000000000000000000000000000000000000000008152600401611c1490613816565b60405180910390fd5b611c268161316b565b50565b601d6020528060005260406000206000915090505481565b6000611c4b6130ed565b600073ffffffffffffffffffffffffffffffffffffffff168373ffffffffffffffffffffffffffffffffffffffff161415611c8557600080fd5b6000806009811115611cc0577f4e487b7100000000000000000000000000000000000000000000000000000000600052602160045260246000fd5b856009811115611cf9577f4e487b7100000000000000000000000000000000000000000000000000000000600052602160045260246000fd5b1415611e7657611d0c6007600686613271565b15611dca576000600760008673ffffffffffffffffffffffffffffffffffffffff1673ffffffffffffffffffffffffffffffffffffffff16815260200190815260200160002081905550611d616005856133db565b611dc9576005849080600181540180825580915050600190039060005260206000200160009091909190916101000a81548173ffffffffffffffffffffffffffffffffffffffff021916908373ffffffffffffffffffffffffffffffffffffffff1602179055505b5b600660008573ffffffffffffffffffffffffffffffffffffffff1673ffffffffffffffffffffffffffffffffffffffff16815260200190815260200160002060009054906101000a900460ff1615905080600660008673ffffffffffffffffffffffffffffffffffffffff1673ffffffffffffffffffffffffffffffffffffffff16815260200190815260200160002060006101000a81548160ff021916908315150217905550613017565b60016009811115611eb0577f4e487b7100000000000000000000000000000000000000000000000000000000600052602160045260246000fd5b856009811115611ee9577f4e487b7100000000000000000000000000000000000000000000000000000000600052602160045260246000fd5b141561206657611efc600a600986613271565b15611fba576000600a60008673ffffffffffffffffffffffffffffffffffffffff1673ffffffffffffffffffffffffffffffffffffffff16815260200190815260200160002081905550611f516008856133db565b611fb9576008849080600181540180825580915050600190039060005260206000200160009091909190916101000a81548173ffffffffffffffffffffffffffffffffffffffff021916908373ffffffffffffffffffffffffffffffffffffffff1602179055505b5b600960008573ffffffffffffffffffffffffffffffffffffffff1673ffffffffffffffffffffffffffffffffffffffff16815260200190815260200160002060009054906101000a900460ff1615905080600960008673ffffffffffffffffffffffffffffffffffffffff1673ffffffffffffffffffffffffffffffffffffffff16815260200190815260200160002060006101000a81548160ff021916908315150217905550613016565b600260098111156120a0577f4e487b7100000000000000000000000000000000000000000000000000000000600052602160045260246000fd5b8560098111156120d9577f4e487b7100000000000000000000000000000000000000000000000000000000600052602160045260246000fd5b1415612256576120ec6004600386613271565b156121aa576000600460008673ffffffffffffffffffffffffffffffffffffffff1673ffffffffffffffffffffffffffffffffffffffff168152602001908152602001600020819055506121416002856133db565b6121a9576002849080600181540180825580915050600190039060005260206000200160009091909190916101000a81548173ffffffffffffffffffffffffffffffffffffffff021916908373ffffffffffffffffffffffffffffffffffffffff1602179055505b5b600360008573ffffffffffffffffffffffffffffffffffffffff1673ffffffffffffffffffffffffffffffffffffffff16815260200190815260200160002060009054906101000a900460ff1615905080600360008673ffffffffffffffffffffffffffffffffffffffff1673ffffffffffffffffffffffffffffffffffffffff16815260200190815260200160002060006101000a81548160ff021916908315150217905550613015565b60036009811115612290577f4e487b7100000000000000000000000000000000000000000000000000000000600052602160045260246000fd5b8560098111156122c9577f4e487b7100000000000000000000000000000000000000000000000000000000600052602160045260246000fd5b14156124a9576122dc6014601386613271565b156123fd576012849080600181540180825580915050600190039060005260206000200160009091909190916101000a81548173ffffffffffffffffffffffffffffffffffffffff021916908373ffffffffffffffffffffffffffffffffffffffff1602179055506000601460008673ffffffffffffffffffffffffffffffffffffffff1673ffffffffffffffffffffffffffffffffffffffff168152602001908152602001600020819055506123946012856133db565b6123fc576012849080600181540180825580915050600190039060005260206000200160009091909190916101000a81548173ffffffffffffffffffffffffffffffffffffffff021916908373ffffffffffffffffffffffffffffffffffffffff1602179055505b5b601360008573ffffffffffffffffffffffffffffffffffffffff1673ffffffffffffffffffffffffffffffffffffffff16815260200190815260200160002060009054906101000a900460ff1615905080601360008673ffffffffffffffffffffffffffffffffffffffff1673ffffffffffffffffffffffffffffffffffffffff16815260200190815260200160002060006101000a81548160ff021916908315150217905550613014565b600460098111156124e3577f4e487b7100000000000000000000000000000000000000000000000000000000600052602160045260246000fd5b85600981111561251c577f4e487b7100000000000000000000000000000000000000000000000000000000600052602160045260246000fd5b14156126fc5761252f6010600f86613271565b1561265057600e849080600181540180825580915050600190039060005260206000200160009091909190916101000a81548173ffffffffffffffffffffffffffffffffffffffff021916908373ffffffffffffffffffffffffffffffffffffffff1602179055506000601060008673ffffffffffffffffffffffffffffffffffffffff1673ffffffffffffffffffffffffffffffffffffffff168152602001908152602001600020819055506125e7600e856133db565b61264f57600e849080600181540180825580915050600190039060005260206000200160009091909190916101000a81548173ffffffffffffffffffffffffffffffffffffffff021916908373ffffffffffffffffffffffffffffffffffffffff1602179055505b5b600f60008573ffffffffffffffffffffffffffffffffffffffff1673ffffffffffffffffffffffffffffffffffffffff16815260200190815260200160002060009054906101000a900460ff1615905080600f60008673ffffffffffffffffffffffffffffffffffffffff1673ffffffffffffffffffffffffffffffffffffffff16815260200190815260200160002060006101000a81548160ff021916908315150217905550613013565b60056009811115612736577f4e487b7100000000000000000000000000000000000000000000000000000000600052602160045260246000fd5b85600981111561276f577f4e487b7100000000000000000000000000000000000000000000000000000000600052602160045260246000fd5b141561296a57612782600d600c86613271565b15612840576000600d60008673ffffffffffffffffffffffffffffffffffffffff1673ffffffffffffffffffffffffffffffffffffffff168152602001908152602001600020819055506127d7600b856133db565b61283f57600b849080600181540180825580915050600190039060005260206000200160009091909190916101000a81548173ffffffffffffffffffffffffffffffffffffffff021916908373ffffffffffffffffffffffffffffffffffffffff1602179055505b5b600c60008573ffffffffffffffffffffffffffffffffffffffff1673ffffffffffffffffffffffffffffffffffffffff16815260200190815260200160002060009054906101000a900460ff1615905080600c60008673ffffffffffffffffffffffffffffffffffffffff1673ffffffffffffffffffffffffffffffffffffffff16815260200190815260200160002060006101000a81548160ff02191690831515021790555082601160008673ffffffffffffffffffffffffffffffffffffffff1673ffffffffffffffffffffffffffffffffffffffff16815260200190815260200160002060006101000a81548173ffffffffffffffffffffffffffffffffffffffff021916908373ffffffffffffffffffffffffffffffffffffffff160217905550613012565b600660098111156129a4577f4e487b7100000000000000000000000000000000000000000000000000000000600052602160045260246000fd5b8560098111156129dd577f4e487b7100000000000000000000000000000000000000000000000000000000600052602160045260246000fd5b1415612b5a576129f06017601686613271565b15612aae576000601760008673ffffffffffffffffffffffffffffffffffffffff1673ffffffffffffffffffffffffffffffffffffffff16815260200190815260200160002081905550612a456015856133db565b612aad576015849080600181540180825580915050600190039060005260206000200160009091909190916101000a81548173ffffffffffffffffffffffffffffffffffffffff021916908373ffffffffffffffffffffffffffffffffffffffff1602179055505b5b601660008573ffffffffffffffffffffffffffffffffffffffff1673ffffffffffffffffffffffffffffffffffffffff16815260200190815260200160002060009054906101000a900460ff1615905080601660008673ffffffffffffffffffffffffffffffffffffffff1673ffffffffffffffffffffffffffffffffffffffff16815260200190815260200160002060006101000a81548160ff021916908315150217905550613011565b60076009811115612b94577f4e487b7100000000000000000000000000000000000000000000000000000000600052602160045260246000fd5b856009811115612bcd577f4e487b7100000000000000000000000000000000000000000000000000000000600052602160045260246000fd5b1415612d4a57612be0601a601986613271565b15612c9e576000601a60008673ffffffffffffffffffffffffffffffffffffffff1673ffffffffffffffffffffffffffffffffffffffff16815260200190815260200160002081905550612c356018856133db565b612c9d576018849080600181540180825580915050600190039060005260206000200160009091909190916101000a81548173ffffffffffffffffffffffffffffffffffffffff021916908373ffffffffffffffffffffffffffffffffffffffff1602179055505b5b601960008573ffffffffffffffffffffffffffffffffffffffff1673ffffffffffffffffffffffffffffffffffffffff16815260200190815260200160002060009054906101000a900460ff1615905080601960008673ffffffffffffffffffffffffffffffffffffffff1673ffffffffffffffffffffffffffffffffffffffff16815260200190815260200160002060006101000a81548160ff021916908315150217905550613010565b60086009811115612d84577f4e487b7100000000000000000000000000000000000000000000000000000000600052602160045260246000fd5b856009811115612dbd577f4e487b7100000000000000000000000000000000000000000000000000000000600052602160045260246000fd5b1415612f3a57612dd0601d601c86613271565b15612e8e576000601d60008673ffffffffffffffffffffffffffffffffffffffff1673ffffffffffffffffffffffffffffffffffffffff16815260200190815260200160002081905550612e25601b856133db565b612e8d57601b849080600181540180825580915050600190039060005260206000200160009091909190916101000a81548173ffffffffffffffffffffffffffffffffffffffff021916908373ffffffffffffffffffffffffffffffffffffffff1602179055505b5b601c60008573ffffffffffffffffffffffffffffffffffffffff1673ffffffffffffffffffffffffffffffffffffffff16815260200190815260200160002060009054906101000a900460ff1615905080601c60008673ffffffffffffffffffffffffffffffffffffffff1673ffffffffffffffffffffffffffffffffffffffff16815260200190815260200160002060006101000a81548160ff02191690831515021790555061300f565b600980811115612f73577f4e487b7100000000000000000000000000000000000000000000000000000000600052602160045260246000fd5b856009811115612fac577f4e487b7100000000000000000000000000000000000000000000000000000000600052602160045260246000fd5b1415613004576000601f8190555083601e60006101000a81548173ffffffffffffffffffffffffffffffffffffffff021916908373ffffffffffffffffffffffffffffffffffffffff1602179055506001905061300e565b600091505061308f565b5b5b5b5b5b5b5b5b5b846009811115613050577f4e487b7100000000000000000000000000000000000000000000000000000000600052602160045260246000fd5b7f0dcacb7e392f3d6a216ed2660e3dcfd40b7793d33591db2ba185a6b8e44fc477858360405161308192919061376e565b60405180910390a260019150505b9392505050565b600b81815481106130a657600080fd5b906000526020600020016000915054906101000a900473ffffffffffffffffffffffffffffffffffffffff1681565b60106020528060005260406000206000915090505481565b6130f56134af565b73ffffffffffffffffffffffffffffffffffffffff16613113610c29565b73ffffffffffffffffffffffffffffffffffffffff1614613169576040517f08c379a000000000000000000000000000000000000000000000000000000000815260040161316090613836565b60405180910390fd5b565b60008060009054906101000a900473ffffffffffffffffffffffffffffffffffffffff169050816000806101000a81548173ffffffffffffffffffffffffffffffffffffffff021916908373ffffffffffffffffffffffffffffffffffffffff1602179055508173ffffffffffffffffffffffffffffffffffffffff168173ffffffffffffffffffffffffffffffffffffffff167f8be0079c531659141344cd1fd0a4f28419497f9722a3daafe3b4186f6b6457e060405160405180910390a35050565b6000818361323d9190613a9a565b905092915050565b6000818361325391906138f8565b905092915050565b6000818361326991906138a2565b905092915050565b60008260008373ffffffffffffffffffffffffffffffffffffffff1673ffffffffffffffffffffffffffffffffffffffff16815260200190815260200160002060009054906101000a900460ff166133cf5760008460008473ffffffffffffffffffffffffffffffffffffffff1673ffffffffffffffffffffffffffffffffffffffff168152602001908152602001600020541415613345576040517f08c379a000000000000000000000000000000000000000000000000000000000815260040161333c90613856565b60405180910390fd5b438460008473ffffffffffffffffffffffffffffffffffffffff1673ffffffffffffffffffffffffffffffffffffffff1681526020019081526020016000205411156133c6576040517f08c379a00000000000000000000000000000000000000000000000000000000081526004016133bd906137f6565b60405180910390fd5b600190506133d4565b600090505b9392505050565b600080600090505b83805490508110156134a3578273ffffffffffffffffffffffffffffffffffffffff1684828154811061343f577f4e487b7100000000000000000000000000000000000000000000000000000000600052603260045260246000fd5b9060005260206000200160009054906101000a900473ffffffffffffffffffffffffffffffffffffffff1673ffffffffffffffffffffffffffffffffffffffff1614156134905760019150506134a9565b808061349b90613b6d565b9150506133e3565b50600090505b92915050565b600033905090565b6000813590506134c681613ceb565b92915050565b6000813590506134db81613d02565b92915050565b6000813590506134f081613d12565b92915050565b60008151905061350581613d12565b92915050565b60008151905061351a81613d29565b92915050565b60006020828403121561353257600080fd5b6000613540848285016134b7565b91505092915050565b6000806040838503121561355c57600080fd5b600061356a858286016134b7565b925050602061357b858286016134e1565b9150509250929050565b6000806040838503121561359857600080fd5b60006135a6858286016134cc565b92505060206135b7858286016134b7565b9150509250929050565b6000806000606084860312156135d657600080fd5b60006135e4868287016134cc565b93505060206135f5868287016134b7565b9250506040613606868287016134b7565b9150509250925092565b60006020828403121561362257600080fd5b6000613630848285016134e1565b91505092915050565b60006020828403121561364b57600080fd5b6000613659848285016134f6565b91505092915050565b60006020828403121561367457600080fd5b60006136828482850161350b565b91505092915050565b61369481613af4565b82525050565b6136a381613b06565b82525050565b6136b281613b49565b82525050565b60006136c5601183613891565b91506136d082613c21565b602082019050919050565b60006136e8602683613891565b91506136f382613c4a565b604082019050919050565b600061370b602083613891565b915061371682613c99565b602082019050919050565b600061372e600a83613891565b915061373982613cc2565b602082019050919050565b61374d81613b32565b82525050565b6000602082019050613768600083018461368b565b92915050565b6000604082019050613783600083018561368b565b613790602083018461369a565b9392505050565b60006040820190506137ac600083018561368b565b6137b96020830184613744565b9392505050565b60006020820190506137d5600083018461369a565b92915050565b60006020820190506137f060008301846136a9565b92915050565b6000602082019050818103600083015261380f816136b8565b9050919050565b6000602082019050818103600083015261382f816136db565b9050919050565b6000602082019050818103600083015261384f816136fe565b9050919050565b6000602082019050818103600083015261386f81613721565b9050919050565b600060208201905061388b6000830184613744565b92915050565b600082825260208201905092915050565b60006138ad82613b32565b91506138b883613b32565b9250827fffffffffffffffffffffffffffffffffffffffffffffffffffffffffffffffff038211156138ed576138ec613bb6565b5b828201905092915050565b600061390382613b32565b915061390e83613b32565b92508261391e5761391d613be5565b5b828204905092915050565b6000808291508390505b60018511156139735780860481111561394f5761394e613bb6565b5b600185161561395e5780820291505b808102905061396c85613c14565b9450613933565b94509492505050565b600061398782613b32565b915061399283613b3c565b92506139bf7fffffffffffffffffffffffffffffffffffffffffffffffffffffffffffffffff84846139c7565b905092915050565b6000826139d75760019050613a93565b816139e55760009050613a93565b81600181146139fb5760028114613a0557613a34565b6001915050613a93565b60ff841115613a1757613a16613bb6565b5b8360020a915084821115613a2e57613a2d613bb6565b5b50613a93565b5060208310610133831016604e8410600b8410161715613a695782820a905083811115613a6457613a63613bb6565b5b613a93565b613a768484846001613929565b92509050818404811115613a8d57613a8c613bb6565b5b81810290505b9392505050565b6000613aa582613b32565b9150613ab083613b32565b9250817fffffffffffffffffffffffffffffffffffffffffffffffffffffffffffffffff0483118215151615613ae957613ae8613bb6565b5b828202905092915050565b6000613aff82613b12565b9050919050565b60008115159050919050565b600073ffffffffffffffffffffffffffffffffffffffff82169050919050565b6000819050919050565b600060ff82169050919050565b6000613b5482613b5b565b9050919050565b6000613b6682613b12565b9050919050565b6000613b7882613b32565b91507fffffffffffffffffffffffffffffffffffffffffffffffffffffffffffffffff821415613bab57613baa613bb6565b5b600182019050919050565b7f4e487b7100000000000000000000000000000000000000000000000000000000600052601160045260246000fd5b7f4e487b7100000000000000000000000000000000000000000000000000000000600052601260045260246000fd5b60008160011c9050919050565b7f5175657565206e6f742065787069726564000000000000000000000000000000600082015250565b7f4f776e61626c653a206e6577206f776e657220697320746865207a65726f206160008201527f6464726573730000000000000000000000000000000000000000000000000000602082015250565b7f4f776e61626c653a2063616c6c6572206973206e6f7420746865206f776e6572600082015250565b7f4d75737420717565756500000000000000000000000000000000000000000000600082015250565b613cf481613af4565b8114613cff57600080fd5b50565b600a8110613d0f57600080fd5b50565b613d1b81613b32565b8114613d2657600080fd5b50565b613d3281613b3c565b8114613d3d57600080fd5b5056fea2646970667358221220744c72643a85473d2143914eb348be81e5cd5d2406394260301aa815c473dcc064736f6c63430008040033",
  "linkReferences": {},
  "deployedLinkReferences": {}
}